:020000040000FA
:10000000008E0020F902000001030000030300003D
:1000100005030000070300000903000000000000C2
:100020000000000000000000000000000B030000C2
:100030000D030000000000000F030000110300008A
:100040001303000013030000E1090000ED060000A7
:1000500013030000130300006D05000013030000EC
:10006000C90900001303000013030000130300007C
:100070001303000013030000130300001303000028
:100080001303000013030000130300001303000018
:100090001303000013030000130300001303000008
:1000A00013030000130300001303000013030000F8
:1000B0001303000013030000000000000000000014
:1000C00013030000130300001303000013030000D8
:1000D00013030000130300001303000000000000DE
:1000E0000000000000000000000000000000000010
:1000F0000000000000000000000000000000000000
:1001000000000000000000000000000000000000EF
:1001100000000000000000000000000000000000DF
:1001200000000000000000000000000000000000CF
:1001300000000000000000000000000000000000BF
:1001400000000000000000000000000000000000AF
:10015000000000000000000000000000000000009F
:10016000000000000000000000000000000000008F
:10017000000000000000000000000000000000007F
:10018000000000000000000000000000000000006F
:10019000000000000000000000000000000000005F
:1001A000000000000000000000000000000000004F
:1001B000000000000000000000000000000000003F
:1001C000000000000000000000000000000000002F
:1001D000000000000000000000000000000000001F
:1001E000000000000000000000000000000000000F
:1001F00000000000000000000000000000000000FF
:10020000DFF80CD000F040F900480047F9920000F8
:10021000008E002030B4044654E8000F0D4644E838
:100220000053002BF8D1156030BC704730B4044641
:1002300054E8000F40EA010544E80053002BF7D1D1
:10024000156030BC704730B4044654E8000F00EA33
:10025000010544E80053002BF7D1156030BC70470E
:1002600030B4044654E8000F80EA010544E8005326
:10027000002BF7D1156030BC704730B4044654E809
:10028000000F00EB010544E80053002BF7D1156087
:1002900030BC704730B4044654E8000FA0EB0105B1
:1002A00044E80053002BF7D1156030BC704770B4A0
:1002B00004464FF0000054E8006F0D68AE4207BFDF
:1002C00044E80023012044E800630E60002B1CBFBB
:1002D0000020F0E770BC704730B4044654E8000FCB
:1002E00088422CBF451A054644E80053002BF5D13F
:1002F000156030BC7047000006488047064800473C
:10030000FEE7FEE7FEE7FEE7FEE7FEE7FEE7FEE7C5
:10031000FEE7FEE731070000010200002DE9F05F73
:100320000546002092469B46884606468146402464
:100330001BE0284641464746224600F094F85346C3
:100340005A46C01A914110D311461846224600F071
:1003500016F82D1A67EB01084F46224601200021AE
:1003600000F00DF817EB00094E41201EA4F1010426
:10037000DFDC484631462A464346BDE8F09F202A46
:1003800004DB203A00FA02F1002070479140C2F1EC
:10039000200320FA03F3194390407047202A06DB1C
:1003A000CB17203A41FA02F043EAE07306E041FA43
:1003B00002F3D040C2F12002914008431946704731
:1003C000004870478CD7000010B5431A934209D2F9
:1003D0008318881803E010F8011D03F8011D521E50
:1003E000F9D210BD40EA01039B0703D009E008C918
:1003F000121F08C0042AFAD203E011F8013B00F8EA
:10040000013B521EF9D210BDD2B201E000F8012B1F
:10041000491EFBD270470022F6E710B513460A4684
:1004200004461946FFF7F0FF204610BD421C10F8A5
:10043000011B0029FBD1801A704730B5044600200B
:10044000034600E05B1C934203D2E05CCD5C401BA2
:10045000F8D030BD034611F8012B00F8012B002A1B
:10046000F9D118467047202A04DB203A21FA02F01D
:100470000021704721FA02F3D040C2F120029140DE
:100480000843194670470000064C074D06E0E06837
:1004900040F0010394E8070098471034AC42F6D3CB
:1004A000FFF7B2FE64E3000084E3000070B58C182F
:1004B00010F8015B15F0070301D110F8013B2A1178
:1004C00006D110F8012B03E010F8016B01F8016B65
:1004D0005B1EF9D12B0705D40023521E0DD401F861
:1004E000013BFAE710F8013BCB1A921C03E013F82A
:1004F000015B01F8015B521EF9D5A142D8D300205F
:1005000070BD2DE9F04707460C4615461E464FF0D4
:1005100000084FF6FF70844218D040F265406043F7
:100520004FF47A71694390FBF1F905FB09F081B250
:1005300007F1BC0020F81610A9F1010002B2314603
:10054000384601F071FE40EA080800BF4046BDE8A9
:10055000F0870246002005E051F820309B17135425
:10056000431CD8B20928F7DB704700002DE9F84F8B
:100570000026002000904FF480770125002410E031
:10058000384609F0B1FE40B100BF25480068284058
:1005900018B1384609F09AFE2E436D00381D87B217
:1005A000641C082CECD34FF4BE7009F09DFE50B1D2
:1005B0004FF4BE7009F08AFE46F000466A460121FB
:1005C000002009F019FEF0B210B3012500241DE04F
:1005D00005EA0600C0B100BF124850F82400C0F37D
:1005E0000420814600BF0F4850F82400C0F30140AA
:1005F0008246204601F050F88046B8F1000F02D044
:1006000051464846C04700BF6D00641C082CDFD32C
:1006100006F0004010B168460BF0E2F9BDE8F88F33
:100620000463004010650040F0B505460C461646D0
:100630004FF6FF770EE02178284604F04BFC40B1DE
:10064000627805F5837131F81200874200DD0746B4
:1006500000BFA41C301EA6F10106ECD13846F0BD47
:1006600010B500F0C5F910BD2DE9F04707468846E2
:100670001646C24607EB47011B4800EBC109D9F8F3
:10068000140020B1012811D0022826D11EE04846CE
:1006900000F0E6F90546B54201D2002405E03446F3
:1006A00032465146484600F034FA18E0484600F019
:1006B000D7F90546B54201D2284600E03046044647
:1006C00022465146484600F024FA08E03246514698
:1006D000484600F0E5F9044601E0002400BF00BFF1
:1006E0002046BDE8F0870000EC46002010B5024926
:1006F00002480CF02DF810BD0040002000300040F2
:100700000146C82901DDC82000E00846024640F243
:10071000654050434FF47A7390FBF3F080B270471A
:1007200001480249086070470090D003BC3A00209D
:1007300010B509F0B9F828B192480088C0F3042038
:100740009149086009F00CF910B190489049486748
:1007500009F046F930B18B48E0380068C0F3423008
:100760008C49086009F06AF928B18B48006820F0CC
:1007700080708949086009F081F948B100208749F3
:1007800008604FF08041C1F810018249091F0860DC
:1007900009F0A2F918B103207E496431086009F01C
:1007A000BBF968B105207E49086001207C49783199
:1007B000086000207A49083108603F20091F08605E
:1007C00009F0CAF9002855D06E48E0300068754934
:1007D00008606C48E4300068091D08606948E8302A
:1007E0000068091D08606748EC300068091D086052
:1007F0006448F0300068091D08606248F430006801
:10080000091D08605F48F8300068664920310860BB
:100810005C48FC300068091D086063480068091DD9
:1008200008606148001D0068091D08605E480830C6
:100830000068091D08605C480C300068091D0860EC
:100840005948103000685749403108605648143004
:100850000068091D0860544818300068091D0860C8
:1008600051481C300068091D08604F48203000685E
:10087000091D086008F0EAFF30B14248CC38006832
:1008800000F04F004949086009F03CF840B1484881
:10089000006800F0010018B16FF0010044490860E1
:1008A00009F07EF828B14348006840F4806041496F
:1008B000086039487438006840F47000364974396B
:1008C000086000BF00BF00BFBFF34F8F00BF00BF75
:1008D00000BF00BF00BF00BFBFF36F8F00BF00BFEE
:1008E00000BF3548006800F0004028B93248001DBC
:1008F000006800F00040E8B301203049086000BF04
:100900002F4800680028FBD015202B49086000BF45
:100910002B4800680028FBD015212748001D0160E6
:1009200000BF274800680028FBD00020234908604A
:1009300000BF234800680028FBD000BF00BF00BFF5
:1009400000BF00BFBFF34F8F00BF00BF00BF124802
:10095000F038006800F4E0601A490843001D0E49B1
:10096000F039086000BF00BF00BFBFF34F8F00BF6A
:1009700000BF00E003E000BF00BF00BFFDE7FFF7DE
:10098000CFFE10BD24030010403501400DF0ADBA7C
:1009900000C007403C050040FCED00E00C010040B9
:1009A0001056004020C5004024040010E40E004012
:1009B000000400403C1700400012001004E5014014
:1009C00000E401400000FA0510B504220249034882
:1009D00008F0EBFB10BD0000D0400020008000407C
:1009E00010B502490868804710BD0000F0370020AC
:1009F00010B5124C02202061606111A0A061134962
:100A0000E1614FF4007121620021A1626162E16243
:100A10000BA0A0640E49E164102121650021A165AD
:100A20006165E1650BA1E01DFFF714FD0AA12046F9
:100A3000FFF710FD2020A07110BD0000D44600205B
:100A40005465726D696E616C000000004C470020B7
:100A50004C4900205254540053454747455200002A
:100A600010B501460A69CB689A4204D88C68641EA6
:100A7000E41AA01801E0D41A601E10BD10B501469A
:100A80000846002807DB00F01F0301229A40034BB1
:100A9000440943F8242000BF10BD000080E200E0BC
:100AA0002DE9F0470446894617464FF0000AE568ED
:100AB00000BFD4F81080A84503D9A8EB0500461E56
:100AC00004E0A5EB0800401CA1680E1AA068401BBA
:100AD000B04201D9304601E0A068401B0646BE4244
:100AE00001D2304600E03846064661684819324671
:100AF0004946FFF769FCB244B144BF1B3544A068C6
:100B0000A84200D10025E560002FD2D15046BDE8B3
:100B1000F0872DE9F047044689461546E668A06847
:100B2000871BAF4208D9616888192A464946FFF7F2
:100B30004BFC7019E06010E0B846616888194246C5
:100B40004946FFF741FCA5EB070809EB07014246C0
:100B50006068FFF739FCC4F80C80BDE8F0874100FD
:100B6000080218BF04200A0E18BF40F001004FF021
:100B70007F4232EA010108BF40F00200012808BFAD
:100B80000520704710EE101A08B5444A6846B2EBCB
:100B9000410F28D94FF0E640B0EB410F94BF002041
:100BA0004FF0FF3000900098002861DB60EE000AF3
:100BB00010F0010F45D010F0020FDFED391A9FED54
:100BC000391A00EEE11ADFED381A40EE811A21EEF3
:100BD000A01AF0EE400A40EE010A08BFF1EE600AEA
:100BE000B0EE600A08BD314B21F0004293423CD97F
:100BF00011F0004FDFED2E0A20EE201ADFED2D0A56
:100C000019BF31EE601A71EE200A31EE201A71EE32
:100C1000600ABDEEE01A11EE100A9FED271A00F0EF
:100C2000030000EEC10A9FED251A009000EEC10AF4
:100C30009FED231A00EEC10A9FED221A00EEC10AB1
:100C4000B1E79FED211A9FED210A10F0020F00EE8F
:100C5000810A9FED1F1A00EE801AB7EE000A00EE1F
:100C6000810A18BFB1EE400A08BD00F02BF99AE7DF
:100C700010EE100A4000B0F17F4F3CBFB7EE000A03
:100C800008BD07D14FF0010000F0D6F9BDE80840DB
:100C900000F008B9BDE8084000F001B9B61F927E27
:100CA000336D4C39DA82083CA0AA2ABE490E494667
:100CB00083F9223F0000004B0000C93F00A0FD392E
:100CC0000020A2331A61342CB93AB2BACA9F2A3D25
:100CD000DDFFFFBE00B510EE101A2DED028B81B0C6
:100CE000524A6846B2EB410F2ED94FF0E640B0EBC6
:100CF000410F94BF00204FF0FF3000900098B0EEFD
:100D0000408A00286ADB10F0010F4BD068EE080A19
:100D10009FED471A9FED470A00EE810A9FED461AA4
:100D200010F0020F00EE801AB7EE000A00EE810A02
:100D300002BF01B0BDEC028B00BD00BF01B0B1EE3F
:100D4000400ABDEC028B00BD3C4B21F000429342B7
:100D500041D911F0004FDFED3A0A20EE201ADFED05
:100D6000390A19BF31EE601A71EE200A31EE201AED
:100D700071EE600ABDEEE01A11EE100A9FED321A14
:100D800000F0030000EEC10A9FED301A009000EE63
:100D9000C10A9FED2F1A00EEC10A9FED2E1A00EE38
:100DA000C10AABE728EE080A9FED2B1ADFED2B0AEC
:100DB00010F0020F40EE410A9FED291A00EE201AB2
:100DC00061EE000AB0EE480A08EE200AB6D101B082
:100DD000BDEC028B00BD00F075F88FE718EE100A2D
:100DE0004000B0F17F4F0DD218EE100AFFF7B7FEAA
:100DF000042808BF00F05EF8B0EE480A01B0BDEC70
:100E0000028B00BD09D1012000F016F901B0BDEC44
:100E1000028B5DF804EB00F045B801B0B0EE480A73
:100E2000BDEC028B5DF804EB00F039B8B61F927E82
:100E3000B93AB2BACA9F2A3DDDFFFFBE490E494604
:100E400083F9223F0000004B0000C93F00A0FD399C
:100E50000020A2331A61342C336D4C39DA82083CFD
:100E6000A0AA2ABE10B52DED028BB1EEC08A18EEF5
:100E7000100A20F00040C0F1FF40C00F0AD010EE71
:100E8000100A20F00040C0F1FF40C00F04BF012055
:100E900000F0D2F8B0EE480ABDEC028B10BD30EE87
:100EA000000A7047DFED020A80EEA00A70470000DA
:100EB000000000009FED020A20EE000A70470000CB
:100EC000000000102DE9F0014FF07F42B2EB410F1E
:100ED0009FBF4FF0FF310160BDE8F00170474FF058
:100EE000004242EA0123C1F3C752783A551112F089
:100EF0001F0C434CCCF120067C44C1F3C752A2F135
:100F000078024FEA621204EB820254F8254008BFCF
:100F1000D2E9015612D0556804FA0CF425FA06F706
:100F20003C43976805FA0CF527FA06F8D26807FAE9
:100F30000CFCF24045EA08054CEA0206A4FB034C0F
:100F4000A5FB0352A6FB03631D449D4234BF01264B
:100F500000261319334416B1934202D903E0934299
:100F600001D2012200E00022624402F1200C92062C
:100F7000DC0C42EA443200EE102A5B03DFED210A6A
:100F8000F8EEC01A00EE103A4FEA9C1C11F0004F28
:100F9000B8EE400AC0F800C020EE201A00EE105A49
:100FA000DFED190AB8EE400A20EE200A71EE810A40
:100FB00070EE800A10EE902A02F500626FF30B02C9
:100FC00000EE902A70EEE11A31EEC11ADFED101A30
:100FD00030EE411A9FED0D0A20EE800A01EE210A43
:100FE0009FED0C1A00EE810A04BFBDE8F0017047C6
:100FF000CCF180510160BDE8F001B1EE400A7047CC
:1010000094C80000000000360000802C22AAFD29B0
:10101000DB0FC92F0000C92F02E008C8121F08C14A
:10102000002AFAD170477047002001E001C1121F69
:10103000002AFBD17047000001490860704700009A
:10104000C83A0020012180F8B91070470146881D78
:101050000D2820D2DFE800F01D1B191715131F07FC
:10106000090B0D0F11000DA0704711A0FCE714A093
:10107000FAE717A0F8E71BA0F6E71DA0F4E71FA00A
:10108000F2E722A0F0E724A0EEE726A0ECE729A0F3
:10109000EAE72BA0E8E72DA0E6E700004245474934
:1010A0004E20494E5F56454849434C4500000000DC
:1010B000424547494E2057414C4B494E470000009E
:1010C000424547494E2052554E4E494E470000007A
:1010D000424547494E204F4E5F42494359434C4594
:1010E00000000000424547494E2054494C5400003E
:1010F000424547494E205354494C4C00454E4420EC
:10110000494E5F56454849434C450000454E4420F2
:1011100057414C4B494E4700454E442052554E4E88
:10112000494E4700454E44204F4E5F424943594384
:101130004C450000454E442054494C5400000000EA
:10114000454E44205354494C4C000000756E6B6E64
:101150006F776E206163746976697479210000008D
:1011600072B600BF09F08EFC00BF00BF09F0F6F9AF
:101170000028FBD100BF00BF1D491E4A891AC908BB
:10118000012242EA01401CA109F072FB00BF1D4888
:10119000006800F0010000B100BE00BF1449154A0C
:1011A000891AC908022242EA014017A109F060FB2E
:1011B00000BF00BF00BF00BF00BFBFF34F8F00BF25
:1011C00000BF00BF0F48E438006800F4E060124937
:1011D0000843001D0B49E439086000BF00BF00BF91
:1011E000BFF34F8F00BF00BF00BF00BF00BFFDE7D0
:1011F000D4E30000A4E30000466174616C206572D2
:10120000726F7200F0ED00E053797374656D2072B7
:1012100065736574000000000000FA053EB50446E1
:10122000002000900190029002946A46002144F24E
:101230000100FFF795FF3EBD00B5024600F006F83D
:1012400000BD00B5024600F00BF800BD72B60348C1
:101250000068401C0149086070470000F837002012
:1012600004480068401E034908600846006800B949
:1012700062B67047F837002070B505460C46206806
:10128000401C28B1206809F004F8206808F083FFAA
:101290006068401C18B10021606808F062FF28688F
:1012A000A169C0F8241500BF617D227D286841EA4C
:1012B0000203C0F86C3500BFD4E90012286809F0B9
:1012C00084FD207D012814D1A068401C18B10021A4
:1012D000A06808F046FFE068401C28B1E06808F00C
:1012E000D8FFE06808F057FFD4E90221286809F028
:1012F00055FD70BD70B505460C462068401C28B1F0
:10130000206808F0D1FF206808F051FF6068401C99
:1013100018B10021606808F031FF2868A169C0F8A1
:10132000241500BF617D227D286841EA0203C0F8D0
:101330006C3500BFD4E90012286809F07EFD207DDD
:10134000012814D1A068401C18B10021A06808F041
:1013500015FFE068401C28B1E06808F0A5FFE068D0
:1013600008F025FFD4E90221286809F047FD70BD87
:10137000002114E00C48D0F81024012308E000BF3D
:10138000D0680079884201D1002303E0D068026868
:10139000002AF4D100BF0BB108467047491C0A2946
:1013A000E8DB4FF0FF30F8E7B44200202DE9F84FBA
:1013B00004460D461646A71C4FF001080020FFF713
:1013C0003BFF3048406828602E4840682D498968B6
:1013D000411A2D480068401CA0EB010915E00121CD
:1013E0002A4808F0F5FB07F021FF824651462748BE
:1013F00008F0EEFB2348406822498968411A2248D8
:101400000068401CA0EB010900BF4F45E7D8B8F1C8
:10141000000F30D00021009176B1009921F0030136
:10142000491C0091009921F00401091D00910099C7
:1014300064F3891100910DE0009921F00301891CEA
:101440000091009921F00401091D0091009964F3B5
:101450009F5100910B4949680B4A12681140094A93
:101460000C3202EB81000099016006494968394459
:101470000C3A516000BF0020FFF7E3FE4046BDE894
:10148000F88F0000B442002038380020D0460020F9
:1014900070B504460D460A2D03D10D212046FFF7F5
:1014A000F7FFA168481CA06020684554D4E90110EA
:1014B000884202D3204608F0E6FC70BD04488068EC
:1014C00003494968884201D1012070470020FCE7A8
:1014D000B44200202DE9F84F80460D4616461F46BF
:1014E000DDE90A9A0C9C50212046FEF794FFE9B2F0
:1014F00053464A464046009400F024F838B92A463C
:1015000006A1022007F0A0F80020BDE8F88F2560B2
:10151000C4E90267002060600120F6E7556E657837
:101520007065637465642073656E736F722069649F
:101530002025642E20446174612049676E6F7265B6
:10154000642E00002DE9F04186B080460F46154616
:101550001E460C9C222F73D2DFE807F087434D789C
:10156000378787878741425887872461116E6D735B
:1015700057876C87876B68876F8787877F8018227C
:1015800029466846FEF720FF9DE80700C4E90512DA
:10159000206103A90EC9C4E90823E161282031783C
:1015A000015566E0182229466846FEF70DFF9DE8C2
:1015B0000700C4E90512206103A90EC9C4E9082384
:1015C000E16128203178015553E02868206168687E
:1015D0006061A868A06128203178015549E000BF0A
:1015E00000BF2868206168686061A868A061282041
:1015F000317801553DE02868206168686061A8681D
:10160000A06128203178015533E000BF31682162A4
:101610001022294604F11000FEF7D6FE29E0102220
:10162000294604F11000FEF7CFFE22E02868206171
:101630001FE000BF00BF00BF00BF0120206118E015
:1016400013E0286820616868606112E02868206102
:1016500068686061A868A0610BE000BF286820612D
:1016600068686061A868A06103E0002006B0BDE87A
:10167000F08100BF0120F9E74FF0FF31054A42F841
:101680002010082804DBFF23A0F108014432535442
:1016900070470000844000200146024850F82100B5
:1016A00070470000844000202DE9F04F03460C46AF
:1016B0004FF0FF390AB1002000E0082084460AB14B
:1016C000082000E009208046614624E0154850F8D3
:1016D0002100401CF0B91D460846274616464FFA21
:1016E00080FBDFF840A00AF1240A0AF805B0DFF811
:1016F00034A04AF820704EB94FFA85FBA0F1080AD1
:10170000DFF820E00EF1440E0EF80AB000BF4FFAE9
:1017100081F902E0491C4145D8D300BF4846BDE8E5
:10172000F08F000084400020014601484056704779
:10173000A840002010B503460C46002100220BB93A
:10174000481E10BD41F4004141F4804141F4005174
:1017500041F4805141F4006141F4806141F4007131
:1017600041F4807141F0400141F0200141F010014D
:1017700041F0080123EA010010B14FF0FF30E0E72B
:1017800003F0080098B142F4804242F4005242F45F
:10179000805242F4806242F0800214B94FF0FF3070
:1017A000CFE724EA020010B14FF0FF30C9E7002074
:1017B000C7E7000010B50446601C98B90A490B4AF7
:1017C000891AC908032242EA0140224608A109F009
:1017D00059F800BF00BF08F0C1FE0028FBD100BFD0
:1017E00000BFFEE710BD0000D4E30000A4E300004A
:1017F0004241442052433D256400000070B5054637
:101800000C46192C2CD00EDC0F2C1ED006DC052C1F
:1018100018D0062C17D0072C25D115E0102C15D088
:10182000182C20D11DE0762C17D006DC702C0ED0A1
:10183000712C0DD0722C16D10BE07E2C0ED07F2C8B
:1018400011D10CE000BF00BF00BF00BF00BF00BF50
:1018500000BF284603F0EBFB70BD00BF00BF00BF18
:1018600000BF0020F8E700BF00BF0120F4E72DE92A
:10187000F04F99B005460E4617469846DDF888B0F9
:10188000A946304601F096F8039004A923983A46F9
:101890004346CDE900B0029148460399FFF71AFE8E
:1018A00050B10DF1100AD9F808401CB15046D4E9E6
:1018B0000021904700BF00BF19B0BDE8F08F0021A4
:1018C00080F8B91070472DE9F84306460F46904658
:1018D0001D460DB1002028606946304600F027F80B
:1018E000044624B1C6F898400020BDE8F88300986B
:1018F00008B90020F9E70098B8420BD9304600F04B
:1019000003FD4FF0FF30C6F898000DB101202860AC
:101910000020EAE741463046009A00F0CEFC04463B
:101920001CB1C6F898400020DFE70098DDE7F8B565
:1019300005460C4600260CB9701EF8BD6B46022207
:101940007021284605F058FB06463EB14FF0FF30A7
:10195000C5F89800002020603046EEE79DF80000B2
:10196000000220609DF80110206808442060304685
:10197000E3E7F8B506460C46002000906B460422CB
:1019800040F2E461304605F098FA0546684602F0F8
:1019900070FE20606B4604224FF4DD61304605F096
:1019A0008CFA0544684602F064FE60606B460422CF
:1019B00040F2EC61304605F080FA0544684602F0DA
:1019C00058FEA0600DB12846F8BD0020FCE7F8B530
:1019D00006460C46002000906B46042240F2E4715B
:1019E000304605F06AFA0546684602F042FE20607D
:1019F0006B4604224FF4FD61304605F05EFA054463
:101A0000684602F036FE60606B46042240F2EC71DC
:101A1000304605F052FA0544684602F02AFEA060FE
:101A20000DB12846F8BD0020FCE7F8B506460C4687
:101A3000002000906B46042240F6B401304605F0C9
:101A40003CFA0546684602F014FE20606B4604220C
:101A500040F6B801304605F030FA0544684602F019
:101A600008FE60606B46042240F6BC01304605F07B
:101A700024FA0544684602F0FCFDA0600DB128463A
:101A8000F8BD0020FCE7F8B506460C4600200090A3
:101A90006B4604224FF45871304605F00EFA0546A5
:101AA0000DB12846F8BD9DF8000001069DF8010023
:101AB00001EB00419DF8020001EB00209DF80310AE
:101AC000084420600020EDE738B50546002000906E
:101AD0006B4602224021284606F054FC04466B4621
:101AE00002224221284606F04DFC04446B460222A5
:101AF0004C21284606F046FC04446B4602224E2147
:101B0000284606F03FFC04446B4602228A21284600
:101B100006F038FC04440CB1204638BD0020FCE738
:101B2000F8B506460C46002000906946206802F091
:101B3000A8FE07463B4604224FF45061304606F0AB
:101B400021FC05466946606802F09BFE07463B465D
:101B5000042240F60451304606F014FC0544694660
:101B6000A06802F08EFE07463B46042240F608516C
:101B7000304606F007FC05446946E06802F081FE45
:101B800007463B46042240F60C51304606F0FAFB6D
:101B900005446946206902F074FE07463B4604226C
:101BA0004FF45161304606F0EDFB0544694660692B
:101BB00002F067FE07463B46042240F614513046C9
:101BC00006F0E0FB05446946A06902F05AFE0746AC
:101BD0003B46042240F61851304606F0D3FB05443C
:101BE0006946E06902F04DFE07463B46042240F696
:101BF0001C51304606F0C6FB05446946206A02F0D7
:101C000040FE07463B4604224FF45261304606F040
:101C1000B9FB05440DB12846F8BD0020FCE7F8B536
:101C200006460C4600200090694620B202F023FED2
:101C300007463B4602224FF4FF71304606F0A2FBF6
:101C400005460DB12846F8BD0020FCE7F8B506466C
:101C50000C46002000906946206802F012FE0746FC
:101C60003B4604224FF4B661304606F08BFB054636
:101C70006946606802F005FE07463B4604224FF4C1
:101C8000B861304606F07EFB0543218908B26946FB
:101C900002F0F1FD07463B46022240F2E451304695
:101CA00006F070FB05430DB12846F8BD0020FCE7A7
:101CB000F8B506460C46002000906946204602F022
:101CC000E0FD07463B4604224FF48671304606F09D
:101CD00059FB05460DB12846F8BD0020FCE72DE96B
:101CE000F84307460E46082E10D004DC022E07D01B
:101CF000042E14D107E0102E0BD0202E0FD10BE0B4
:101D00004FF000740FE04FF080640CE04FF000647F
:101D100009E04FF0805406E04FF0005403E04FF02C
:101D2000FF30BDE8F88300BF6946204602F0A9FDF8
:101D30008046434604224FF4F071384606F022FBF9
:101D400005460DB12846ECE70020EAE72DE9F84307
:101D500007460E46082E10D004DC022E07D0042EB3
:101D600014D107E0102E0BD0202E0FD10BE04FF432
:101D700000240FE04FF480240CE04FF4003409E01D
:101D80004FF4803406E04FF4004403E04FF0FF309E
:101D9000BDE8F88300BF6946204602F072FD804628
:101DA0004346042240F2F441384606F0EBFA054679
:101DB0000DB12846ECE70020EAE72DE9F843074695
:101DC0000E4600200090E12E10D004DC382E09D001
:101DD000702E11D108E0B6F5E17F09D0B6F5617F2C
:101DE0000AD107E000240BE0012409E0032407E006
:101DF000072405E00F2403E04FF0FF30BDE8F8832F
:101E000000BF6946204602F036FD80464346022266
:101E10004FF44271384606F0B5FA05460DB1284632
:101E2000ECE70020EAE72DE9F84307460E460020DC
:101E30000090E12E10D004DC382E09D0702E11D184
:101E400008E0B6F5E17F09D0B6F5617F0AD107E079
:101E500000240BE0012409E0032407E0072405E047
:101E60000F2403E04FF0FF30BDE8F88300BF694660
:101E7000204602F000FD80464346022240F20A312D
:101E8000384606F07FFA05460DB12846ECE70020FB
:101E9000EAE72DE9FC4107460D4616460020019071
:101EA000009001AB04224FF4D871384606F06AFA6C
:101EB000044601A9284602F0E4FC80464346042279
:101EC0004FF49E71384606F05DFA04446946304688
:101ED00002F0D1FC8046434602224FF4AF713846EF
:101EE00006F050FA044414B12046BDE8FC810020FD
:101EF000FBE7F8B506460C460020009069462068CE
:101F000002F0BFFC07463B46042240F2E461304643
:101F100006F038FA05466946606802F0B2FC0746EA
:101F20003B4604224FF4DD61304606F02BFA0544AF
:101F30006946A06802F0A5FC07463B46042240F231
:101F4000EC61304606F01EFA05440DB12846F8BD96
:101F50000020FCE7F8B506460C46002000906946D4
:101F6000206802F08EFC07463B46042240F2E471F2
:101F7000304606F007FA05466946606802F081FCC3
:101F800007463B4604224FF4FD61304606F0FAF95D
:101F900005446946A06802F074FC07463B460422EB
:101FA00040F2EC71304606F0EDF905440DB12846DB
:101FB000F8BD0020FCE7F8B506460C46002000906E
:101FC0006946206802F05DFC07463B46042240F665
:101FD000B401304606F0D6F905466946606802F05D
:101FE00050FC07463B46042240F6B801304606F056
:101FF000C9F905446946A06802F043FC07463B4620
:10200000042240F6BC01304606F0BCF905440DB18F
:102010002846F8BD0020FCE7F8B506460C4600202F
:1020200000906946206802F02CFC07463B460422DB
:102030004FF4B871304606F0A5F905466946606868
:1020400002F01FFC07463B4604224FF4BA713046AB
:1020500006F098F905446946A06802F012FC0746AC
:102060003B4604224FF4BC71304606F08BF9054420
:102070006946E06802F005FC07463B4604224FF43F
:10208000BE71304606F07EF905446946206902F0CB
:10209000F8FB07463B4604224FF4C071304606F079
:1020A00071F905446946606902F0EBFB07463B465F
:1020B00004224FF4C271304606F064F905446946C3
:1020C000A06902F0DEFB07463B4604224FF4C471D0
:1020D000304606F057F905446946E06902F0D1FB45
:1020E00007463B4604224FF4C671304606F04AF9D3
:1020F00005446946206A02F0C4FB07463B460422B9
:102100004FF4C871304606F03DF905440DB128463C
:10211000F8BD0020FCE7F8B506460C46002000900C
:10212000694620B202F0A7FB07463B4602224C213B
:10213000304606F027F905460DB12846F8BD0020C7
:10214000FCE7F8B505460C46200A8DF80000E0B221
:102150008DF801006B4602224021284606F012F954
:1021600006463046F8BD000070B505460C46200A0C
:10217000054908704C700B4602224221284606F0A1
:1021800001F90646304670BDB03A0020F8B5064663
:102190000C4600200090694620B202F06CFB074616
:1021A0003B4602228A21304606F0ECF805460DB186
:1021B0002846F8BD0020FCE7F8B505460C46694600
:1021C000204602F05EFB07463B4604224FF498711E
:1021D000284606F0D7F806463046F8BDF8B505465D
:1021E0000C4620128DF80000E0B28DF801006B461D
:1021F00002224E21284606F0C5F806463046F8BDB4
:10220000F8B505460C46002000906946204602F0CD
:1022100038FB07463B4604224FF48871284606F0F7
:10222000B1F806463046F8BD2DE9F84307460C469E
:1022300016460020009080460D2C2AD2DFE804F0DC
:10224000070A290D101316191C1F222528004FF00C
:10225000BE081EE04FF0BA081BE04FF0B60818E0C9
:102260004FF0B20815E04FF0AC0812E04FF0A808AC
:102270000FE04FF0A0080CE04FF0A40809E04FF089
:10228000BC0806E04FF0B80803E04FF0B40800E0E7
:1022900000BF00BF6946304602F0EDFA81461FFAE2
:1022A00088F14B460222384606F06CF8054615B117
:1022B0002846BDE8F8830020FBE72DE9F04780467B
:1022C0008946154600241BE0281B102801D9102040
:1022D00000E0281B87B209EB04033A46722140460E
:1022E00004F08AFE06464EB1404600F00DF84FF06D
:1022F000FF30C8F898003046BDE8F0873C4400BF86
:10230000AC42E1D33046F7E7F8B504464FF48060BD
:1023100000900026002524E0207F20F04001217756
:10232000207F20F080012177227F0321204606F0C4
:102330003CF905431F21204603F0C4FE05431E213E
:10234000204603F0BFFE054300219C20015569464D
:102350002046FFF7ECFA05430DB12846F8BD701C86
:10236000C6B2009808B1062ED6DB207F40F04001AF
:102370002177207F40F080012177227F03212046B2
:1023800006F013F905432846E8E7000010B50021E0
:10239000034807F033FC044684F3100010BD00002E
:1023A000D04600202DE9FC4781460E4617461C46C4
:1023B00000251EE01849481923466A4601A900F085
:1023C00077F98046701B404500DA15E0BDF8001033
:1023D000BDF80400FFF7AEF930B14846FFF794FFAF
:1023E0004FF0FF30BDE8FC8745443888401C3880FA
:1023F00000BFB542DEDB00BF5CB1608AE18B084400
:102400006082A08AE18B0844A082E088E18A0844C7
:10241000E0800020E6E70000004A002010B5002818
:1024200021D0114B0022001F196803E0814203D81C
:102430000A4649680029F9D152B11368841A9C42AE
:1024400004D1006818441060104602E0506000E0BB
:10245000186039B102680B1A934203D10B681A4411
:1024600002604968416010BDC03A002030B58BB0B1
:1024700004462C223E496846FDF7A6FF1522694610
:102480002046FEF7D1F805460121204602F022FD44
:10249000B8B12A21204602F01DFD68B1B4F8460209
:1024A000B4F84812884202DAB4F8460201E0B4F8FF
:1024B0004802A4F806010DE0B4F84602A4F80601AB
:1024C00008E02A21204602F005FD18B1B4F84802C0
:1024D000A4F80601B4F8540150B14FF49070005BB9
:1024E000A84201DD284602E04FF49070005B0546EB
:1024F000B4F8580150B14FF49170005BA84201DD6F
:10250000284602E04FF49170005B0546B4F856018E
:1025100050B14FF49270005BA84201DD284602E002
:102520004FF49270005B05462721204602F0D2FC52
:1025300020B91421204602F0CDFC28B1052D01DA86
:10254000284600E0052005461F21204602F0C2FC77
:1025500020B90B21204602F0BDFC28B1052D01DA7F
:10256000284600E00520054628460BB030BD000097
:10257000C4D3000030B585B005461422164968461C
:10258000FDF722FF0A2269462846FEF74DF8044669
:102590002721284602F09EFC20B91421284602F08B
:1025A00099FC28B10F2C01DA204600E00F200446E8
:1025B0001F21284602F08EFC20B90B21284602F08C
:1025C00089FC28B11C2C01DA204600E01C200446BE
:1025D000204605B030BD000010D4000030B589B0F1
:1025E00004462022224901A8FDF7EEFE0F2201A990
:1025F0002046FEF719F805461021204602F06AFC35
:10260000C8B12B21204602F065FC70B1B4F84A0233
:10261000B4F84C12884202DAB4F84A0201E0B4F885
:102620004C024FF4847108530FE0B4F84A124FF48F
:102630008470015309E02B21204602F04BFC20B1AD
:10264000B4F84C124FF4847001531F21204602F05D
:1026500041FC20B90B21204602F03CFC28B1052D9D
:1026600001DA284600E005200546284609B030BDBD
:10267000F0D3000001460020022902DA4FF4617015
:1026800015E0022904DB042902DA4FF4E1700EE0C0
:10269000042903DB082901DAE12008E0082903DB2B
:1026A000112901DA702002E0112900DB382070477F
:1026B00070B5044602206578267845EA06250D8027
:1026C0000D8805F4004555B1801D13B15D886D1C62
:1026D0005D8023B1B3F854506D1CA3F854500D889D
:1026E00005F480457DB1801D13B11D8C6D1C1D84CA
:1026F000801D13B11D896D1C1D8123B1B3F8565087
:102700006D1CA3F856500D8805F4005525B1801DA9
:1027100013B19D8B6D1C9D830D8805F4805525B1EB
:10272000083013B15D896D1C5D810D8805F400656D
:1027300025B10C3013B1DD8B6D1CDD830D8805F4E4
:10274000806525B10E3013B1DD8A6D1CDD820D88E8
:1027500005F4007505B1801D0D8805F4807525B15F
:102760000E3013B11D8D6D1C1D850D7805F02005F3
:1027700025B10C3013B19D886D1C9D800D7805F03E
:10278000100525B1001D13B19D8C6D1C9D840D7825
:1027900005F0080535B1E578A67845EA06251580E7
:1027A000801C01E000251580158805F4804505B1E1
:1027B000801C158805F4005505B1801C158805F4AA
:1027C000805505B1801C158805F4806535B1801CE5
:1027D00023B1B3F85C506D1CA3F85C50157805F07C
:1027E000800535B1801D23B1B3F85E506D1CA3F890
:1027F0005E50801C70BD000038B508F015FC044622
:1028000000BF254625B100BF2846FEF707FD00BFE3
:1028100000BF0D480068009003208DF801000B4AAE
:102820006946022008F086FB044600BF254625B114
:1028300000BF2846FEF7F2FC00BF00BF01210220C6
:1028400008F022FB38BD000008D70000A92A0000CC
:102850002DE9F04104460D4616461F46A0463A466D
:1028600031462846D8F808309847BDE8F0812DE970
:10287000F04104460D4616461F46A0463A463146EC
:102880002846D8F80C309847BDE8F0812DE9F0478C
:1028900004460E4692461F46DDF8208052463146D9
:1028A000204600F063F80546EDB900200F49087096
:1028B00000BF814643463A463146201D08F0B6FD2A
:1028C000814600BF4D4600BFA946B9F1000F04D0B4
:1028D00000BF4846FEF7A2FC00BF00BF00BF034890
:1028E00000780028FBD02846BDE8F087B83A0020E1
:1028F0002DE9FF4F83B016461F46DDF8408008F1F2
:10290000010000F0FF0ACDF808A0029806F0A2FE30
:102910000446267042463946601CFDF755FD0020EE
:10292000114908701198534622460090DDE90301D1
:1029300007F038FA054600BFAB46BBF1000F04D0E4
:1029400000BF5846FEF76AFC00BF00BF00BF064844
:1029500000780028FBD0A9462046FFF75FFD4846D7
:1029600007B0BDE8F08F0000B83A0020F7B582B09C
:1029700006460F4600200E4908700120034604AAAF
:1029800039460090304607F00DFA044600BF254650
:1029900025B100BF2846FEF741FC00BF00BF00BFC5
:1029A000034800780028FBD0204605B0F0BD0000A9
:1029B000B83A00200146142933D2DFE801F00A0CAE
:1029C0000E10121416181A1C1E20222426282A2C37
:1029D0002E30012070470420FCE72020FAE7212058
:1029E000F8E70E20F6E71020F4E71A20F2E71220AD
:1029F000F0E71320EEE70F20ECE70B20EAE71420C6
:102A0000E8E70220E6E71120E4E71920E2E71620D4
:102A1000E0E70920DEE70A20DCE70320DAE71C20F4
:102A2000D8E74120D6E7014622293AD2DFE801F073
:102A300039152935173939393931332539391923B8
:102A40001B2B1F2127392F39392D1D39373939399A
:102A50001113022070470320FCE70020FAE7012051
:102A6000F8E70420F6E70520F4E70620F2E7072060
:102A7000F0E70820EEE70920ECE70A20EAE70B2060
:102A8000E8E70C20E6E70D20E4E70E20E2E70F2060
:102A9000E0E71020DEE71120DCE71220DAE7132060
:102AA000D8E71420D6E700000122014B1A707047C6
:102AB000000000202DE9FC5F83460E4691461F462C
:102AC000DDE90C45002E01DA704200E03046824616
:102AD0004FF0010803E09AFBF9FA08F10108CA4532
:102AE000F9DA474500D9B84634B1002E03DB05F0CA
:102AF0000400042800D1641E05F0020000B167B193
:102B000005F0010048B944B104E0641E2021584694
:102B1000FEF7BEFC0CB1A045F7D3002E05DA7642D5
:102B20002D215846FEF7B4FC07E005F00400042808
:102B300003D12B215846FEF7ABFC05F0020002281A
:102B40000DD105F0010050B94FB944B104E0641E45
:102B500030215846FEF79CFC0CB1A045F7D33B460C
:102B60004A4631465846CDE900450AF07BFABDE8B1
:102B7000FC9F000070B505461249286808F013F95B
:102B8000286808F071F904462046002817DB00F099
:102B90001F02012191400C4A430942F8231000BF53
:102BA00000BF00BFBFF34F8F00BF00BF00BF00BF1B
:102BB00000BF00BFBFF36F8F00BF00BF00BF00BFEB
:102BC00000BF70BD8402020080E100E070B50546E0
:102BD0001249286808F018F9286808F049F90446ED
:102BE0002046002817DB00F01F02012191400C4A0B
:102BF000430942F8231000BF00BF00BFBFF34F8F4F
:102C000000BF00BF00BF00BF00BF00BFBFF36F8F9A
:102C100000BF00BF00BF00BF00BF70BD1003420077
:102C200080E100E02DE9F04104460E464FF48E713C
:102C3000206808F0ACF84FF4A271206808F0A7F8FB
:102C40001A49206808F0B2F8206808F00DF9054626
:102C5000374628463946002804DB4A07130E144A33
:102C6000135408E04A074FEA126C124A00F00F03AF
:102C70001B1F02F803C000BF00BF206808F0F4F873
:102C80000546284600280DDB00BF00BF00F01F02EC
:102C9000012191404209920002F1E022C2F80011A4
:102CA00000BF00BF00BF00BFBDE8F0818000020090
:102CB00000E400E018ED00E02DE9F04104460E4686
:102CC0004FF48871206808F092F84FF490712068F2
:102CD00008F08DF84FF49271206808F088F84FF4EE
:102CE000A271206808F083F84FF4AC71206808F0F6
:102CF0007EF81B49206808F08AF8206808F0B8F8C8
:102D00000546374628463946002804DB4A07130E95
:102D1000144A135408E04A074FEA126C124A00F0B2
:102D20000F031B1F02F803C000BF00BF206808F09C
:102D30009FF80546284600280DDB00BF00BF00F0C5
:102D40001F02012191404209920002F1E022C2F8E3
:102D5000001100BF00BF00BF00BFBDE8F081000050
:102D60001003420000E400E018ED00E0F0B586B08A
:102D700005460C4600260020002113E0675C57B191
:102D8000675C7F1EDFF870C03CF817700DF10C0C0B
:102D90004CF8217005E000270DF10C0C4CF8217067
:102DA0000126491C0329E9DB002121E053F82170A9
:102DB00052F821C0A7EB0C074DF82170B6B95DF8A9
:102DC00021700DF10C0C5CF821C0B7EB6C0F00DA30
:102DD0000120012D0BD003AF57F8217007EB6707D7
:102DE0005DF821C0674502DA012000E00120491C9E
:102DF0000329DBDB06B0F0BDCCD400002DE9F047A1
:102E000005460C4617469846089E4FF000092F2CA1
:102E100005D02E2C03D0292C01D02D2C16D14FB14A
:102E2000308840F00800308095F83B02401C85F85F
:102E30003B020BE095F83B02401E85F83B0295F8FB
:102E40003B3232464146284605F030FC2C2C01DB53
:102E5000BDE8F08738F9149009F1010000B9F7E7EF
:102E60009FB1611105F5B07050F8210004F01F0208
:102E7000012191400843621105F5B07141F822002B
:102E8000308840EA0900308015E0611105F5B07026
:102E900050F8210004F01F02012191408843621183
:102EA00005F5B07141F8220095F83B3232464146B3
:102EB000284605F0FBFB00BFCAE74A780B7842EAD8
:102EC000032212B20280CA788B7842EA032212B23D
:102ED00042804A790B7942EA032212B2828070471B
:102EE0000A7813064A7843EA02438A7843EA0222C0
:102EF000CB781A4302600A7913064A7943EA0243FF
:102F00008A7943EA0222CB791A4342600A7A13068D
:102F10004A7A43EA02438A7A43EA0222CB7A1A4384
:102F20008260704770B5054600242E4600BF0AE057
:102F30002146284600F0BEF820B900222146284646
:102F400000F008F8641C412CF2DB06F1300005F0BB
:102F5000B9F870BD2DE9F04104460D4616462746E6
:102F60002846FFF760FD80463246414607F13000B3
:102F700002F0C7FABDE8F0812DE9F04706460F469A
:102F800090461C46DDF820903546B8F1030F18D066
:102F9000B8F1050F03D0B8F1070F1DD10BE038468B
:102FA000FFF741FD82462246514605F1300002F00E
:102FB00083FCBDE8F087214605F1300002F0DFFC1C
:102FC000F7E73846FFF72FFD82462246514605F1C6
:102FD000300002F00BFCECE74FF0FF30E9E70000B7
:102FE0002DE9F04786B004460D4617469846DDF8B1
:102FF00038A04FF4A6612046FDF70DFA68690090ED
:103000002868019068680290A8680390E8680490B6
:103010002869022801D1012000E0002005902460E9
:1030200014486060A760C4F82885C4F82CA504F192
:103030003006E9464FF49F613046FDF7ECF918225F
:1030400049463046FDF7C0F90B48066000BF012134
:1030500084F8A41284F8A81284F8AC12304602F066
:1030600057FD0C220321204600F008F806B0BDE809
:10307000F087000048D30000B43A002070B5044641
:103080000D461646E9B2324604F1300004F079F8F4
:1030900070BD2DE9F04704468A4615461E46DDE917
:1030A00008892746B2B2294607F1300002F072FFC4
:1030B000BDE8F08770B505460C462E46202C1BD087
:1030C000212C19D00F2C17D0012C15D0042C13D083
:1030D000102C11D0112C0FD0122C0DD0132C0BD082
:1030E0001C2C09D0192C07D01A2C05D0092C03D080
:1030F0000A2C01D0162C01D1002070BD022C07D063
:103100000E2C05D0142C03D0032C01D00B2C06D18F
:1031100006F1300001F0A4FA08B10020EDE76FF0ED
:103120000A00EAE770B504462546034A294605F138
:10313000300002F0E5FF70BD6F1800002DE9F04788
:103140000446894615461E46089FA046E9B23B46FE
:10315000324608F1300003F0C4FFBDE8F0870000FC
:1031600070B5054600240BA1042005F06DFA284631
:10317000FFF7D8FE0443284600F0F0F8044334B1CA
:10318000224609A1012005F05FFA204670BD00200B
:10319000FCE700005265736574696E6720646576AC
:1031A0006963652E2E2E000049636D323036343847
:1031B0002072657365742072657475726E65642023
:1031C000256400002DE9F04107460C463D462146A6
:1031D0003846FFF76FFF18B16FF00A00BDE8F081C5
:1031E000202C0AD0012C08D0212C06D0042C04D08D
:1031F000022C02D06FF00A00F0E795F8C00028B169
:103200000EA1022005F020FA0020E7E73846FFF77C
:1032100089FE05F1300004F00BF800F007000728E4
:1032200004D1012185F8C010002601E04FF0FF36DF
:103230003846FFF795FF3046D0E7000053656C66CF
:103240002D7465737420616C72656164792072619C
:103250006E206F6E636521002DE9FE4F06460F4616
:1032600090461D46DDF830A034464FF00009B8F115
:10327000030F2DD0B8F1050F03D0B8F1070F32D1ED
:103280001FE03846FFF7CFFB83466A46594604F1F4
:10329000300002F0ABFA3846FFF7C5FB83462A46FA
:1032A000594604F1300004F041FA81463846FFF7F0
:1032B000BAFB83466A46594604F1300004F0D3F85D
:1032C00014E0297804F1300004F01EFCBDE8FE8F04
:1032D0003846FFF7A8FB83462A46594604F13000DA
:1032E00004F0C1F8F2E74FF0FF30EFE700BF4846C7
:1032F000ECE72DE9F04104460D46164627462846E0
:10330000FFF791FB80464246314607F1300004F05A
:103310000BFCBDE8F0812DE9F04104460D46164650
:1033200027464FF47A70B6FBF0F62846FFF77BFB92
:1033300080463246414607F1300004F0F6FDBDE814
:10334000F0812DE9F04104460F4615462646A9B204
:1033500006F1300002F082F8BDE8F081F8B50546CC
:103360002C462BA1032005F06FF92FA1042005F0B6
:103370006BF96946204600F0C3F8061E06D03246B7
:103380002EA1012005F060F93046F8BD9DF800003F
:1033900018B19DF80000FF2808D19DF8002030A149
:1033A000012005F051F94FF0FF30EEE79DF80020C5
:1033B00037A1032005F048F904F1300002F032FB98
:1033C00038A1042005F040F904F1300004F5A561AE
:1033D00006C902F0BEFB061E00D011E004F1300069
:1033E00002F0D3FB04F1300002F04CFB04F130009A
:1033F00002F08EFB34A1042005F026F90020C4E77A
:10340000324636A1012005F01FF93046BDE7000025
:10341000426F6F74696E672075702049636D32303A
:103420003934382E2E2E000052656164696E672093
:1034300057484F414D492E2E2E0000004572726FA5
:1034400072202564207768656E2072656164696EFC
:10345000672057484F414D492076616C75650000E3
:10346000556E65787065637465642057484F414DAB
:10347000492076616C756520307825782E20416270
:103480006F7274696E672073657475702E0000002A
:1034900057484F414D492076616C75653A20307828
:1034A0002578000050757474696E672049636D3229
:1034B0003039343820696E20736C656570206D6F0B
:1034C00064652E2E2E000000576527726520676FF9
:1034D0006F6420746F20676F202100004572726F47
:1034E00072202564207768696C652073657474693F
:1034F0006E672D7570206465766963652E00000027
:1035000070B504460D462646294606F1300002F005
:103510005BFA70BD2DE9F0470446894615461E4604
:10352000089FA046E9B23B46324608F1300004F05D
:10353000E1FFBDE8F0872DE9F84F8246894617463E
:103540001D4600200090804606E0002047F8280035
:1035500045F8280008F10108B8F1030FF5DB6B46C8
:103560003A464946504605F015FA064616B1304629
:10357000BDE8F88F002407E057F82400009990FB7D
:10358000F1F047F82400641C032CF5DBB9F1010FBE
:1035900007D13B224FF48171504605F006F80646EC
:1035A00006E01E2240F21511504604F0FEFF0646CA
:1035B0000EB13046DCE744F6206004F073FD0020D5
:1035C00000906B462A464946504605F0E3F9064608
:1035D0000EB13046CCE7002407E055F824000099EE
:1035E00090FBF1F045F82400641C032CF5DB00206F
:1035F000BEE700002DE9F04F99B004460D46914614
:103600009A464FF000080026002700201890582204
:10361000FE4902A8FCF7D8FEB9F1000F0BD02946ED
:10362000204601F057FC30B9284603F09EFE04F511
:103630002B7101220A54112D14D1B9F1000F09D0B8
:103640004FF40060A4F83E02B4F84202401CA4F813
:10365000420207E00020A4F83E02B4F84202401EF5
:10366000A4F84202122D14D1B9F1000F09D04FF481
:103670000050A4F84002B4F84202401CA4F84202F0
:1036800007E00020A4F84002B4F84202401EA4F86B
:103690004202132D0DD1B9F1000F05D0B4F842024A
:1036A000401CA4F8420204E0B4F84202401EA4F810
:1036B00042022E2D0AD1B9F1000F04D04FF48060E0
:1036C000A4F8580102E00020A4F858012D2D13D1D0
:1036D000B9F1000F08D02020A4F85601B4F8420236
:1036E000401CA4F8420207E00020A4F85601B4F8F8
:1036F0004202401EA4F842022F2D03D14946204623
:1037000001F0F5FB292D03D14946204601F061FC6B
:1037100004F5AD7002AB4A46294600902046FFF7FB
:103720006DFBB4F85A112046FEF70BFD8046B4F845
:10373000560158B1B4F85A0148F2080240EA0201B1
:103740002046FEF7E8FC40EA080806E0B4F85A1103
:103750002046FEF7E0FC40EA0808B4F85A0100F4FD
:10376000004030B1B4F85C0140F48040A4F85C0142
:1037700005E0B4F85C0120F48040A4F85C0194F802
:103780005A0100F0400020B9B4F85A0100F480401A
:1037900030B1B4F85C0140F40050A4F85C0105E0DD
:1037A000B4F85C0120F40050A4F85C0194F85A01CC
:1037B00000F0200070B9B4F85A0100F4806048B9F4
:1037C000B4F85A0100F4807020B9B4F85A0100F43A
:1037D000005030B1B4F85C0140F48050A4F85C01B2
:1037E00005E0B4F85C0120F48050A4F85C01B4F862
:1037F000580130B1B4F85C0140F48060A4F85C0179
:1038000005E0B4F85C0120F48060A4F85C01B4F831
:10381000560158B146F0040646F4804646F4004688
:103820004FF080412046FEF7EBFC05E026F0040651
:1038300026F4804626F40046B4F85C112046FEF7D4
:1038400093FC40EA08087249D4F86001084030B996
:103850004FF4B270005940F61801084008B147F023
:1038600001076C49D4F86001084028B94FF4B270E0
:10387000005B00F4DD6008B147F00207B4F85801BE
:1038800010B9B4F8560108B147F00207B4F8540172
:1038900008B147F002076049D4F86001084028B930
:1038A0004FF4B270005D00F0840018B147F00807D3
:1038B00046F0800607F0010008B146F4807607F074
:1038C000020008B146F40076B4F83E02B4F84012A3
:1038D00008430643B4F85A0100F4806008B146F08A
:1038E000400694F85A0100F0170010B906F4006081
:1038F00040B146F4804646F400464FF080412046F1
:10390000FEF77EFC94F85C0100F0800040B146F4C4
:10391000804646F400464FF080412046FEF770FC9A
:10392000B4F85C0100F4806008B146F01006B4F809
:103930005A0100F4807008B146F00806314620466E
:10394000FEF74CFC40EA0808092D03D00F2D01D0EA
:103950000A2D0BD104F588722946204600F055FB4C
:1039600004F593722946204600F04FFB032D01D049
:103970000B2D11D104F589722946204600F045FB34
:1039800004F594722946204600F03FFB04F5967238
:103990002946204600F039FB1D2D03D0232D01D0F0
:1039A0001E2D0BD104F59B722946204600F02DFBFD
:1039B00004F5A4722946204600F027FB192D01D0FA
:1039C0001F2D11D104F59C722946204600F01DFBE5
:1039D00004F5A5722946204600F017FB04F5A772EE
:1039E0002946204600F011FB204605F051F840EA38
:1039F0000808204601F0BFFF8346204601F0B8FFCB
:103A00005A4601460190204608E0000074D40000A8
:103A1000188E01E60A8E9EE20C48108303F0F4FE35
:103A200040EA0808B4F85A0178B9D4F8600100F403
:103A3000003050B9B4F8560138B901208AF80000B6
:103A4000204604F01BFB40EA080847F080012046AE
:103A500001F01EFD40EA080807F0080008B147F031
:103A6000080739462046FEF791FB40EA0808132D67
:103A70000CD1B9F1000F09D018A92046FEF703F8C0
:103A8000D4F8A4001899081AC4F8A000404619B048
:103A9000BDE8F08F10B50446012084F8B80001227B
:103AA0000221204603F03AFD10BD2DE9F043054602
:103AB0000E46174600231DE000210A46002411E0AF
:103AC00003EB430000EB040C05F1500050F82C0010
:103AD00036F814C04FEA0C4C80FB0CC01CEB010103
:103AE0004241641C032CEBDB880F40EA820047F85C
:103AF00023005B1C032BDFDB0020BDE8F0830146C5
:103B00004FF6FF7001F2DE41088048808880C8804F
:103B1000088148818881C88108824882A1F2DE41FB
:103B200000207047F0B589B006460C4615461CB912
:103B30004FF0FF3009B0F0BD15B94FF0FF30F9E795
:103B400005A9284600F0A2FD01AA06F1A80105A8D2
:103B500003F05AF91E220499029801F058F8470020
:103B60001E220399019801F052F8022101FB107006
:103B7000801320601E22DDE9030101F048F84700B0
:103B80001E22DDE9010101F042F8022101FB007073
:103B900080136060029908461E2201F038F8400048
:103BA000C0F18047039908461E2201F030F8022137
:103BB00001FB10708013A0600020BBE710B5034626
:103BC00013B94FF0FF3010BD11B94FF0FF30FAE7D5
:103BD00012B94FF0FF30F6E710680C68001B186050
:103BE00050684C68001B586090688C68001B986097
:103BF0000020E8E7F0B58DB004460D46284F1CB90B
:103C00004FF0FF300DB0F0BD15B94FF0FF30F9E7C0
:103C100009A9284600F03AFD694609A801F02BF8E9
:103C2000009AD113039A5242D01302F0C9F940000E
:103C3000206010223946206800F0E9FF2060089AD1
:103C4000D113079A5242D01302F0BAF940006060D3
:103C500010223946606800F0DAFF60600699084675
:103C60001E2200F0D4FF0646C6F18046304600F022
:103C70005DFD0646F113069AD01302F0A1F940004B
:103C8000A06010223946A06800F0C1FFA060206843
:103C9000002803DA206800F1B47020600020B1E74A
:103CA000B84B390070B504460E461546192E70D033
:103CB0000CDC0A2E72D004DC032E6CD0092E6BD1E2
:103CC0000DE00B2E69D00F2EF9D135E01D2E73D0EB
:103CD0001E2E72D01F2E71D0232EF0D1F9E0A4F841
:103CE000DE540921204601F0F5F840B1B4F8DE04B5
:103CF000A84202DAB4F8DE0400E0284605460F21A7
:103D0000204601F0E7F840B1B4F8E004A84202DA36
:103D1000B4F8E00400E0284605460A21204601F0F8
:103D2000D9F840B1B4F8E204A84202DAB4F8E204E7
:103D300000E02846054665E1A4F8E0540921204644
:103D400001F0C8F840B1B4F8DE04A84202DAB4F8D1
:103D5000DE0400E0284605460F21204601F0BAF8AF
:103D600040B1B4F8E004A84202DAB4F8E00400E09C
:103D7000284605460A21204601F0ACF840B1B4F8C7
:103D8000E204A84202DAB4F8E20400E0284605465C
:103D900038E1F8E002E031E033E14EE0A4F8E2542B
:103DA0000921204601F096F858B1B4F8DE04A84283
:103DB00005DAB4F8DE0403E05EE0B7E002E128468D
:103DC00005460F21204601F085F840B1B4F8E00423
:103DD000A84202DAB4F8E00400E0284605460A21C9
:103DE000204601F077F840B1B4F8E204A84202DAC4
:103DF000B4F8E20400E02846054603E1A4F8EC54D8
:103E00000321204601F066F840B1B4F8EC04A84262
:103E100002DAB4F8EC0400E0284605460B212046FF
:103E200001F058F840B1B4F8EA04A84202DAB4F854
:103E3000EA0400E028460546E4E0A4F8EA54032139
:103E4000204601F047F840B1B4F8EC04A84202DA89
:103E5000B4F8EC0400E0284605460B21204601F0AA
:103E600039F840B1B4F8EA04A84202DAB4F8EA0436
:103E700000E028460546C5E0A4F8E4541D2120468C
:103E800001F028F840B1B4F8E404A84202DAB4F82A
:103E9000E40400E0284605462321204601F01AF8F4
:103EA00040B1B4F8E604A84202DAB4F8E60400E04F
:103EB000284605461E21204601F00CF840B1B4F812
:103EC000E804A84202DAB4F8E80400E0284605460F
:103ED00098E0A4F8E6541D21204600F0FBFF40B115
:103EE000B4F8E404A84202DAB4F8E40400E0284696
:103EF00005462321204600F0EDFF40B1B4F8E6046A
:103F0000A84202DAB4F8E60400E0284605461E217D
:103F1000204600F0DFFF40B1B4F8E804A84202DA1E
:103F2000B4F8E80400E0284605466BE0A4F8E8543D
:103F30001D21204600F0CEFF40B1B4F8E404A842B1
:103F400002DAB4F8E40400E02846054623212046BE
:103F500000F0C0FF40B1B4F8E604A84202DAB4F8B9
:103F6000E60400E0284605461E21204600F0B2FF88
:103F700040B1B4F8E804A84202DAB4F8E80400E07A
:103F8000284605463EE0A4F8F0541921204600F0EA
:103F9000A1FF40B1B4F8F004A84202DAB4F8F0048A
:103FA00000E0284605461F21204600F093FF40B15F
:103FB000B4F8EE04A84202DAB4F8EE0400E02846B1
:103FC00005461FE0A4F8EE541921204600F082FFB8
:103FD00040B1B4F8F004A84202DAB4F8F00400E00A
:103FE000284605461F21204600F074FF40B1B4F872
:103FF000EE04A84202DAB4F8EE0400E028460546D2
:1040000000E000BF00BF284670BD2DE9F041044626
:104010000F4616464FF6FF75192F72D00CDC0A2F8B
:1040200015D004DC032F70D0092F6CD10DE00B2FBD
:104030006CD00F2FF9D109E01D2F34D01E2F34D0B2
:104040001F2F6FD0232FF0D12EE000BF00BF09211A
:10405000204600F03FFF40B1B4F8DE04A84202DA87
:10406000B4F8DE0400E0284605460F21204600F0A3
:1040700031FF40B1B4F8E004A84202DAB4F8E00439
:1040800000E0284605460A21204600F023FF40B103
:10409000B4F8E204A84202DAB4F8E20400E02846E8
:1040A0000546358071E000BF00BF1D21204600F0AD
:1040B00011FF40B1B4F8E404A84202DAB4F8E40411
:1040C00000E0284605462321204600F003FF40B1CA
:1040D000B4F8E604A84202DAB4F8E60400E02846A0
:1040E00005461E21204600F0F5FE40B1B4F8E80474
:1040F000A84202DAB4F8E80400E028460546358014
:1041000043E022E001E03FE000E000BF0321204661
:1041100000F0E0FE48B1B4F8EC04A84203DAB4F8C9
:10412000EC0401E012E0284605460B21204600F091
:10413000D1FE40B1B4F8EA04A84202DAB4F8EA04C5
:1041400000E02846054635801FE000BF19212046C3
:1041500000F0C0FE40B1B4F8F004A84202DAB4F8AE
:10416000F00400E0284605461F21204600F0B2FE7C
:1041700040B1B4F8EE04A84202DAB4F8EE0400E06C
:1041800028460546358000E000BF00BFBDE8F0814D
:1041900070B5054600264A2105F1BC00FCF73BF945
:1041A00000241DE00D2C07D00C2C05D01F2C03D0B3
:1041B000202C01D00E2C05D1122105F5837020F89A
:1041C00014100CE00F2C05D1122105F5837020F896
:1041D000141004E0C82105F5837020F81410641C45
:1041E000252CDFD300243BE00E2C05D0022C03D07D
:1041F000222C01D0182C0AD10E2105F5B47020F81C
:1042000024104FF47A7100EB8400418027E00F2CDA
:1042100011D0232C0FD0092C0DD01D2C0BD00A2C23
:1042200009D01E2C07D00B2C05D01F2C03D0032C3B
:1042300001D0192C09D1052105F5B47020F82410FE
:10424000142100EB8400418009E0052105F5B470DC
:1042500020F824104FF47A7100EB84004180641C34
:10426000332CC1D3002005F23625288068802871C0
:1042700068710120A87100202881688125F8E00C70
:10428000A881C82028826882A882E882A5F2362503
:10429000304670BD2DE9F04F89B0044694F8840093
:1042A000059004F14D0B04AB012240F2851120462C
:1042B00002F0A2FE05461DB1284609B0BDE8F08F08
:1042C000002240F28511204604F06FF905460DB139
:1042D0002846F2E70DF11103012240F28911204630
:1042E00002F08AFE05460DB12846E6E7002240F2BC
:1042F0008911204604F059F905460DB12846DCE73E
:1043000003AB01224FF4C071204602F075FE054652
:104310000DB12846D1E700224FF4C071204604F0C9
:1043200044F905460DB12846C7E731200690002024
:10433000009001462046DDE9052301F046F90546D7
:1043400005B1AEE08820005923280ED088200059FE
:1043500024280AD040200C23009000212046059AF2
:1043600001F033F9054605B19BE0102000900021D3
:104370002046DDE9052301F028F9054605B190E066
:104380004FF00A0A1CE043F6982003F08BFE07A8C2
:1043900001211023CDE9001000212046059A01F0EB
:1043A000E7F8054605B17CE09DF81C0000F001002F
:1043B00020B9AAF1010000F0FF0A01E04FF0000A65
:1043C000BAF1000FDFDC9DF81C0000F0010010B90D
:1043D0004FF0FF3565E007A806211123CDE9001055
:1043E00000212046059A01F0C3F8054605B158E0C2
:1043F0009DF81C009DF81D1040EA012007B29DF8B1
:104400001E009DF81F1040EA01200FFA80F89DF869
:1044100020009DF8211040EA01200FFA80F9882041
:104420000059232801D1072600E008269BF8000048
:1044300080307843304107B29BF80100803000FBA8
:1044400008F030410FFA80F89BF80200803000FB42
:1044500009F030410FFA80F94FF0FF35606FB0F985
:104460000000B84204DBA06FB0F90000B84200DDE4
:1044700017E0606FB0F90200404504DBA06FB0F9AF
:104480000200404500DD0CE0606FB0F904004845D3
:1044900004DBA06FB0F90400484500DD01E0002511
:1044A00000BF88200059232810D0882000592428D4
:1044B0000CD088200059252808D000200C2300901B
:1044C00001462046059A01F080F80543002000903F
:1044D00001462046DDE9052301F077F8054328462B
:1044E000EBE600002DE9F04F99B006468A46934668
:1044F00000240FE000250AE0032000FB04501AF816
:104500000000032101FB054116AA50546D1C032D28
:10451000F2DB641C032CEDDB88208059252804D1B4
:10452000DFF838814FF0160904E0DFF830814FF0F2
:10453000160900BF00BF002411E006F14D00005D28
:1045400080300AA941F8240051F8241001FA09F03A
:10455000414600F053FB0AA941F82400641C032CD7
:10456000EBDB002412E0032094FBF0F100FB114090
:104570000AA951F820001BF90410484301A941F889
:10458000240000200DA941F82400641C092CEADB5A
:10459000002431E000252CE0002104EB4400421906
:1045A00006F1500040F8221000271FE007EB4702F9
:1045B0002A4401AB53F8221004EB4402D31906F548
:1045C000227252F8230000F019FB014604EB44006C
:1045D000421906F1500050F82200014404EB440057
:1045E000421906F1500040F822107F1C032FDDDB3A
:1045F0006D1C032DD0DB641C032CCBDB002424E0DA
:1046000000251FE000271AE0032000FB04500DA93D
:1046100051F82010032000FB047016AA1256032044
:1046200000FB075306F1500050F8230002FB001076
:10463000032101FB04510DAA42F821007F1C032F26
:10464000E2DB6D1C032DDDDB641C032CD8DB0DA924
:104650003046FDF7E1FC19B0BDE8F08F9999990952
:10466000014691F88C00022801D1012070470020FA
:10467000FCE701460A7812064B7842EA03428B783F
:1046800042EA0322CB7842EA030070472DE9F04169
:1046900004460D4600262168084600F0AFFAC0F136
:1046A00080486168084600F0A9FAA8EB0008A168F4
:1046B000084600F0A3FAA8EB0007384600F036F8E9
:1046C00006462E60206868606068A860A068E860A0
:1046D0000020BDE8F08170B52DED028B84B0054659
:1046E0000E46B0EE408A144601AA314605F1A800F4
:1046F00000F0A0FA9DED010AB8EEC00A20EE080A0B
:1047000084ED000A9DED020AB8EEC00A20EE080A08
:1047100084ED010A9DED030AB8EEC00A20EE080AF6
:1047200084ED020A04B0BDEC028B70BD2DE9F14F9F
:1047300081B00198002802DC0020BDE8FC8FDFF882
:10474000C4904FEA690A4FF0C047694601A800F0DB
:104750006FFB06464FF000080098002805DD009822
:1047600000EBD0714910A0EB41080098A0EB0800C5
:1047700000900198A0F180452946019800F03EFA8A
:104780000199A1EB6004022E23DBC7EB65012846EB
:1047900000F034FA83465946284600F02FFA4510B7
:1047A0002946204600F02AFAA4EB6004032E10D11B
:1047B000C7EB6501284600F021FA83465946284692
:1047C00000F01CFA45102946204600F017FAA4EB29
:1047D0006004B8F1000F04D05146204600F00EFAF4
:1047E00004460098002803DD00984010044107E0CB
:1047F0000098401C20B94946204600F0FFF90446C5
:1048000020469AE79A79825A01460022086808B938
:104810000020704708686FF30F0028B902F11000FC
:1048200002B2088800040860086800F07F4028B9D8
:1048300002F1080002B2086800020860086800F08F
:10484000704020B9101D02B20868000108600868B5
:1048500000F0404020B9901C02B208688000086057
:10486000086800F0004020B1501E02B208684008FD
:1048700008601046CDE70246100A08704A700846E4
:1048800070470246100E0870100C4870100A8870AD
:10489000CA7008467047000070B52DED0A8B0546BA
:1048A0000C4695ED000AB0EE408A95ED010AF0EE57
:1048B000408A95ED020AB0EE409A95ED030AF0EEBB
:1048C000409A95ED040AB0EE40AA95ED050AF0EE87
:1048D00040AA95ED060AB0EE40BA95ED070AF0EE53
:1048E00040BA95ED080AB0EE40CAB7EE000A38EEBD
:1048F000000A30EE0A0A30EE0C0AF1EE000A80EEF1
:10490000201A84ED001AB7EE000A38EE000A30EEE5
:104910004A0A30EE4C0AF1EE000A80EE201A84EDCD
:10492000011AB7EE000A30EE480A30EE0A0A30EEFD
:104930004C0AF1EE000A80EE201A84ED021AB7EE5E
:10494000000A30EE480A30EE4A0A30EE0C0AF1EE68
:10495000000A80EE201A84ED031A94ED000AB5EEE9
:10496000C00AF1EE10FA03D29FEDA30A84ED000A0B
:1049700094ED010AB5EEC00AF1EE10FA03D29FEDF4
:104980009E0A84ED010A94ED020AB5EEC00AF1EE2A
:1049900010FA03D29FED980A84ED020A94ED030AFF
:1049A000B5EEC00AF1EE10FA03D29FED930A84ED42
:1049B000030AD4ED000AB0EE600AFCF753FA84ED66
:1049C000000AD4ED010AB0EE600AFCF74BFA84ED60
:1049D000010AD4ED020AB0EE600AFCF743FA84ED56
:1049E000020AD4ED030AB0EE600AFCF73BFA84ED4C
:1049F000030A94ED000AD4ED010AB4EEE00AF1EEE8
:104A000010FA36DB94ED000AD4ED020AB4EEE00AA7
:104A1000F1EE10FA2DDB94ED000AD4ED030AB4EEAA
:104A2000E00AF1EE10FA24DB3AEEEB0AD4ED000ACC
:104A3000B1EE001A60EE810A80EE201A84ED011AB0
:104A40003BEE490AD4ED000AB1EE001A60EE810A8D
:104A500080EE201A84ED021A38EEE90AD4ED000A3D
:104A6000B1EE001A60EE810A80EE201A84ED031A7E
:104A7000BEE094ED010AD4ED000AB4EEE00AF1EED6
:104A800010FA36DB94ED010AD4ED020AB4EEE00A26
:104A9000F1EE10FA2DDB94ED010AD4ED030AB4EE29
:104AA000E00AF1EE10FA24DB3AEEEB0AD4ED010A4B
:104AB000B1EE001A60EE810A80EE201A84ED001A31
:104AC00038EEA90AD4ED010AB1EE001A60EE810AAF
:104AD00080EE201A84ED021A3BEE090AD4ED010A99
:104AE000B1EE001A60EE810A80EE201A84ED031AFE
:104AF0007EE094ED020AD4ED000AB4EEE00AF1EE95
:104B000010FA36DB94ED020AD4ED010AB4EEE00AA5
:104B1000F1EE10FA2DDB94ED020AD4ED030AB4EEA7
:104B2000E00AF1EE10FA24DB3BEE490AD4ED020A6A
:104B3000B1EE001A60EE810A80EE201A84ED001AB0
:104B400038EEA90AD4ED020AB1EE001A60EE810A2D
:104B500080EE201A84ED011A3AEEAB0AD4ED020A77
:104B6000B1EE001A60EE810A80EE201A84ED031A7D
:104B70003EE094ED030AD4ED000AB4EEE00AF1EE53
:104B800010FA35DB94ED030AD4ED010AB4EEE00A25
:104B9000F1EE10FA2CDB94ED030AD4ED020AB4EE28
:104BA000E00AF1EE10FA23DB38EEE90AD4ED030A4D
:104BB000B1EE001A60EE810A80EE201A84ED001A30
:104BC0003BEE090AD4ED030AB1EE001A60EE810A49
:104BD00080EE201A84ED011A3AEEAB0AD4ED030AF6
:104BE000B1EE001A60EE810A80EE201A84ED021AFE
:104BF000BDEC0A8B70BD000000000000F0B502465D
:104C000082FB01352C469D0F45EA8400F0BD2DE95D
:104C1000F05F06468946924686FB0975A8465246CD
:104C20003C46454620462946FBF7B8FB8346584696
:104C3000BDE8F09F70B590B006460C4615460020C2
:104C40000490D4E901022168CDE9060205910CAA7D
:104C500004A9304604F050FA08A9304604F040FA9E
:104C60006A4608A90CA804F047FA01A807C885E815
:104C7000070010B070BD70B504460D466168084667
:104C800004F025FA06462168084604F020FA30446C
:104C9000A0F180402860D4E9010104F018FA06462A
:104CA0002168E06804F013FA301A6860E16860680F
:104CB00004F00DFA06462168A06804F008FA3044B2
:104CC000A860D4E9010104F002FA06462168E06810
:104CD00004F0FDF93044E860A168084604F0F7F9F3
:104CE00006462168084604F0F2F93044A0F18040FD
:104CF0002861D4E9020104F0EAF90646D4E900107B
:104D000004F0E5F9301A6861E168606804F0DFF9E1
:104D100006462168A06804F0DAF9301AA861D4E9DF
:104D2000020104F0D4F90646D4E9001004F0CFF9EA
:104D30003044E861E168084604F0C9F90646216894
:104D4000084604F0C4F93044A0F18040286270BDE8
:104D500070B588B006460D46144604A92846FFF7EC
:104D600095FC6A4606F1A80104A802F04DF80098E7
:104D7000002828DB9DED010AB8EEC00ADFED2B0A02
:104D800020EE200A84ED000A9DED020AB8EEC00A6A
:104D9000DFED260A20EE200A84ED010A9DED030ACC
:104DA000B8EEC00ADFED210A20EE200A84ED020AE7
:104DB0009DED000AB8EEC00ADFED1C0A20EE200AC5
:104DC00084ED030A2FE00198404200EE100AB8EE8D
:104DD000C00ADFED160A20EE200A84ED000A0298D0
:104DE000404200EE100AB8EEC00ADFED100A20EED5
:104DF000200A84ED010A0398404200EE100AB8EE42
:104E0000C00ADFED0A0A20EE200A84ED020A0098AB
:104E1000404200EE100AB8EEC00ADFED040A20EEB0
:104E2000200A84ED030A08B070BD00000000803045
:104E30002DE9F04703460C46214D6E00214FDFF867
:104E40008880DFF88890DFF888A01868B04206DD17
:104E50001868401018604FF0FF3020601CE01868A0
:104E6000A84217DA1846FFF7CFFC20601868B04256
:104E700006DB1868401018602068401E20600BE0B8
:104E80001868A84208DA1868400018602068401CBA
:104E9000206001E0002020601868B84202DB18683A
:104EA000404502DD0320BDE8F0871868484502DB75
:104EB0001868504501DD0220F5E70120F3E7000006
:104EC000FE855C2C9A99993966666646F6285C3FA1
:104ED0000AD7A34010B502464B1102F5B07050F846
:104EE000230001F01F040123A340184010BD30B57A
:104EF00004460D46A4F8505175B18020A4F8540121
:104F0000B4F85C0140F08000A4F85C01B4F84202FF
:104F1000401CA4F8420212E029212046FFF7DAFFE4
:104F200068B90020A4F85401B4F85C0120F08000B6
:104F3000A4F85C01B4F84202401EA4F8420230BD5D
:104F400070B504460D46002635B1B4F85C0140F456
:104F50008070A4F85C0105E0B4F85C0120F4807076
:104F6000A4F85C01B4F85C112046FDF7FDF8064694
:104F70002946204600F000F9304670BD2DE9F04189
:104F800004460E4617460025304607F00DF930B1AD
:104F9000204600F089FC10B9681EBDE8F08120466B
:104FA00001F02EFF94F83C0230B1002084F83C025E
:104FB000204603F0B1F9054304F50F733A46314634
:104FC0002046FEF717FB05432046FEF763FD284603
:104FD000E3E771B18022A0F85421B0F85C2142F0DF
:104FE0008002A0F85C21B0F84222521CA0F84222B4
:104FF00010E0B0F850216AB90022A0F85421B0F8AE
:105000005C2122F08002A0F85C21B0F84222521EFE
:10501000A0F84222704770B504460D462946204646
:10502000FCF7A7FC70BD0146B1F85001704701467E
:1050300091F83A02704770B504460D46294620465D
:10504000FCF7F3FC70BD70B504460D4629462046BA
:10505000FCF7BDFC70BD70B504460D4600262868FF
:10506000C4F850024FF4157069680151001DA96819
:10507000015104F514712046FCF73BFF064630460B
:1050800070BD00003EB505460C4600200090019022
:105090000290052C04DC1B4800901B4801902CE07A
:1050A0000A2C04DC194800901948019025E00B2CCB
:1050B00007DC4FF033300090164801900120029039
:1050C0001BE0142C04DC144800901448019014E0F8
:1050D000162C05DC4FF0333000900E4801900CE0A8
:1050E0004B2C04DC0E4800900E48019005E0E12CAA
:1050F00003DC0D4800900D48019069462846FCF7F6
:10510000A5FD3EBD7DD2273D832DD8029224493A8C
:105110006EDBB605CDCCCC0C25499234DBB66D0BDD
:1051200055555515ABAAAA2A666666069A99993905
:1051300070B505460C460E4E052C06D00A2C06D03E
:105140000B2C06D0162C0AD106E0094E09E0094EB8
:1051500007E04FF0007604E04FF0806601E0044E77
:1051600000BF00BF31462846FCF7A2FD70BD00001D
:105170002EBAE8005D74D10119B1012280F83A22FB
:1051800002E0002280F83A22704770B504460D46CE
:10519000002694F85A0100F0400070B9B4F85A01A2
:1051A00000F4006048B9B4F85A0100F4806020B9F6
:1051B000B4F85A0100F48040D0B1204600F0D8FB8A
:1051C000401C40F2654191FBF0F068434FF47A7166
:1051D00090FBF1F64FF4BC70005BA84202DD4FF08B
:1051E000FF3070BD012231462046FCF752FEF8E741
:1051F000B4F85A0100F4004020B9B4F85A0100F4A0
:105200008070D0B1204600F0E9FA401C40F26541C0
:1052100091FBF0F068434FF47A7190FBF1F64FF494
:10522000B670005BA84202DD4FF0FF30D9E70222E2
:1052300031462046FCF72DFED3E7B4F85A0100F4BE
:10524000005020B994F85A0100F02000C8B120465F
:1052500000F0AAFB40F2654191FBF0F068434FF487
:105260007A7190FBF1F64FF4B870005BA84202DD52
:105270004FF0FF30B5E7082231462046FCF709FE23
:10528000AFE74FF0FF30ACE770B504460D4600269F
:105290004FF4177029680151001D69680151001D04
:1052A000A968015104F517712046FCF784FE0646F3
:1052B000304670BD70B504460D4600264FF41A7096
:1052C00029680151001D69680151001DA96801513B
:1052D00004F51A712046FCF73DFE0646304670BDC7
:1052E000014611B94FF0FF307047034B0DCB81E8F9
:1052F0000D000020F8E700005C490020014611B9CC
:105300004FF0FF307047034B0C330DCB81E80D009D
:105310000020F7E75C490020014611B94FF0FF304B
:105320007047034B34330DCB81E80D000020F7E7C5
:105330005C490020014611B94FF0FF307047034827
:10534000B0F8840008800020F8E700005C490020E5
:10535000014611B94FF0FF3070470348D0F8800084
:1053600008600020F8E700005C490020014611B900
:105370004FF0FF307047034B64330DCB81E80D00D5
:105380000020F7E75C49002010B5034613B94FF041
:10539000FF3010BD11B94FF0FF30FAE712B94FF0EE
:1053A000FF30F6E708681468001B18604868546806
:1053B000001B586088689468001B98600020E8E72C
:1053C000014611B94FF0FF3070470348B0F886002E
:1053D00008800020F8E700005C490020014611B970
:1053E0004FF0FF307047034B1C330DCB81E80D00AD
:1053F0000020F7E75C490020014611B94FF0FF306B
:105400007047034802680A60808888800020F7E7B8
:10541000A2490020014611B94FF0FF307047034BFD
:1054200058330DCB81E80D000020F7E75C490020E0
:10543000014611B94FF0FF3070470748B0F84000FF
:1054400008800548B0F8420048800348B0F844009E
:1054500088800020F0E700005C49002070B5044619
:105460000D4629462046FFF790FE38B90121204617
:10547000FFF766FD061E09D0304670BD00212046AC
:10548000FFF75EFD061E01D03046F6E70020F4E788
:1054900070B504460D460026E07E7F2801D101202C
:1054A00000E0002005F080010843E0B10021E17632
:1054B00005F0020008B93821E17605F0010018B9BD
:1054C000E07E40F00701E17605F0040018B9E07EC7
:1054D00040F04001E17604F11B0301220721204640
:1054E00002F0B9FF064305F0080020B1204601F0A4
:1054F00067FE064303E0204602F0F4FD0643304613
:1055000070BD2DE9F04106460C461546204606F0D2
:105510006AFE0746EAB239463046FFF72FFD18B15A
:105520004FF0FF30BDE8F08135B9002106F5327249
:1055300002EBC402116051600020F3E738B5044665
:1055400070200090012161766B46012205212046E2
:1055500002F081FF38BD38B504464020009000219C
:1055600061766B4601220521204602F074FF38BDAA
:105570002DE9F84F0746884691461D46DDE90A6A3F
:105580000024F0B2EBB24A4641460090384601F0A2
:10559000C4FD0443384601F0B7FE04434EF66020D4
:1055A00002F080FD384601F0A3FE04435346324624
:1055B0003B21384601F020FD04434146384601F0C6
:1055C000C7FE04432046BDE8F88F2DE9F8430646A0
:1055D0000F4690461D46DDF820900024EBB242466F
:1055E00039463046CDF8009002F0A1FF0443304622
:1055F00001F08AFE04434EF6602002F053FD30466F
:1056000001F076FE04433946304601F0A1FE044322
:105610002046BDE8F88300002DE9F047074688469C
:1056200091461C4600261D4D2068032833DD0023CB
:105630001B4A911E2846FDF73BF806462068B042FB
:1056400003DAD7F89800BDE8F087AD1C14489C3801
:1056500090F89A0000F0080000B1AD1C2A461049ED
:105660009C39384600F07CFB05442068801B206094
:10567000206820B1094881192268FAF7A5FE084878
:105680009C38B0F89A00A8F8000005489C38B0F89B
:105690009C00A9F800000020D5E70000004A002087
:1056A000F8490020F8B506460C4615461F4600206E
:1056B000009028802068B0F5806F0EDA0E4B2068CD
:1056C000C218C0F580616B463046FCF7FCF82168D3
:1056D00008442060009800B109E03B462A46304665
:1056E0002168FCF75FFE00B101E00020F8BD00205A
:1056F0002060401EFAE70000004A00202DE9FF4F1D
:1057000085B0894692469B4600200090059890F807
:105710002600C0F3400018B1002009B0BDE8F08FAA
:105720004F4656465D461FE0102E01DA304600E037
:1057300010200446E8B22044B0F5807F03DDE8B2D3
:105740002044A0F580743B4622462946059802F085
:1057500019FE8046B8F1000F01D04046DDE727442E
:10576000301B86B2281985B2002EDDDC4F46564626
:105770005D4629E0102E01DA304600E01020044694
:10578000E8B22044B0F5807F03DDE8B22044A0F504
:10579000807401AB22462946059801F08EFB8046B5
:1057A000B8F1000F02D00098401C00902246394604
:1057B00001A8FAF742FE10B14FF0FF30ADE72744E1
:1057C000301B86B2281985B2002ED3DC0020A4E756
:1057D0000148B0F97A0070475C4900200146B1F9F0
:1057E0002000704701462520405C70472DE9F041BC
:1057F00086B080460F4614460025042F39D003DCBE
:105800003FB1012F42D11AE0052F17D00C2F3DD107
:1058100030E003A94046FFF7FEFB05430398401222
:105820000090049840120190059840120290009850
:105830002060019860600298A0602AE000BF03A980
:105840004046FFF7F8FB0543404600F094F8C0F1EE
:105850000606039830410090049830410190059865
:105860003041029000982060019860600298A0602A
:105870000FE000BF03A94046FFF7E5FB054303988F
:105880002060049860600598A06002E04FF0FF354A
:1058900000BF00BF1DB90C2006B0BDE8F08128464E
:1058A000FAE70146087E7047014691F8B900704753
:1058B0004FF480520A8070472DE9F04180460C4633
:1058C0001746022C00D0ECB93D464046FFF78AFF50
:1058D000064616B90220287012E0012E02D10420DB
:1058E00028700DE0022E02D10820287008E0032E57
:1058F00002D11020287003E04FF0FF30BDE8F081A6
:105900000120FBE7012C03D0032C01D0052C1FD173
:105910003D46404600F02FF8064616B9FA2028808A
:1059200014E0012E03D14FF4FA7028800EE0022E0D
:1059300003D14FF47A70288008E0032E03D14FF48E
:10594000FA60288002E04FF0FF30D7E70220D5E769
:1059500000BF0020D2E700000148806A70470000C5
:105960005C4900200148B0F97C0070475C49002088
:105970000146487F704701462420405C704702463C
:105980000020087001207047014691F8B800704768
:105990000148B0F97E0070475C49002001488069E9
:1059A000704700005C4900200146C88B704700002A
:1059B00010B50021034805F0E6FB0446204600210F
:1059C00010BD0000F8D6000070B505460C46002654
:1059D000012322463146284601F083FB70BDF8B50D
:1059E00005460C4600260CB1002020806B460122A3
:1059F0001921284601F000FB064614B19DF800006D
:105A000020806B4601221821284601F0F5FA06464F
:105A100034B120889DF8001040EA012000B22080B7
:105A20003046F8BD10B504464FF08040C4F8A800D9
:105A30000021AC200151B0200151B42001510921B5
:105A400004F51D70FAF7E7FC012084F874020121C7
:105A50004FF41E700155001D01558807C4F88802D7
:105A600001464FF4267001514FF42A7001519FED09
:105A7000040A04F51D71204601F0C8FD10BD0000A8
:105A80000000000010B504460121204601F0D1FCC1
:105A90000321204601F0A6FE002010BD10B50446EB
:105AA00040F28310A085411CE185811C2186C11C28
:105AB0006186011DA186411DE186811D2187C11DD1
:105AC0006187491CA187491CE187491CA4F8401043
:105AD000491CA4F84210491C44200153491CA4F855
