:020000040000FA
:10000000B8290020FD0200000503000007030000DE
:10001000090300000B0300000D03000000000000B6
:100020000000000000000000000000000F030000BE
:10003000110300000000000013030000150300007E
:100040001703000017030000FD0600004104000034
:100050001703000017030000170300001703000038
:100060001703000017030000170300001703000028
:100070001703000017030000170300001703000018
:100080001703000017030000170300001703000008
:1000900017030000170300001703000017030000F8
:1000A00017030000170300001703000017030000E8
:1000B000170300001703000000000000000000000C
:1000C00017030000170300001703000017030000C8
:1000D00017030000170300001703000000000000D2
:1000E0000000000000000000000000000000000010
:1000F0000000000000000000000000000000000000
:1001000000000000000000000000000000000000EF
:1001100000000000000000000000000000000000DF
:1001200000000000000000000000000000000000CF
:1001300000000000000000000000000000000000BF
:1001400000000000000000000000000000000000AF
:10015000000000000000000000000000000000009F
:10016000000000000000000000000000000000008F
:10017000000000000000000000000000000000007F
:10018000000000000000000000000000000000006F
:10019000000000000000000000000000000000005F
:1001A000000000000000000000000000000000004F
:1001B000000000000000000000000000000000003F
:1001C000000000000000000000000000000000002F
:1001D000000000000000000000000000000000001F
:1001E000000000000000000000000000000000000F
:1001F00000000000000000000000000000000000FF
:10020000DFF810D000F0C4F800480047F50F0000F8
:10021000AFF30080B829002030B4044654E8000F42
:100220000D4644E80053002BF8D1156030BC7047F0
:1002300030B4044654E8000F40EA010544E8005396
:10024000002BF7D1156030BC704730B4044654E839
:10025000000F00EA010544E80053002BF7D11560B8
:1002600030BC704730B4044654E8000F80EA010502
:1002700044E80053002BF7D1156030BC704730B410
:10028000044654E8000F00EB010544E80053002B3E
:10029000F7D1156030BC704730B4044654E8000F05
:1002A000A0EB010544E80053002BF7D1156030BCEA
:1002B000704770B404464FF0000054E8006F0D68BA
:1002C000AE4207BF44E80023012044E800630E600B
:1002D000002B1CBF0020F0E770BC704730B4044610
:1002E00054E8000F88422CBF451A054644E80053E5
:1002F000002BF5D1156030BC7047000006488047E0
:1003000006480047FEE7FEE7FEE7FEE7FEE7FEE7FA
:10031000FEE7FEE7FEE7FEE76504000001020000DD
:1003200000487047343F000040EA01039B0703D0B8
:1003300009E008C9121F08C0042AFAD203E011F824
:10034000013B00F8013B521EF9D27047D2B201E0E6
:1003500000F8012B491EFBD270470022F6E710B5CA
:1003600013460A4604461946FFF7F0FF204610BD23
:10037000421C10F8011B0029FBD1801A704703466C
:1003800011F8012B00F8012B002AF9D1184670470B
:10039000064C074D06E0E06840F0010394E80700D2
:1003A00098471034AC42F6D3FFF72EFFE43F00002D
:1003B0000440000010B500F0A9F910BD2DE9F04788
:1003C000074688461646C24607EB47011B4800EB26
:1003D000C109D9F8140020B1012811D0022826D172
:1003E0001EE0484600F0CAF90546B54201D2002495
:1003F00005E0344632465146484600F018FA18E007
:10040000484600F0BBF90546B54201D2284600E057
:100410003046044622465146484600F008FA08E0B5
:1004200032465146484600F0C9F9044601E000242E
:1004300000BF00BF2046BDE8F08700004407002051
:1004400010B50249024802F05DFF10BDB000002067
:100450000030004001480249086070470090D00316
:10046000AC00002010B500F0EFFE28B192480088E3
:10047000C0F304209149086000F042FF10B1904899
:100480009049486700F07CFF30B18B48E038006845
:10049000C0F342308C49086000F0A0FF28B18B48BF
:1004A000006820F080708949086000F0B7FF48B10B
:1004B0000020874908604FF08041C1F8100182494F
:1004C000091F086000F0D8FF18B103207E4964318D
:1004D000086000F0F1FF68B105207E490860012046
:1004E0007C497831086000207A49083108603F2053
:1004F000091F086001F000F8002855D06E48E03070
:100500000068754908606C48E4300068091D08609F
:100510006948E8300068091D08606748EC300068E9
:10052000091D08606448F0300068091D08606248D1
:10053000F4300068091D08605F48F83000686649BB
:10054000203108605C48FC300068091D0860634881
:100550000068091D08606148001D0068091D0860E9
:100560005E4808300068091D08605C480C3000686F
:10057000091D08605948103000685749403108602B
:10058000564814300068091D086054481830006847
:10059000091D086051481C300068091D08604F485B
:1005A00020300068091D086000F020FE30B142488C
:1005B000CC38006800F04F004949086000F072FE36
:1005C00040B14848006800F0010018B16FF0010028
:1005D0004449086000F0B4FE28B14348006840F484
:1005E00080604149086039487438006840F4700000
:1005F00036497439086000BF00BF00BFBFF34F8F9A
:1006000000BF00BF00BF00BF00BF00BFBFF36F8FC0
:1006100000BF00BF00BF3548006800F0004028B9A7
:100620003248001D006800F00040E8B30120304966
:10063000086000BF2F4800680028FBD015202B4918
:10064000086000BF2B4800680028FBD01521274810
:10065000001D016000BF274800680028FBD0002073
:100660002349086000BF234800680028FBD000BF72
:1006700000BF00BF00BF00BFBFF34F8F00BF00BF70
:1006800000BF1248F038006800F4E0601A490843DF
:10069000001D0E49F039086000BF00BF00BFBFF366
:1006A0004F8F00BF00BF00E003E000BF00BF00BFEE
:1006B000FDE7FFF7CFFE10BD2403001040350140D9
:1006C0000DF0ADBA00C007403C050040FCED00E075
:1006D0000C0100401056004020C5004024040010CA
:1006E000E40E0040000400403C17004000120010DF
:1006F00004E5014000E401400000FA0510B502499C
:100700000868804710BD00002000002010B5124C82
:1007100002202061606111A0A0611349E1614FF4E2
:10072000007121620021A1626162E1620BA0A064FC
:100730000E49E164102121650021A1656165E16533
:100740000BA1E01DFFF71BFE0AA12046FFF717FED5
:100750002020A07110BD00002C0700205465726D90
:10076000696E616C00000000A4070020A40900204D
:1007700052545400534547474552000010B50146B6
:100780000A69CB689A4204D88C68641EE41AA018DF
:1007900001E0D41A601E10BD10B5014608460028BD
:1007A00007DB00F01F0301229A40034B440943F882
:1007B000242000BF10BD000080E200E02DE9F047DA
:1007C0000446894617464FF0000AE56800BFD4F892
:1007D0001080A84503D9A8EB0500461E04E0A5EB50
:1007E0000800401CA1680E1AA068401BB04201D945
:1007F000304601E0A068401B0646BE4201D23046AA
:1008000000E0384606466168481932464946FFF717
:100810008BFDB244B144BF1B3544A068A84200D14F
:100820000025E560002FD2D15046BDE8F0872DE9C4
:10083000F047044689461546E668A068871BAF4224
:1008400008D9616888192A464946FFF76DFD701975
:10085000E06010E0B8466168881942464946FFF7F3
:1008600063FDA5EB070809EB070142466068FFF747
:100870005BFDC4F80C80BDE8F08702E008C8121FD9
:1008800008C1002AFAD170477047002001E001C179
:10089000121F002AFBD1704710B572B600BF01F0DD
:1008A000E7FC00BF00BF01F0A5FA0028FBD100BFA4
:1008B00000BF1E491E4A891AC908012242EA0140A6
:1008C0001CA101F021FC00BF1D48006800F00100E0
:1008D00000B100BE00BF1549154A891AC908022295
:1008E00042EA014017A101F00FFC00BF00BF00BFAA
:1008F00000BF00BFBFF34F8F00BF00BF00BF104855
:10090000E438006800F4E06012490843001D0C4917
:10091000E439086000BF00BF00BFBFF34F8F00BFC6
:1009200000BF00BF00BF00BFFDE700004440000063
:1009300024400000466174616C206572726F720021
:10094000F0ED00E053797374656D20726573657422
:10095000000000000000FA053EB5044600200090AB
:100960000190029002946A46002144F20100FFF7D0
:1009700093FF3EBD00B5024600F006F800BD00B58D
:10098000024600F00BF800BD72B603480068401C38
:1009900001490860704700002800002004480068F2
:1009A000401E034908600846006800B962B67047F7
:1009B0002800002070B505460C462068401C28B170
:1009C000206801F0D8F8206801F0A7F86068401CA2
:1009D00018B10021606801F086F82868A169C0F8A4
:1009E000241500BF617D227D286841EA0203C0F81A
:1009F0006C3500BFD4E90012286801F0C6FD207DE7
:100A0000012814D1A068401C18B10021A06801F091
:100A10006AF8E068401C28B1E06801F0ACF8E068D2
:100A200001F07BF8D4E90221286801F097FD70BD40
:100A300070B505460C462068401C28B1206801F0BE
:100A4000A5F8206801F075F86068401C18B1002115
:100A5000606801F055F82868A169C0F8241500BF46
:100A6000617D227D286841EA0203C0F86C3500BF31
:100A7000D4E90012286801F0C0FD207D012814D1BE
:100A8000A068401C18B10021A06801F039F8E068A6
:100A9000401C28B1E06801F079F8E06801F049F8FD
:100AA000D4E90221286801F089FD70BD002114E01D
:100AB0000C48D0F81024012308E000BFD06800796A
:100AC000884201D1002303E0D0680268002AF4D1F3
:100AD00000BF0BB108467047491C0A29E8DB4FF0FC
:100AE000FF30F8E70C0300202DE9F84F04460D46CF
:100AF0001646A71C4FF001080020FFF73BFF3048C7
:100B0000406828602E4840682D498968411A2D4860
:100B10000068401CA0EB010915E001212A4800F003
:100B200027FD00F001FA82465146274800F020FDDB
:100B30002348406822498968411A22480068401CBD
:100B4000A0EB010900BF4F45E7D8B8F1000F30D046
:100B50000021009176B1009921F00301491C009118
:100B6000009921F00401091D0091009964F3891195
:100B700000910DE0009921F00301891C009100997A
:100B800021F00401091D0091009964F39F51009127
:100B90000B4949680B4A12681140094A0C3202EBB2
:100BA0008100009901600649496839440C3A516056
:100BB00000BF0020FFF7E3FE4046BDE8F88F0000CD
:100BC0000C030020680000202807002070B50446B0
:100BD0000D460A2D03D10D212046FFF7F7FFA1682E
:100BE000481CA06020684554D4E90110884202D313
:100BF000204600F01EFE70BD044880680349496825
:100C0000884201D1012070470020FCE70C0300203E
:100C100010B50021034800F0C1FC044684F3100025
:100C200010BD0000280700202DE9FC5F83460E461A
:100C300091461F46DDE90C45002E01DA704200E0C6
:100C4000304682464FF0010803E09AFBF9FA08F1BA
:100C50000108CA45F9DA474500D9B84634B1002E33
:100C600003DB05F00400042800D1641E05F0020037
:100C700000B167B105F0010048B944B104E0641E59
:100C800020215846FFF7A2FF0CB1A045F7D3002E54
:100C900005DA76422D215846FFF798FF07E005F068
:100CA0000400042803D12B215846FFF78FFF05F0DD
:100CB000020002280DD105F0010050B94FB944B12E
:100CC00004E0641E30215846FFF780FF0CB1A045B8
:100CD000F7D33B464A4631465846CDE9004502F037
:100CE0009BFFBDE8FC9F000070B5054612492868CF
:100CF00001F039FC286801F097FC044620460028E2
:100D000017DB00F01F02012191400C4A430942F811
:100D1000231000BF00BF00BFBFF34F8F00BF00BF55
:100D200000BF00BF00BF00BFBFF36F8F00BF00BF99
:100D300000BF00BF00BF70BD8402020080E100E080
:100D400070B505461249286801F03EFC286801F09C
:100D50006FFC04462046002817DB00F01F0201212B
:100D600091400C4A430942F8231000BF00BF00BF66
:100D7000BFF34F8F00BF00BF00BF00BF00BF00BF69
:100D8000BFF36F8F00BF00BF00BF00BF00BF70BDCB
:100D90001003420080E100E02DE9F04104460E46D8
:100DA0004FF48E71206801F0D2FB4FF4A2712068DD
:100DB00001F0CDFB1A49206801F0D8FB206801F052
:100DC00033FC0546374628463946002804DB4A07E7
:100DD000130E144A135408E04A074FEA126C124AE1
:100DE00000F00F031B1F02F803C000BF00BF206804
:100DF00001F01AFC0546284600280DDB00BF00BFA5
:100E000000F01F02012191404209920002F1E0220C
:100E1000C2F8001100BF00BF00BF00BFBDE8F081F5
:100E20008000020000E400E018ED00E02DE9F04150
:100E300004460E464FF48871206801F0B8FB4FF469
:100E40009071206801F0B3FB4FF49271206801F0BB
:100E5000AEFB4FF4A271206801F0A9FB4FF4AC7116
:100E6000206801F0A4FB1B49206801F0B0FB20685A
:100E700001F0DEFB0546374628463946002804DBEC
:100E80004A07130E144A135408E04A074FEA126C3B
:100E9000124A00F00F031B1F02F803C000BF00BF7F
:100EA000206801F0C5FB0546284600280DDB00BF81
:100EB00000BF00F01F02012191404209920002F19F
:100EC000E022C2F8001100BF00BF00BF00BFBDE8B4
:100ED000F08100001003420000E400E018ED00E0A3
:100EE00030B5024600201378C3F38003D3B11378E2
:100EF00003F00303012B02D0022B10D107E013886B
:100F0000C3F383139B1C0C6823440B6008E00B683D
:100F10000225146805EB945423440B6000E000BFE5
:100F200000BF012030BD00002DE9FF4100272E4801
:100F300000F017FB2C48001F00F013FB2B488068C3
:100F400003902B4805680398284028490C3101EB91
:100F5000800800BF03A94046FFF7C2FF30B10398E5
:100F6000284022490C3101EB800800E000E0F1E765
:100F700000BF00240AE00398411C284003911B494C
:100F80000C3151F820004DF82400641C022CF2D3DF
:100F9000009800F0030001280DD0022814D1BDF8FC
:100FA00006700421009801EB9050401E039901EB5C
:100FB0009000039009E0BDF806700098C0F383101C
:100FC00003990844039000E000BF00BF0648001FDB
:100FD00000F0C0FA064616B1044903988860384606
:100FE00004B0BDE8F0810000240700200C030020BD
:100FF000680000201CB500BF0021084601F0F8F889
:10100000054625B100BF2846FFF7A6FC00BF00BF7C
:1010100000F0D4FE2A492B4A891AC908032242EA61
:10102000014029A101F070F800BF00BF00F0E2FE0E
:101030000028FBD100BF02F00DF92149214A891A8D
:10104000C908032242EA014021A101F05DF800BF76
:1010500000BF00F0CFFE0028FBD100BF019064204C
:1010600000F024FB2AE0642000F020FB00BF00BF5A
:1010700000F0C0FE0028FBD100BF18490870012015
:10108000034601AA69210090154800F061FB04465F
:1010900000BF124800780028FBD034B90123114A60
:1010A00069210F4800F042FB044600BF254625B1E8
:1010B00000BF2846FFF750FC00BF00BFD3E7000089
:1010C00044400000244000000D0A53544152540093
:1010D00069326320696E697400000000000000201E
:1010E000703D0000010000202DE9FF4F87B004464D
:1010F00091461E46A2462546BAF806009AF8051003
:101100004843001F0690BAF806B0301DB0FBFBF054
:101110000590301DB0FBFBF10BFB11000490D9F8DA
:10112000000081190698814202D90698801B01E0CF
:10113000D9F800000746C9F8007003E02D6805984B
:10114000401E059005980028F8D103900498ABEB59
:101150000008B84501D9384600E04046804623E003
:101160000399089808440290281D049908440190A6
:10117000149828B14246DDE90110FFF7D5F804E0E4
:101180004246DDE90101FFF7CFF8002004902D6809
:10119000A7EB0807039840440390BB4501D93846A4
:1011A00000E05846804600BF002FD9D10BB0BDE803
:1011B000F08F000070B503460C469CB101F03CF87E
:1011C000054600220AE0084800EB820108881E68F4
:1011D000B04202D11A60002070BD521CAA42F2D364
:1011E0000520F9E70020F7E7000000001448006838
:1011F000401C38B913480178124808300078C0F311
:10120000031205E00E4801684FF08050D0F83421F9
:10121000062912D1032A06D0042A06D0052A06D0B0
:10122000062A08D105E0012070470120FCE70120D3
:10123000FAE70120F8E70120F6E70020F4E70000D4
:1012400030010010E00F00F014480068401C38B96D
:1012500013480178124808300078C0F3031205E003
:101260000E4801684FF08050D0F83421062912D181
:10127000032A06D0042A06D0052A06D0062A08D159
:1012800005E0012070470120FCE70120FAE701207A
:10129000F8E70120F6E70020F4E700003001001035
:1012A000E00F00F014480068401C38B9134801787A
:1012B000124808300078C0F3031205E00E480168B8
:1012C0004FF08050D0F83421062912D1032A06D0DD
:1012D000042A06D0052A06D0062A08D105E00120F6
:1012E00070470120FCE70120FAE70120F8E7012020
:1012F000F6E70020F4E7000030010010E00F00F0F6
:101300000E4802780D4808300078C0F30311062A11
:1013100012D1032906D0042906D0052906D00629B2
:1013200008D105E0012070470020FCE70020FAE723
:101330000020F8E70020F6E70020F4E7E00F00F0D7
:101340000E4802684FF08050D0F83411062A12D1AE
:10135000032906D0042906D0052906D0062908D17C
:1013600005E0002070470020FCE70020FAE701209C
:10137000F8E70120F6E70020F4E700003001001054
:1013800014480068401C38B91348017812480830E6
:101390000078C0F3031205E00E4801684FF080505A
:1013A000D0F83421062912D1032A06D0042A06D007
:1013B000052A06D0062A08D105E001207047012041
:1013C000FCE70120FAE70120F8E70120F6E700201A
:1013D000F4E7000030010010E00F00F00E48027842
:1013E0000D4808300078C0F30311062A12D10329F2
:1013F00006D0042906D0052906D0062908D105E023
:10140000012070470020FCE70020FAE70020F8E701
:101410000020F6E70020F4E7E00F00F01448006831
:10142000401C38B913480178124808300078C0F3DE
:10143000031205E00E4801684FF08050D0F83421C7
:10144000062912D1032A06D0042A06D0052A06D07E
:10145000062A08D105E0012070470120FCE70120A1
:10146000FAE70120F8E70120F6E70020F4E70000A2
:1014700030010010E00F00F00E4802780D480830EF
:101480000078C0F30311062A12D1032906D00429DB
:1014900006D0052906D0062908D105E001207047AD
:1014A0000020FCE70020FAE70020F8E70020F6E73C
:1014B0000020F4E7E00F00F00E4802780D480830F5
:1014C0000078C0F30311062A12D1032906D004299B
:1014D00006D0052906D0062908D105E0012070476D
:1014E0000020FCE70020FAE70020F8E70020F6E7FC
:1014F0000020F4E7E00F00F014480068401C38B901
:1015000013480178124808300078C0F3031205E050
:101510000E4801684FF08050D0F83421062912D1CE
:10152000032A06D0042A06D0052A06D0062A08D1A6
:1015300005E0002070470020FCE70120FAE70120C9
:10154000F8E70120F6E70020F4E700003001001082
:10155000E00F00F010B504460021204600F013F81B
:1015600010BD10B504460121204600F022F810BD40
:10157000F8B504460D466A4629462046FEF77FFE2A
:1015800006460098F8BDF8B504460D466A46294659
:101590002046FEF75AFE06463046F8BDF8B504462A
:1015A0000D466A4629462046FEF736FE0646304678
:1015B000F8BDF8B504460D466A4629462046FEF7B2
:1015C00037FE06460098F8BDF8B504460D466A4653
:1015D00029462046FEF760FE06460098F8BD70B525
:1015E000044600260020FFF7C5F9206800686168FE
:1015F000884215D920680068401E22681060017872
:10160000204600F02FF80646207A21680978401A13
:10161000C5B220680079A84201DA2068057100BFD0
:101620000020FFF7ACF9304670BD0246D068081ABA
:10163000138AB0FBF3F0C0B2704770B504460D4694
:101640002E460020FFF796F931462046FFF7EDFFC2
:1016500021680A68511C2368196010700020FFF788
:101660008EF970BD0246138AD06801FB03007047F3
:1016700010B5014600BF09B90E2010BD00BF087AA1
:101680000B79C01AC2B2D1E90030186005E00868D1
:101690000368581C0C6820601A70101EA2F1010328
:1016A000DAB2F4D10B68187100BFE6E72DE9F0411A
:1016B00004460CB9BDE8F08100BF4FF47A7505B956
:1016C00004E0054FAE013046B84700BF601E041E5F
:1016D000F3D100BFEEE70000813D00002DE9F047A7
:1016E00004460D461646984627780D4840F8276070
:1016F0000C4840F82780687B10B1284601F008FDAF
:101700004FF000090EB1084800E0002002463B46B9
:101710002946201D00F0E8FF81464846BDE8F087D5
:10172000040000200C000020BD3200002DE9F04133
:1017300004460D4616461F464FF000083B4632460B
:101740002946201D01F064F880464046BDE8F0813E
:101750002DE9F84304460D4616461F46DDF8208065
:101760004FF000093B4632462946201DCDF8008047
:1017700001F066F881464846BDE8F8832DE9F0415E
:1017800088B004460F46154626781A4840F8265079
:101790001949386941F82600787F18498855202270
:1017A00039466846FEF7C0FD04964FF000082078E1
:1017B0001249085C50B10DB1114800E0002002460A
:1017C0006946201D01F048F980460EE020780B495B
:1017D000085C50B90DB10B4800E000200246694694
:1017E00004F10C0001F070F88046404608B0BDE8F6
:1017F000F081000014000020180000201C000020D0
:10180000AD3A0000B93800000FB438B50446059869
:1018100010B938BC5DF814FB0020009006A80090B9
:101820006A462046059900F012F80020009000BF9B
:10183000EFE770B50446A06800B970BDD4E90403B1
:10184000A268216898470020A06000BFF5E72DE955
:10185000FC5F82460D4614460DB9BDE8FC9F00BFF3
:101860002E786D1C06B9E1E0252E70D100274FF0CF
:10187000010900BF2E782B2E0CD02D2E02D0302E39
:101880000CD103E047F001076D1C0AE047F00207A6
:101890006D1C06E047F004076D1C02E04FF00009E4
:1018A00000BF00BFB9F1000FE4D14FF0000800BF46
:1018B0002A2E06D12168081D2060086880446D1C0E
:1018C0000DE02E78302E01DB392E00DD07E06D1C97
:1018D000A6F1300008EB880100EB4108E8E700BF03
:1018E0004FF0000B2E782E2E10D16D1C00BF2E78DD
:1018F000302E01DB392E00DD07E06D1CA6F1300033
:101900000BEB8B0100EB410BF1E700BF2E7800BF22
:101910006C2E01D0682E02D16D1C2E7800E000E004
:10192000F6E700BF692E21D008DC252E6DD0582E99
:1019300039D0632E0CD0642E6CD116E0702E4CD0B2
:10194000732E3ED0752E1FD0782E63D12AE065E02D
:101950002168081D2060D1F8009009F0FF00019077
:1019600050460199FFF732F955E000BF2168081D84
:101970002060D1F800905B460A2249465046CDE9E6
:101980000087FFF751F946E02168081D2060D1F873
:1019900000905B460A2249465046CDE9008702F096
:1019A0003BF938E000BF2168081D2060D1F80090A5
:1019B0005B46102249465046CDE9008702F02CF9DB
:1019C00029E02168081D2060086801903B464246D6
:1019D0005046019901F060FB1DE02168081D206060
:1019E000D1F8009030215046FFF7F0F878215046AA
:1019F000FFF7ECF8002008210B461022CDE900107B
:101A00004946504602F008F905E025215046FFF707
:101A1000DDF800E000BF00BF6D1C03E0314650461A
:101A2000FFF7D4F8287800287FF41AAF00BF9AF89F
:101A30000C0010B15046FFF7FCFE00BF0DE7F0B5FB
:101A4000DDE9054500BF4FF0A0473E4641EA4207A9
:101A500047EA830747EA042747EA054C06F5E067AB
:101A600047F820C0F0BDF0B5DDE9054500BF4FF0F7
:101A7000A0473E4641EA420747EA830747EA042770
:101A800047EA054C06F5E06747F820C0F0BDF0B521
:101A9000DDE9054500BF4FF0A0473E4641EA420759
:101AA00047EA830747EA042747EA054C06F5E0675B
:101AB00047F820C0F0BD1CB5044600200090034646
:101AC0000122014601902046FFF7CDFF1CBD1CB549
:101AD0000446002000900346012201460190204662
:101AE000FFF7D5FF1CBD7CB505460C4600200090D5
:101AF00023460246014601902846FFF7B4FF7CBD0D
:101B00007CB505460C46002000902346024601465F
:101B100001902846FFF7BBFF7CBD1CB504460020A2
:101B2000009003460122114601902046FFF79BFFDB
:101B30001CBD1CB50446002000900346012211463E
:101B400001902046FFF7A3FF1CBD00BF4FF0A0414E
:101B50000A46012303FA00F1C2F80C1500BF7047D2
:101B600000BF4FF0A0410A46012303FA00F1C2F87A
:101B7000081500BF704700BF4FF0A0410A4601237F
:101B800003FA00F1C2F8081500BF704700BF4FF01C
:101B9000A0410A46012303FA00F1C2F8081500BF6C
:101BA0007047000070B504460E46FEF77FFF0546FD
:101BB000681C08B9284670BDE8B2E168087100BF2A
:101BC0000C48D0F8100430B90A48C0F8104400207E
:101BD000E16808600BE00748D0F81004C0680068AE
:101BE000E16808600348D0F81004C0680460284623
:101BF000E1E700000C0300200121C2685171704729
:101C0000704710B5FEF7D6FB10BD704738B50446D7
:101C10000D4604484023044A29460090204600F01F
:101C200005F838BDC12E0000340100202DE9F04F29
:101C300093B082460E4617469846DDF870903046BF
:101C400000F0F1FB18210DA8FEF787FB0D97CDF8EA
:101C50003880CDF8489000252B46082207A9304649
:101C600000F0FEFB082509980A90BDF82000ADF8A9
:101C70002C00BDF82200ADF82E0000208DF83100B8
:101C8000079800F0030001281BD107984FEA902B1A
:101C90000798C0F3C2008DF830000798C0F3831492
:101CA000A2002B4601A9304600F0DAFB05EB8405C3
:101CB0000DA80AAB224601A90090584600F0F2FA9E
:101CC00027E0079800F00300022822D107984FEA86
:101CD000905B0798C0F3C2008DF8300000BFBBF1E5
:101CE000080F01D2584600E0082004462B46224641
:101CF00005A9304600F0B4FB2544ABEB040B0DAB5B
:101D00000AAA214605A800F015FABBF1000FE6D19A
:101D100000BF304600F095FB13B0BDE8F08F704770
:101D200010B50124204601F0E9FD10BD70B505464F
:101D30000A4C20780A49085C18B1201D00F03CFFCD
:101D400007E020780649085C18B904F10C0000F09F
:101D500057FE00BF002001F0D1FD70BD3000002013
:101D60001C00002038B504460D4604484023044AB0
:101D7000294600902046FFF759FF38BD452F000047
:101D80007401002010B502460B4C04EBC20301297C
:101D900006D0022906D0032906D0042908D105E07F
:101DA000022007E0042005E0187903E0587901E0FB
:101DB000002000BF00BF10BD2440000010B54FF050
:101DC000FF34FFF71EFF04210848FFF7EBFE04462F
:101DD0000648FFF711FFFFF7A3FF04210448FFF7B0
:101DE000E1FE04460248FFF707FF10BD0440000073
:101DF000144000002DE9F04F8BB0FEF7FDFE18B146
:101E000000200BB0BDE8F08F0020B549C1F81804E0
:101E100000BF00BF00BFBFF34F8F00BF00BF00BFB8
:101E2000084680680A90AF4804680A9820400C3140
:101E300001EB800A002500260020069000BF0AA9B9
:101E40005046FFF74DF8A8B1A548D0F8180488B956
:101E5000A34840680A99884205D8A1484068A0492B
:101E600088600020CDE70A9820409D490C3101EBA5
:101E7000800A00E000E0E2E700BF00270BE00A98DC
:101E8000411C20400A9196490C3151F8200007A9C5
:101E900041F827007F1C022FF1D3079800F00300C0
:101EA00002287CD10798800D059050210798B1EB4E
:101EB000905F02DD0798800D00E050208146079872
:101EC00069F39F50079009F1080004900798C0F348
:101ED000C20006908448049900F048FA0546002D97
:101EE0005BD0284600F09FFA3346082207A928460F
:101EF00000F0C7FA08360A982040611C081A4FEA19
:101F00008008C14535D9B8F1000F06D00A982040A5
:101F100073490C3101EB800001E071480C300390F3
:101F2000B8F1000F01D0404600E0484600F0FF0B3A
:101F3000B8F1000F02D06A480C3000E00020029097
:101F4000B8F1000F02D0A9EB080000E00020C0B2F9
:101F5000019033465A462846039900F092FA5E44AF
:101F6000029828B133462846DDE9012100F089FABC
:101F70000CE00A9820405A490C3101EB800B3346A3
:101F80004A465946284600F07CFA00BF0598C01C16
:101F90000A9901EB90000A9000BF44E0FFE7079820
:101FA00000F0030001283ED10798C0F383100628F3
:101FB00003DA0798C0F3831000E00620079960F366
:101FC000891107910798C0F3831000F10208079860
:101FD000C0F3C20006904FEA8801434800F0C6F9FA
:101FE0000546FDB1284600F01EFA3346082207A92F
:101FF000284600F046FA083600270EE00A98421CF0
:1020000020400A92364A0C3202EB80013346042209
:10201000284600F036FA361D7F1C0798C0F383105F
:10202000B842EBD800BFC5B32D48D0F81084D0F823
:10203000180418B1284600F004FA2DE019E04FF01A
:10204000000900BFD8F80C004079012800D1814672
:10205000B9F1000F08D000BFD8F800002946026887
:102060004046904700BF00BFD8F80C00D0F8008071
:1020700000BFB8F1000FE2D1284600F0E2F90020DD
:10208000FEF778FC1648D0F8180410B914490A98DD
:1020900088600020FEF773FC1DE0FFE71048D0F8D1
:1020A00010840AE0C146D9F8000081684846884794
:1020B00000BFD8F80C00D0F80080B8F1000FF1D1C3
:1020C0000A490B4A891AC908022242EA014009A1B9
:1020D00000F01AF800BFFEF78FFD80F0010090E6D7
:1020E0000C030020680000204C4000004440000029
:1020F000244000004261636B656E647320666C75FA
:10210000736865640000000070B504460D46002346
:102110001A462946204600F087FF70BDF8B50546EF
:102120000E461446009401236A463146284600F0C4
:102130007BFFF8BD2DE9F05F07460E4690461D4631
:10214000082E01D9BDE8F09F95F80C900020287367
:102150002946404600F01AFE00240CE0B44205D2A5
:102160003A5D1DA12846FFF74FFB03E01CA128465E
:10217000FFF74AFB641C082CF0D31AA12846FFF78E
:1021800043FB00241DE0B44216D217F804A0BAF1B4
:102190007E0F09DCFEF7C4F8006810F80A0000F0B2
:1021A0003E0008B1504600E02E2083465A460EA15C
:1021B0002846FFF729FB03E00CA12846FFF724FB84
:1021C000641C082CDFD301222946404600F0BAFDEA
:1021D00085F80C9000BFB5E720253032780000006C
:1021E000202020007C00000025630000200000006B
:1021F0002DE9F04106460F4600BF0020094908704E
:10220000094800F018F9044614B12046BDE8F081F1
:10221000064800F047F906480649401AC50800205C
:10222000F4E700000C0300204C400000A43E000036
:102230004C4000002440000002480349401AC008F6
:10224000704700004C4000002440000013B50C46CD
:1022500021466846FEF7AEFF28B90448009A00EB15
:10226000C20108681CBD0020FCE7000024400000FB
:1022700070B50B48D0F810440120094908700CE0F3
:1022800000BF0120E168487100BF25462868416809
:102290002846884700BFE0680468002CF0D170BD74
:1022A0000C0300202DE9FF4707460C4616469846CA
:1022B0000C9D95F80C90002028732946404600F0AC
:1022C00065FD072E47D2DFE806F004090F161F2A26
:1022D000370039462846FFF797FA3DE03946284649
:1022E0002268FFF791FA37E039462846D4E90023FF
:1022F000FFF78AFA30E0A068009039462846D4E912
:102300000023FFF781FA27E0D4E90201CDE90001BB
:1023100039462846D4E90023FFF776FA1CE0D4E9D1
:1023200002122069CDE90012029039462846D4E90C
:102330000023FFF769FA0FE0D4E90223D4E904107F
:10234000CDE90023CDE9021039462846D4E900231F
:10235000FFF75AFA00E000BF00BF002229464046BE
:1023600000F0F0FC85F80C90BDE8FF872DE9F84FF0
:1023700007468A46388AA0F104080AF1040040445E
:10238000401EB0FBF8F0C0B200903846FFF727F9C6
:10239000044614B90020BDE8F88F00202071012107
:1023A0006171A4F8068025460098A0F1010B2C4627
:1023B0002F604FF0000912E03846FFF710F906468B
:1023C00036B16079401C60712E603760354604E09C
:1023D000204600F008F80020DDE709F10109D945A1
:1023E000EAD32046D7E72DE9F05F0446274697F861
:1023F00005802646A8F1010B002501E036686D1C1A
:102400005D45FBD3D6F800A02646002507E0D6F8A8
:10241000009031465046FFF710F94E466D1C454579
:10242000F5D3BDE8F09F70B5044625460121281D6F
:10243000FFF79EF870BD10B504462046FFF718F967
:1024400010BDF8B5044626460121301DFFF7BCF843
:1024500000906D46287810B92046FFF7C4FFF8BDFC
:102460002DE9FC4105460E4614461F460194012005
:102470003B4601AA314600902846FEF735FEBDE8EE
:10248000FC812DE9FC4105460E4614461F46019489
:1024900000203B4601AA314600902846FEF724FE64
:1024A000BDE8FC81002182689160826811618268C8
:1024B00051618268D16082685160826811607047A2
:1024C0000621C0F8001570470146D1F8C404C1F8D0
:1024D000C40470470246505808B1012070470020DC
:1024E000FCE708B5002242504258009200BF08BDE8
:1024F000C0F808137047C0F804137047C0F83415CB
:102500004FF4A7631A507047014640F23C504058C0
:102510007047C0F800127047012242507047C0F85F
:1025200044154FF4A9631A507047014640F24C50CD
:10253000405870470146D1F88004C1F880047047C4
:102540000246505808B1012070470020FCE708B54A
:10255000002242504258009200BF08BDC0F8081542
:10256000C0F810257047C0F808137047C0F804136E
:1025700070470246D2F80403084008B101207047B2
:102580000020FCE7012242507047C0F81425C0F833
:102590000C1570470146D1F88004C1F880047047DB
:1025A0000246505808B1012070470020FCE708B5EA
:1025B000002242504258009200BF08BDC0F80815E2
:1025C0004FF4A2631A507047C0F808137047C0F860
:1025D00004137047014640F23C5040587047D0F811
:1025E00000228A43C0F800227047012242507047FF
:1025F000014640F24C504058704740F20C5319507D
:1026000040F214531A50704770B5044604B970BDB7
:10261000024EA5012846B04700BFF8E7A13D0000E3
:102620000146080B40B270470146080B40B27047A4
:102630000146080B40B27047014601F06040B0F11E
:10264000005F01D1012070470020FCE7014601F046
:102650006040B0F1005F01D1012070470020FCE72D
:102660002DE9F04107460E46384600F0E1FB0446EE
:10267000BCB14FF000080020FEF77CF9207910B1C2
:102680004FF0010802E02660012020710020FEF7D3
:1026900076F9B8F1000F03D011252846BDE8F08186
:1026A00000BF00252846F9E770B50546284600F02A
:1026B000BFFB044614B100202060207170BD0000F3
:1026C00070B50446207900EB800101EBC00005499C
:1026D00001EB80052068FFF7F3FE022085F82D004E
:1026E00070BD0000B00000202DE9FF4F83B006460A
:1026F0000D469246307900EB800101EBC000404965
:1027000001EB800494F82D0028B14FF008084046F2
:1027100007B0BDE8F08F32793A4B53F82210306899
:10272000FFF79EFF18B14FF011084046F0E7C4F8DC
:1027300000A0069860600020A06084F8300084F853
:102740002F00687B84F8320000200621CDE90010BC
:102750000323002211462868FFF771F900200621A3
:10276000CDE900100323002211466868FFF767F9DE
:102770003768D5E90001C7F8080540F20C52D1517D
:1027800000BFA868C7F8240500BF206888B3306878
:10279000FFF746FF814695F80CB048465946002899
:1027A00004DB4A07130E184A135408E04A074FEA9D
:1027B000126C164A00F00F031B1F02F803C000BF83
:1027C00000BF3068FFF72CFF8146484600280DDB2C
:1027D00000BF00BF00F01F0201219140420992009A
:1027E00002F1E022C2F8001100BF00BF00BF00BF2D
:1027F00000BF012084F82D004FF00008404687E715
:10280000B0000020B83D000000E400E018ED00E05A
:10281000F0B585B007460C4615461E4614220749FA
:102820006846FDF781FD8DF8014001960395002271
:102830006946384600F024F805B0F0BDD83D0000E8
:102840002DE9F04186B007460C4615461E46DDF8D8
:102850003080142101A8FDF780FD8DF80540029617
:102860000495B8F1000F01D0202000E000200246BE
:1028700001A9384600F004F806B0BDE8F081000078
:102880002DE9F04104460D46164600BF207900EBC5
:10289000800101EBC000064901EB800833462A465F
:1028A0004046216800F022FE07463846BDE8F08128
:1028B000B000002010B50249024801F04FF810BDE9
:1028C000E4000020002000402DE9F04105460E46BE
:1028D0001746287900EB400101EBC0001A4901EBD3
:1028E00080044FF0000894F82A0020B14FF0080847
:1028F0004046BDE8F0812A79144B53F8221028682D
:10290000FFF7AEFE18B14FF011084046F1E731462F
:102910002846FEF74FF8676030692060606818B19C
:10292000317F2846FEF738FA28680421C0F80015E0
:1029300000BF0020A061E06184F8290060610120EF
:1029400084F82A004046D4E7E4000020FC3D000063
:102950002DE9F04104460F469046207900EB4001F6
:1029600001EBC0001C4901EB8005204600F036F861
:1029700018B111263046BDE8F081C5F81480AF606B
:102980000020286285F8280000264FF48E71206808
:10299000FFF7DDFD08212068FFF7F4FD29462068D8
:1029A00000F057FF6868A0B92946206800F036FF9C
:1029B00008B90F260BE000BF4FF48E712068FFF7B7
:1029C000BFFD0028F8D00C212068FFF7DBFD0020B8
:1029D00068613046CFE70000E40000200146087936
:1029E00000EB400202EBC000044A02EB80004069A9
:1029F00008B1012070470020FCE70000E40000203F
:102A000070B50446207900EB400101EBC0000C4991
:102A100001EB800520680021C0F8001500BF686840
:102A200010B12046FEF760F9204600F00FF920684B
:102A3000FFF73AFE002085F82A00686070BD0000AC
:102A4000E400002010B50249024801F04BF810BD27
:102A500010010020002000402DE9F04105460E46FF
:102A60001746287900EBC000194901EB80044FF0AC
:102A7000000894F8200020B14FF008084046BDE857
:102A8000F0812A79134B53F822102868FFF7E8FDEC
:102A900018B14FF011084046F1E731462846FDF7DE
:102AA000C7FF676030692060606818B1317F2846D1
:102AB000FEF7BCF928680821C0F8001500BF002007
:102AC000A061E0616061012084F820004046D6E703
:102AD000100100202C3E00002DE9F04704468846F6
:102AE0009146207900EBC0002A4901EB8005404661
:102AF000FFF7ACFD18B910263046BDE8F087204638
:102B000000F04AF810B111263046F6E7C5F81490E7
:102B1000C5F8088000264FF490712068FFF747FD44
:102B20004FF4AC712068FFF742FD20686A69A9681C
:102B3000C0F844154FF4A9631A5000BF082120685B
:102B4000FFF753FD686818BB00BF4FF49071206811
:102B5000FFF726FD82464FF4AC712068FFF720FD99
:102B60000746BAF1000F01D1002FEED00FB10F26AA
:102B70000BE00C212068FFF738FD00BF4FF4AC716B
:102B80002068FFF70DFD0028F8D00020686100BF25
:102B90003046B2E7100100200146087900EBC00082
:102BA000044A02EB8000406908B101207047002010
:102BB000FCE700001001002070B50546287900EB05
:102BC000C000214901EB80042E68606810B12846DE
:102BD000FEF7B6F820213046FFF701FDA06940B1AD
:102BE0004FF4A2713046FFF7E2FC04213046FFF7B4
:102BF000FCFC4FF4AC713046FFF7D9FC0C21304699
:102C0000FFF7F3FC00BF4FF4AC713046FFF7C8FC90
:102C10000028F8D0A06930B14FF4A2713046FFF718
:102C2000BFFC0028EFD000BF0020C6F8000500BFA1
:102C3000284600F047F83046FFF736FD002084F8BC
:102C40002000606070BD0000100100202DE9F047F9
:102C500004462068D0F80C150D462068D0F81415ED
:102C60000E462068D0F808150F462068D0F81015D9
:102C70008846D4F800904FF0FF3211464846FFF7DF
:102C800084FC00BFD4F800904FF0FF321146484654
:102C9000FFF764FC00BF681C10B12846FEF70BFF6D
:102CA000701C10B13046FEF706FF08F1010010B1AC
:102CB0004046FEF700FF781C10B13846FEF7FBFED9
:102CC000BDE8F0872DE9F0470446206840F20C513A
:102CD00009580D46206840F2145109580E462068E4
:102CE000D0F808150F4620684FF4A26109588846AD
:102CF000D4F800904FF0FF3211464846FFF77DFCB4
:102D000000BFD4F800904FF0FF3211464846FFF75D
:102D100055FC00BF681C10B12846FEF7D8FE701C99
:102D200010B13046FEF7D3FE08F1010010B1404665
:102D3000FEF7CDFE781C10B13846FEF7C8FEBDE8A0
:102D4000F087000070B504460D461646207A052827
:102D50000CD0607A28B10A480AA102682846FEF71A
:102D600053FD09A12846FEF74FFD04E01EB106A160
:102D70002846FEF749FD2846FEF75BFD70BD0000C2
:102D800080000020257300000D0A0000F8B50446FD
:102D90000D46E08838B116A00090E38816A218A16D
:102DA0002846FEF731FD207A05281FD0607A58B1F9
:102DB000217AA088FEF7E6FF174951F820603246D5
:102DC00016A12846FEF720FD2846216800F09EF94E
:102DD000A0880021FFF73AFA0646207A104951F8F8
:102DE000202033460FA12846FEF70EFDF8BD000057
:102DF0001B5B306D000000001B5B313B33316D000D
:102E000025734C6F67732064726F7070656420283F
:102E100025642925730D0A00800000202573000019
:102E20006C0000203C25733E2025733A20000000F2
:102E300001460348814201D1024870470020FCE767
:102E4000002000402000002070B505460C46A06917
:102E500040B94FF484712846FFF779FB00BFD5F8DD
:102E6000180570BD4FF484712846FFF770FB00BF52
:102E7000D5F81805C0B2626AE1688854606A401CDF
:102E8000606200BFEDE77FB504460D46164601209F
:102E90008DF80000029501966846D4E9001290472B
:102EA0007FBD7FB504460D46164601208DF8000013
:102EB000029501966846D4E9001290477FBD000054
:102EC0002DE9F84F88461546002D35D04FF0000902
:102ED0000320009000BF08EB09012A460020FDF7FF
:102EE0006DFA0446A1442D1BFCB91448007800B9C2
:102EF00020E0012606B90FE000BF4FF47A7707B94A
:102F000006E0DFF83CA04FEA871B5846D04700BFD9
:102F1000701E061EF1D100BF0098401E0090009860
:102F200018B900200549087004E001200349087021
:102F3000002DD0D100BF00BFBDE8F88F2C000020CD
:102F4000713E00002DE9F05F0E46174607F0FF0ABC
:102F5000002018490870184CB046D14683462078A6
:102F60001649085C30B14A464146201DFFF7B4FDC2
:102F700083460AE020781149085C30B94A46414648
:102F800004F10C00FFF7E4FC83465D4600BF00BF80
:102F90002C4624B100BF2046FDF7DEFC00BF00BF79
:102FA00000BF0748007818B1024800780028F8D020
:102FB000BDE8F09F44000020300000201C000020ED
:102FC000450000202DE9F05F05460E4690461F465D
:102FD000DDF828904FEA154AFDF71AFE83464AEAC3
:102FE0000B42781C00EA09000E4941F8202007EA4C
:102FF000090001EB8004206865F3C50020602068AB
:1030000068F389102060206866F39F2020602068A4
:1030100020F00300401C2060206820F004002060A5
:10302000BDE8F09F180300202DE9FC478046894643
:1030300016461C4616480768012201A92046FDF7DE
:1030400053FDC0B1019800F1020A002509E056F8CD
:10305000252050460AF1010A38400E4941F8202047
:103060006D1CA542F3D30097224649464046019B7A
:10307000FFF7A8FF00BF07480C38007830B100BF49
:1030800000BFFEF7B7FE0028FBD100BFBDE8FC87FC
:1030900068000020180300202DE9F04781460C4607
:1030A00015469846002608F00100A0B105E0641C12
:1030B000761C39464846FDF789FD2778002FF6D162
:1030C00004E06D1E20214846FDF780FDB5421BD966
:1030D000002DF6D118E01CB12046FDF749F906464F
:1030E00004E06D1E20214846FDF770FDB54201D970
:1030F000002DF6D105E0641C761C39464846FDF7E4
:1031000065FD2778002FF6D1BDE8F08770470000F5
:1031100070B5044640F20C612248226840F8221043
:10312000626840F822102068FEF71AFD6068FEF71A
:1031300017FD40F20D611B48226840F822106268BA
:1031400040F822100420FFF75FFA00251BE06068BA
:1031500000BF4FF0A042114600BFD1F81025C24079
:1031600002F0010212B105B970BD0EE02068FEF751
:10317000ECFC0420FFF748FA2068FEF7F1FC04207D
:10318000FFF742FA6D1C092DE1DB00BF6068FEF716
:10319000DCFC0420FFF738FA6068FEF7E1FC00BFB2
:1031A000E2E700000007005070B504460E462078A4
:1031B00020B1012818D002282CD120E02079012844
:1031C0000ED1164805781649164A891AC9080322ED
:1031D00042EA01402A4614A1FEF7A0FF00BF00BF4B
:1031E00001201449087016E00D490E4A891AC908D1
:1031F000032242EA014010A1FEF786FF0BE00849D6
:10320000084A891AC908032242EA01400EA1FEF7C2
:103210007BFF00E000BF00BF70BD00000100002088
:103220004440000024400000446174613A2030783A
:1032300025780000000000204164647265737320EB
:103240004E41434B0000000044617461204E4143F5
:103250004B0000007FB50D4B0FCB8DE80F00002316
:103260000B4A69460B48FEF739FA044600BF25466B
:1032700025B100BF2846FDF76FFB00BF00BF054D1D
:10328000281DFFF71DFA00BF7FBD0000883D00002C
:10329000A9310000703D00000146032001F0010249
:1032A0000AB14FF4024001F002020AB148F20120D3
:1032B00001F004020AB148F2022070477FB50446CB
:1032C0000D462E4620788DF8000020798DF80400F8
:1032D00061798DF80510217A8DF80610217B8DF823
:1032E00007102169029161690391044850F8261082
:1032F000034850F82620684690477FBD0C00002008
:1033000004000020F0B587B006460C464FF49271D9
:103310003046FFF7DFF860B34FF492713046FFF7A5
:10332000E0F84FF482713046FFF7D4F808BBA1688B
:103330003046FFF7DDF80220A060A1683046FFF7B5
:10334000DAF84FF4B0713046FFF7C4F820B1D6F880
:10335000000200F4007038B920213046FFF7DCF895
:1033600014213046FFF7D8F8012084F82E0007B06A
:10337000F0BD4FF482713046FFF7ACF8002842D020
:103380004FF482713046FFF7ACF894F8200000F05B
:10339000400050B994F82E0038B92146304600F06C
:1033A00097FC80F0010084F82E0094F8200000F0D3
:1033B0000400002861D1142204F10C0102A8FCF7DA
:1033C000B3FF4FF4B0713046FFF78BF84FF4AE7196
:1033D0003046FFF786F894F8300018B194F82E00C4
:1033E00000284AD000213046FFF793F80020A06063
:1033F0003D493046FFF77CF83046FFF711F90746A4
:10340000FDF7CAF939E04FF4A4713046FFF769F8C7
:10341000207BC8B9142204F10C0102A8FCF784FF38
:1034200094F8300048BB00213046FFF772F80020C6
:10343000A0602D493046FFF75BF83046FFF7F0F803
:103440000746FDF7A9F918E04FF400713046FFF781
:1034500060F840F20220A06023493046FFF748F8A8
:10346000A1683046FFF747F808213046FFF754F8C7
:1034700020213046FFF750F879E73046FFF724F86F
:10348000054605F0020018B101208DF8040017E090
:1034900005F0040018B102208DF8040010E005F0DA
:1034A000010018B103208DF8040009E094F82E0003
:1034B00018B104208DF8040002E000208DF804000B
:1034C00094F8300010B9002084F82F0094F8200000
:1034D00000F0040010B194F82E0018B101A8D4E94E
:1034E0000021904700BF42E702029C012DE9FC5FEA
:1034F00004460F4615461E464FF00009082001906D
:10350000002084F82E00E868FFF796F820B94FF005
:1035100010094846BDE8FC9FBF493846FEF7E8FF62
:1035200094F82F0038B1A1683846FEF7E4FF4FF059
:1035300011094846EEE706F0040020B906F0100035
:1035400008B9012000E0002084F82F001422294649
:1035500004F10C00FCF7E8FEC6F3001084F830001C
:1035600026626878C7F8880500BF4FF48271384634
:10357000FEF7B7FF4FF492713846FEF7B2FF4FF4F3
:10358000B0713846FEF7ADFF4FF4A4713846FEF730
:10359000A8FF3846314601F0010232B100BF0123D5
:1035A0004FF4AA62135000BF06E000BF00234FF49F
:1035B000AA62135000BF00BF01F0020232B100BF87
:1035C00001234FF4A862135000BF06E000BF0023A0
:1035D0004FF4A862135000BF00BF00BF2878002836
:1035E00058D0012875D0022836D0032870D1286918
:1035F000FFF722F818B94FF0100948468AE74FF450
:1036000080713846FEF785FF38466A68E968FEF73C
:1036100086FF4FF4A8713846FEF763FF2021384635
:10362000FEF77AFF08213846FEF776FF00BF4FF419
:10363000A8713846FEF74EFF0028F8D04FF4A87165
:103640003846FEF74EFF3846AA682969FEF767FF3D
:103650004FF48020A06052E038466A68E968FEF7BF
:103660005EFF2869FEF7E8FF18B94FF010094846D9
:1036700050E73846AA682969FEF740FF4FF48451A5
:103680003846FEF746FF0220A06020213846FEF7AC
:1036900043FF34E038466A68E968FEF740FF06F009
:1036A000200040B14FF480713846FEF732FF4FF4EE
:1036B0008020A06006E04FF400713846FEF729FF35
:1036C0000220A06020213846FEF726FF17E000E028
:1036D00012E038466A68E968FEF710FF4FF480513F
:1036E0003846FEF716FF0220A0600020019020213E
:1036F0003846FEF711FF02E04FF0070900BF00BF98
:1037000006F0080030B92878032803D0384601991C
:10371000FEF702FF2068A0B106F0040008B1002007
:10372000A06006F0400018B9A06840F00200A06058
:10373000A06840F40070A060A1683846FEF7DBFE88
:1037400067E00020009000BF4FF4A4713846FEF7F8
:10375000C1FE08B1012000904FF482713846FEF797
:10376000B9FE30B14FF482713846FEF7BAFE01203F
:1037700000904FF492713846FEF7ACFE60B34FF400
:1037800092713846FEF7ADFE4FF4B0713846FEF741
:10379000A1FE824600BFD7F800028346BAF1000FAF
:1037A00002D00BF4007048B920213846FEF7B4FE71
:1037B00014213846FEF7B0FE00200090BAF1000F49
:1037C00009D00BF4807030B14FF4A4713846FEF785
:1037D00088FE0020009000BF00980028B4D0384632
:1037E000FEF772FE8046002084F82F00B8F1000F2B
:1037F00004D04046FFF750FD814609E006F0400046
:1038000030B92146384600F063FA08B94FF0030991
:1038100000BF48467EE6000002029C0170B50546E6
:103820000C46666910E004E094F8280008B1002016
:1038300070BD4FF48E712846FEF782FE0028F3D04B
:103840002146284600F005F8206AB042EBD301205B
:10385000EEE770B505460C464FF48E712846FEF72C
:1038600076FE216AA068465C206A401C20623046D1
:10387000C5F81C0500BF70BD7FB504460D4600208D
:103880008DF800000295A0680190002060616846F4
:10389000D4E9001290477FBD7FB504460D46002055
:1038A0008DF800000295A0680190002060616846D4
:1038B000D4E9001290477FBD7FB504460D462E46E1
:1038C00020788DF8000060680190217A8DF808104A
:1038D000E1680391044850F82610044850F8262067
:1038E000684690477FBD00001800002014000020AB
:1038F0000122014B1A7070474400002070B588B057
:103900000546202211496846FCF70EFD062000906E
:10391000C01F0190029003904FF0EB7006900DB124
:103920000B4800E00020024669460A48FDF726FFE2
:10393000044600BF264626B100BF3046FDF70CF80E
:1039400000BF00BF0448057008B070BD843E000091
:10395000F138000030000020450000202DE9FF4133
:1039600005460C464FF400712846FEF702FE48B3A8
:103970004FF492712846FEF7E3FD18B34FF49271AD
:103980002846FEF7E4FD4FF401712846FEF7EBFDF3
:1039900094F8290018B904212846FEF7F3FD022007
:1039A0008DF800002846FEF7C5FD0390A16902913D
:1039B000E06801900020A061E0616846D4E900124F
:1039C000904737E004212846FEF7D3FD002831D088
:1039D0004FF484712846FEF7B3FD58B321462846BC
:1039E000FFF732FA616AA069884223D1E06970B1B9
:1039F000E668676AE069A0612069E0600020E06134
:103A00006062324639462046FFF73DFA12E094F8EC
:103A1000290018B904212846FEF7B4FD4FF40171BE
:103A20002846FEF7A0FD0020A061E268616A2046FA
:103A3000FFF729FA4FF48E712846FEF781FDB8B1E1
:103A40006669206AB04207D294F8280020B921465E
:103A50002846FFF7FEFE0AE04FF48E712846FEF777
:103A600076FD606918B161692046FFF705FF00BF68
:103A70004FF4A2712846FEF763FDA0B14FF4A27186
:103A80002846FEF764FD94F8290018B10021284665
:103A9000FEF778FDA06930B10020A061E268616A9C
:103AA0002046FFF7F0F9BDE8FF8100007FB504462E
:103AB0000D462E4620788DF8000060680190217A2E
:103AC0008DF80810E1680391044850F82610044866
:103AD00050F82620684690477FBD0000180000205F
:103AE000140000202DE9FF4106460C464FF4927168
:103AF0003046FEF755FDC8B14FF492713046FEF7DF
:103B000056FD02208DF800003046FEF743FD03907D
:103B10003046FEF75FFD0290E06801900020A06152
:103B2000E0616846D4E9001290472CE04FF48871B8
:103B30003046FEF735FD30B34FF488713046FEF75E
:103B400036FD3046FEF746FD0546A069A84219D16C
:103B5000E06980B1E76820213046FEF740FDE0696A
:103B6000A0612069E0600020E0613A4629462046D5
:103B7000FFF797F906E00020A06129462046E26899
:103B8000FFF78FF900BF4FF4A2713046FEF708FD32
:103B900090B14FF4A2713046FEF709FDA06958B10B
:103BA0000020A061E0613046FEF714FD054629467D
:103BB0002046E268FFF775F94FF490713046FEF742
:103BC000EFFC90B14FF490713046FEF7F0FC0C2101
:103BD0003046FEF70AFD606938B13046FEF708FD51
:103BE000054629462046FFF757FE4FF4AC71304694
:103BF000FEF7D6FC70B14FF4AC713046FEF7D7FC3F
:103C0000606938B13046FEF7F3FC05462946204688
:103C1000FFF742FEBDE8FF812DE9FF4F81B08846E6
:103C200016461F46DDE90E4B45464FF0010A03E0FC
:103C3000B5FBF6F50AF1010AB542F9D2574500D9AC
:103C4000BA460BF0010098B994B10BF002000228BB
:103C500003D117B93020009001E02020009004E04B
:103C6000641EDDE90010FCF7B1FF0CB1A245F7D3EB
:103C7000012509E0012F01D97F1E04E0B8FBF5F909
:103C8000B14500D201E07543F4E700BF00BFB8FBC7
:103C9000F5F909FB15880D4810F809100198FCF793
:103CA00095FFB5FBF6F5002DF1D10BF0010048B101
:103CB00044B104E0641E20210198FCF787FF0CB199
:103CC000A245F7D305B0BDE8F08F00004C3E0000E0
:103CD00070B505460C460126207B48B301282FD03D
:103CE000022817D0032833D1A06800F4802028B11F
:103CF0002846FEF71AFC2169884209D1A06800F421
:103D0000802030B92846FEF710FC6169884200D057
:103D100000261EE02846FEF708FC2169884205D1EE
:103D20002846FEF7F1FB6169884200D0002610E0CA
:103D30002846FEF7FAFB2169884200D0002608E0F9
:103D40002846FEF7E1FB2169884200D0002600E00A
:103D500000BF00BF56B900BF0020C5F8000500BF76
:103D600000BF0620C5F8000500BF00BF304670BD8B
:103D700000000000003000400000000001000000D2
:103D80000338FDD8704700001B0000001A00000037
:103D900000006806020000000000000000000000B3
:103DA0000338FDD8704700006E7266785F747769DB
:103DB0006D5F696E69740000410400007477696D7D
:103DC0005F78666572006E7266785F7477696D5FA2
:103DD000786665720000000001000000000000002D
:103DE0000000000000000000000000006E72667815
:103DF0005F756172745F696E69740000B5280000B8
:103E00006E7266785F756172745F7478006E726648
:103E1000785F756172745F72780000006E72667808
:103E20005F75617274655F696E697400452A000090
:103E30006E7266785F75617274655F7478006E7219
:103E400066785F75617274655F7278003031323305
:103E50003435363738394142434445460000000086
:103E60000D1C00000B1C0000011C000000000000E5
:103E70000338FDD870470000651D00002D1D0000AF
:103E80001F1D0000FFFFFFFFFFFFFFFFFFFFFFFF02
:103E9000FFFFFFFF00000000000000000000D6014F
:103EA00006010000740200207F000000F4020020E0
:103EB000004040404040404040404141414141403D
:103EC00040404040404040404040404040404040F2
:103ED0004005020202020202020202020202020281
:103EE0000220202020202020202020020202020286
:103EF00002029090909090901010101010101010DE
:103F000010101010101010101010101002020202E9
:103F1000020288888888888808080808080808082D
:103F20000808080808080808080808080202020229
:103F300040000000B13E00007761726E696E67005C
:103F400064656275670000001B5B313B33306D00B8
:103F50001B5B306D000000001B5B313B33316D009B
:103F60001B5B313B33326D001B5B313B33336D00E8
:103F70001B5B313B33346D001B5B313B33356D00D4
:103F80001B5B313B33366D001B5B313B33376D00C0
:103F9000696E666F000000006572726F720000004B
:103FA000505253005457494D00000000554152549F
:103FB0000000000055415254450000007274745FC7
:103FC0006C6F675F6261636B656E640075617274CC
:103FD0005F6C6F675F6261636B656E640000000019
:103FE000617070006040000000000020B000000020
:103FF0007A08000010410000B000002008290000ED
:104000008A080000603E000000000000BC3F000085
:1040100048000020783E000000000000CC3F000077
:1040200050000020A03F000000000000A43F00005E
:1040300000000000AC3F000000000000B43F0000A2
:1040400000000000E03F00000000030360000020CB
:104050005800002060000020B4010020180000007B
:104060000000000000000000000000000000000050
:104070000000000000000000000000000000000040
:104080000000000000000000000000000000000030
:104090000000000000200040000000000020004060
:1040A000000000000000000000000000FF00000011
:1040B00000000000FF000000000000000000000001
:1040C0000000000000000000FF00000000000000F1
:1040D000983F0000383F0000903F0000403F000044
:1040E000503F0000483F0000583F0000603F000084
:1040F000683F0000703F0000783F0000803F0000F4
:10410000883F000000000000000000000090D00385
:0400000500000201F4
:00000001FF
