:020000040000FA
:10000000F0830020FD02000005030000070300004C
:10001000090300000B0300000D03000000000000B6
:100020000000000000000000000000000F030000BE
:10003000110300000000000013030000150300007E
:1000400017030000170300004508000071050000B9
:100050001703000017030000290400001703000025
:100060002D0800001703000017030000170300000D
:100070001703000017030000170300001703000018
:100080001703000017030000170300001703000008
:1000900017030000170300001703000017030000F8
:1000A00017030000170300001703000017030000E8
:1000B000170300001703000000000000000000000C
:1000C00017030000170300001703000017030000C8
:1000D00017030000170300001703000000000000D2
:1000E0000000000000000000000000000000000010
:1000F0000000000000000000000000000000000000
:1001000000000000000000000000000000000000EF
:1001100000000000000000000000000000000000DF
:1001200000000000000000000000000000000000CF
:1001300000000000000000000000000000000000BF
:1001400000000000000000000000000000000000AF
:10015000000000000000000000000000000000009F
:10016000000000000000000000000000000000008F
:10017000000000000000000000000000000000007F
:10018000000000000000000000000000000000006F
:10019000000000000000000000000000000000005F
:1001A000000000000000000000000000000000004F
:1001B000000000000000000000000000000000003F
:1001C000000000000000000000000000000000002F
:1001D000000000000000000000000000000000001F
:1001E000000000000000000000000000000000000F
:1001F00000000000000000000000000000000000FF
:10020000DFF810D000F0D2F800480047F5150000E4
:10021000AFF30080F083002030B4044654E8000FB0
:100220000D4644E80053002BF8D1156030BC7047F0
:1002300030B4044654E8000F40EA010544E8005396
:10024000002BF7D1156030BC704730B4044654E839
:10025000000F00EA010544E80053002BF7D11560B8
:1002600030BC704730B4044654E8000F80EA010502
:1002700044E80053002BF7D1156030BC704730B410
:10028000044654E8000F00EB010544E80053002B3E
:10029000F7D1156030BC704730B4044654E8000F05
:1002A000A0EB010544E80053002BF7D1156030BCEA
:1002B000704770B404464FF0000054E8006F0D68BA
:1002C000AE4207BF44E80023012044E800630E600B
:1002D000002B1CBF0020F0E770BC704730B4044610
:1002E00054E8000F88422CBF451A054644E80053E5
:1002F000002BF5D1156030BC7047000006488047E0
:1003000006480047FEE7FEE7FEE7FEE7FEE7FEE7FA
:10031000FEE7FEE7FEE7FEE79505000001020000AC
:1003200000487047C44E000010B5431A934209D2EA
:100330008318881803E010F8011D03F8011D521EF0
:10034000F9D210BD40EA01039B0703D009E008C9B8
:10035000121F08C0042AFAD203E011F8013B00F88A
:10036000013B521EF9D210BDD2B201E000F8012BC0
:10037000491EFBD270470022F6E710B513460A4625
:1003800004461946FFF7F0FF204610BD421C10F846
:10039000011B0029FBD1801A7047034611F8012B7D
:1003A00000F8012B002AF9D118467047064C074D7A
:1003B00006E0E06840F0010394E807009847103435
:1003C000AC42F6D3FFF720FF7C5A00009C5A000095
:1003D00070B58C1810F8015B15F0070301D110F807
:1003E000013B2A1106D110F8012B03E010F8016B34
:1003F00001F8016B5B1EF9D12B0705D40023521EB7
:100400000DD401F8013BFAE710F8013BCB1A921C1E
:1004100003E013F8015B01F8015B521EF9D5A1421C
:10042000D8D3002070BD00002DE9F84F0026002031
:1004300000904FF480770125002410E0384601F049
:1004400057FF40B100BF25480068284018B1384622
:1004500001F040FF2E436D00381D87B2641C082C4C
:10046000ECD34FF4BE7001F043FF50B14FF4BE70B7
:1004700001F030FF46F000466A460121002001F0FD
:10048000D5FEF0B210B3012500241DE005EA0600F8
:10049000C0B100BF124850F82400C0F304208146C8
:1004A00000BF0F4850F82400C0F3014082462046A8
:1004B00000F0ECFC8046B8F1000F02D051464846EF
:1004C000C04700BF6D00641C082CDFD306F000405D
:1004D00010B1684603F080F9BDE8F88F046300406E
:1004E0001065004010B500F0B5F910BD2DE9F047DA
:1004F000074688461646C24607EB47011B4800EBF5
:10050000C109D9F8140020B1012811D0022826D140
:100510001EE0484600F0D6F90546B54201D2002457
:1005200005E0344632465146484600F024FA18E0C9
:10053000484600F0C7F90546B54201D2284600E01A
:100540003046044622465146484600F014FA08E078
:1005500032465146484600F0D5F9044601E00024F1
:1005600000BF00BF2046BDE8F087000080410020AA
:1005700010B50249024803F059FE10BD943A00201C
:100580000030004001480249086070470090D003E5
:10059000883A002010B501F0E7F928B192480088A8
:1005A000C0F304209149086001F03AFA10B1904874
:1005B0009049486701F074FA30B18B48E038006820
:1005C000C0F342308C49086001F098FA28B18B489A
:1005D000006820F080708949086001F0AFFA48B1E6
:1005E0000020874908604FF08041C1F8100182491E
:1005F000091F086001F0D0FA18B103207E49643168
:10060000086001F0E9FA68B105207E490860012020
:100610007C497831086000207A49083108603F2021
:10062000091F086001F0F8FA002855D06E48E03044
:100630000068754908606C48E4300068091D08606E
:100640006948E8300068091D08606748EC300068B8
:10065000091D08606448F0300068091D08606248A0
:10066000F4300068091D08605F48F830006866498A
:10067000203108605C48FC300068091D0860634850
:100680000068091D08606148001D0068091D0860B8
:100690005E4808300068091D08605C480C3000683E
:1006A000091D0860594810300068574940310860FA
:1006B000564814300068091D086054481830006816
:1006C000091D086051481C300068091D08604F482A
:1006D00020300068091D086001F018F930B1424867
:1006E000CC38006800F04F004949086001F06AF911
:1006F00040B14848006800F0010018B16FF00100F7
:100700004449086001F0ACF928B14348006840F45E
:1007100080604149086039487438006840F47000CE
:1007200036497439086000BF00BF00BFBFF34F8F68
:1007300000BF00BF00BF00BF00BF00BFBFF36F8F8F
:1007400000BF00BF00BF3548006800F0004028B976
:100750003248001D006800F00040E8B30120304935
:10076000086000BF2F4800680028FBD015202B49E7
:10077000086000BF2B4800680028FBD015212748DF
:10078000001D016000BF274800680028FBD0002042
:100790002349086000BF234800680028FBD000BF41
:1007A00000BF00BF00BF00BFBFF34F8F00BF00BF3F
:1007B00000BF1248F038006800F4E0601A490843AE
:1007C000001D0E49F039086000BF00BF00BFBFF335
:1007D0004F8F00BF00BF00E003E000BF00BF00BFBD
:1007E000FDE7FFF7CFFE10BD2403001040350140A8
:1007F0000DF0ADBA00C007403C050040FCED00E044
:100800000C0100401056004020C500402404001098
:10081000E40E0040000400403C17004000120010AD
:1008200004E5014000E401400000FA0510B504228F
:100830000249034800F037FE10BD0000643B002071
:100840000080004010B502490868804710BD0000D4
:10085000EC37002010B5124C02202061606111A01D
:10086000A0611349E1614FF4007121620021A1628E
:100870006162E1620BA0A0640E49E1641021216570
:100880000021A1656165E1650BA1E01DFFF785FD14
:100890000AA12046FFF781FD2020A07110BD0000B5
:1008A000684100205465726D696E616C0000000043
:1008B000E0410020E0430020525454005345474794
:1008C0004552000010B501460A69CB689A4204D827
:1008D0008C68641EE41AA01801E0D41A601E10BDD2
:1008E00010B501460846002807DB00F01F0301226F
:1008F0009A40034B440943F8242000BF10BD000078
:1009000080E200E02DE9F0470446894617464FF0A3
:10091000000AE56800BFD4F81080A84503D9A8EB09
:100920000500461E04E0A5EB0800401CA1680E1A55
:10093000A068401BB04201D9304601E0A068401BCE
:100940000646BE4201D2304600E03846064661689F
:10095000481932464946FFF7E7FCB244B144BF1B91
:100960003544A068A84200D10025E560002FD2D10F
:100970005046BDE8F0872DE9F04704468946154604
:10098000E668A068871BAF4208D9616888192A46C3
:100990004946FFF7C9FC7019E06010E0B84661688D
:1009A000881942464946FFF7BFFCA5EB070809EB4B
:1009B000070142466068FFF7B7FCC4F80C80BDE849
:1009C000F08702E008C8121F08C1002AFAD1704758
:1009D0007047002001E001C1121F002AFBD17047BF
:1009E0000146881D0D2820D2DFE800F01D1B1917D5
:1009F00015131F07090B0D0F11000DA0704711A053
:100A0000FCE714A0FAE717A0F8E71BA0F6E71DA083
:100A1000F4E71FA0F2E722A0F0E724A0EEE726A06B
:100A2000ECE729A0EAE72BA0E8E72DA0E6E7000025
:100A3000424547494E20494E5F56454849434C453B
:100A400000000000424547494E2057414C4B494E5B
:100A500047000000424547494E2052554E4E494EF0
:100A600047000000424547494E204F4E5F424943F0
:100A700059434C4500000000424547494E20544927
:100A80004C540000424547494E205354494C4C00B9
:100A9000454E4420494E5F56454849434C45000069
:100AA000454E442057414C4B494E4700454E44204B
:100AB00052554E4E494E4700454E44204F4E5F42E0
:100AC000494359434C450000454E442054494C5439
:100AD00000000000454E44205354494C4C00000097
:100AE000756E6B6E6F776E20616374697669747969
:100AF0002100000010B572B600BF01F071FF00BF09
:100B000000BF01F02FFD0028FBD100BF00BF1E4930
:100B10001E4A891AC908012242EA01401CA101F0BB
:100B2000ABFE00BF1D48006800F0010000B100BE30
:100B300000BF1549154A891AC908022242EA014034
:100B400017A101F099FE00BF00BF00BF00BF00BFAA
:100B5000BFF34F8F00BF00BF00BF1048E4380068EC
:100B600000F4E06012490843001D0C49E4390860B4
:100B700000BF00BF00BFBFF34F8F00BF00BF00BF6B
:100B800000BF00BFFDE70000EC5A0000BC5A0000A7
:100B9000466174616C206572726F7200F0ED00E066
:100BA00053797374656D207265736574000000007D
:100BB0000000FA053EB50446002000900190029026
:100BC00002946A46002144F20100FFF793FF3EBD04
:100BD00000B5024600F006F800BD00B5024600F080
:100BE0000BF800BD72B603480068401C014908605C
:100BF00070470000F437002004480068401E034995
:100C000008600846006800B962B67047F4370020F3
:100C100070B505460C462068401C28B1206801F0DC
:100C20003CFB206801F0D1FA6068401C18B100213B
:100C3000606801F0B0FA2868A169C0F8241500BF07
:100C4000617D227D286841EA0203C0F86C3500BF4F
:100C5000D4E90012286802F062F8207D012814D13E
:100C6000A068401C18B10021A06801F094FAE06867
:100C7000401C28B1E06801F010FBE06801F0A5FA23
:100C8000D4E90221286802F033F870BD70B505463A
:100C90000C462068401C28B1206801F009FB206840
:100CA00001F09FFA6068401C18B10021606801F0F3
:100CB0007FFA2868A169C0F8241500BF617D227DF4
:100CC000286841EA0203C0F86C3500BFD4E900127D
:100CD000286802F05CF8207D012814D1A068401C2F
:100CE00018B10021A06801F063FAE068401C28B147
:100CF000E06801F0DDFAE06801F073FAD4E902215E
:100D0000286802F025F870BD002114E00C48D0F8E6
:100D10001024012308E000BFD0680079884201D187
:100D2000002303E0D0680268002AF4D100BF0BB1B1
:100D300008467047491C0A29E8DB4FF0FF30F8E706
:100D4000483D00202DE9F84F04460D461646A71CE5
:100D50004FF001080020FFF73BFF30484068286053
:100D60002E4840682D498968411A2D480068401C6A
:100D7000A0EB010915E001212A4800F089FF00F0ED
:100D8000D3FB82465146274800F082FF2348406843
:100D900022498968411A22480068401CA0EB0109D9
:100DA00000BF4F45E7D8B8F1000F30D000210091C7
:100DB00076B1009921F00301491C0091009921F0BE
:100DC0000401091D0091009964F3891100910DE05F
:100DD000009921F00301891C0091009921F0040180
:100DE000091D0091009964F39F5100910B494968D6
:100DF0000B4A12681140094A0C3202EB810000993B
:100E000001600649496839440C3A516000BF00202E
:100E1000FFF7E3FE4046BDE8F88F0000483D0020A4
:100E2000343800206441002070B504460D460A2D78
:100E300003D10D212046FFF7F7FFA168481CA060F1
:100E400020684554D4E90110884202D3204601F0BD
:100E500048F870BD0448806803494968884201D158
:100E6000012070470020FCE7483D00204FF0FF3193
:100E7000054A42F82010082804DBFF23A0F10801EE
:100E80004432535470470000183B0020014602488A
:100E900050F8210070470000183B00202DE9F04F6A
:100EA00003460C464FF0FF390AB1002000E008204D
:100EB00084460AB1082000E009208046614624E00B
:100EC000154850F82100401CF0B91D460846274639
:100ED00016464FFA80FBDFF840A00AF1240A0AF810
:100EE00005B0DFF834A04AF820704EB94FFA85FB00
:100EF000A0F1080ADFF820E00EF1440E0EF80AB067
:100F000000BF4FFA81F902E0491C4145D8D300BF28
:100F10004846BDE8F08F0000183B0020014601481C
:100F2000405670473C3B002010B50021034800F0BC
:100F3000C5FE044684F3100010BD0000644100208B
:100F400010B5002821D0114B0022001F196803E0C2
:100F5000814203D80A4649680029F9D152B1136881
:100F6000841A9C4204D1006818441060104602E0C4
:100F7000506000E0186039B102680B1A934203D147
:100F80000B681A4402604968416010BD8C3A002029
:100F900038B501F0F3FF044600BF254625B100BF78
:100FA0002846FFF707FE00BF00BF0D48006800900D
:100FB00003208DF801000B4A6946022001F064FF0E
:100FC000044600BF254625B100BF2846FFF7F2FDC5
:100FD00000BF00BF0121022001F000FF38BD00006A
:100FE000E84C0000111100002DE9F04704460E46C0
:100FF00092461F46DDF8208052463146204600F0DA
:1010000063F80546EDB900200F49087000BF81461E
:1010100043463A463146201D02F004F9814600BF9E
:101020004D4600BFA946B9F1000F04D000BF4846A5
:10103000FFF7C0FD00BF00BF00BF034800780028D5
:10104000FBD02846BDE8F087000000202DE9FF4FC7
:1010500083B016461F46DDF8408008F1010000F01D
:10106000FF0ACDF808A0029800F054FB0446267051
:1010700042463946601CFFF757F9002011490870B5
:101080001198534622460090DDE9030100F0B7FEB7
:10109000054600BFAB46BBF1000F04D000BF584669
:1010A000FFF788FD00BF00BF00BF0648007800289A
:1010B000FBD0A9462046FFF743FF484607B0BDE8EE
:1010C000F08F000000000020F7B582B006460F4602
:1010D00000200E4908700120034604AA39460090FA
:1010E000304600F08CFE044600BF254625B100BF07
:1010F0002846FFF75FFD00BF00BF00BF0348007830
:101100000028FBD0204605B0F0BD00000000002004
:101110000122014B1A707047DE3700202DE9FC5F79
:1011200083460E4691461F46DDE90C45002E01DA46
:10113000704200E0304682464FF0010803E09AFB1F
:10114000F9FA08F10108CA45F9DA474500D9B84665
:1011500034B1002E03DB05F00400042800D1641E26
:1011600005F0020000B167B105F0010048B944B1D3
:1011700004E0641E20215846FFF756FE0CB1A0453E
:10118000F7D3002E05DA76422D215846FFF74CFEA4
:1011900007E005F00400042803D12B215846FFF78F
:1011A00043FE05F0020002280DD105F0010050B900
:1011B0004FB944B104E0641E30215846FFF734FEB5
:1011C0000CB1A045F7D33B464A4631465846CDE9D7
:1011D000004503F0B5FCBDE8FC9F000070B5054676
:1011E0001249286801F089FD286801F0E7FD0446EE
:1011F0002046002817DB00F01F02012191400C4A15
:10120000430942F8231000BF00BF00BFBFF34F8F58
:1012100000BF00BF00BF00BF00BF00BFBFF36F8FA4
:1012200000BF00BF00BF00BF00BF70BD840202004E
:1012300080E100E070B505461249286801F08EFD96
:10124000286801F0BFFD04462046002817DB00F0A7
:101250001F02012191400C4A430942F8231000BFAC
:1012600000BF00BFBFF34F8F00BF00BF00BF00BF74
:1012700000BF00BFBFF36F8F00BF00BF00BF00BF44
:1012800000BF70BD1003420080E100E02DE9F04195
:1012900004460E464FF48E71206801F022FD4FF493
:1012A000A271206801F01DFD1A49206801F028FD97
:1012B000206801F083FD0546374628463946002858
:1012C00004DB4A07130E144A135408E04A074FEA96
:1012D000126C124A00F00F031B1F02F803C000BF7C
:1012E00000BF206801F06AFD0546284600280DDB96
:1012F00000BF00BF00F01F0201219140420992008F
:1013000002F1E022C2F8001100BF00BF00BF00BF21
:10131000BDE8F0818000020000E400E018ED00E08C
:101320002DE9F04104460E464FF48871206801F023
:1013300008FD4FF49071206801F003FD4FF49271A5
:10134000206801F0FEFC4FF4A271206801F0F9FC66
:101350004FF4AC71206801F0F4FC1B49206801F0E7
:1013600000FD206801F02EFD054637462846394627
:10137000002804DB4A07130E144A135408E04A07F6
:101380004FEA126C124A00F00F031B1F02F803C051
:1013900000BF00BF206801F015FD05462846002863
:1013A0000DDB00BF00BF00F01F0201219140420988
:1013B000920002F1E022C2F8001100BF00BF00BF9E
:1013C00000BFBDE8F08100001003420000E400E02F
:1013D00018ED00E00FB438B504468CB10A48006837
:1013E00084420DDC0948006850B106A800902046F0
:1013F000064B009A05991B6898470020009000BF93
:1014000038BC5DF814FB0000783800207C380020E0
:10141000074A1060002803DA0022054B1A6004E036
:10142000062802DD0622024B1A60024A116070474C
:10143000783800207C380020014621F00040412807
:1014400008D2054A02EBC102CB0F52F8230000B1CB
:10145000704700BF01A0FBE78038002000000000BB
:1014600030B5024600201378C3F38003D3B113785C
:1014700003F00303012B02D0022B10D107E01388E5
:10148000C3F383139B1C0C6823440B6008E00B68B8
:101490000225146805EB945423440B6000E000BF60
:1014A00000BF012030BD2DE9F04704460E469046AE
:1014B000002722E0384601F0BBFB0546384601F024
:1014C000BEFB81462046294642580AB1012200E06F
:1014D000002282B14846D4F80413014009B1012129
:1014E00000E0002139B12946204601F0ADFB284635
:1014F000D6E900219047781CC7B24745DADBBDE842
:10150000F08710B5044622460121002000F08EFE2F
:10151000002105E054F8210008B1012010BD491C4C
:101520000029F7D00020F9E72DE9FF4100272E48D8
:1015300000F0A7FB2C48001F00F0A3FB2B4880689D
:1015400003902B4805680398284028490C3101EB8B
:10155000800800BF03A94046FFF782FF30B103981F
:10156000284022490C3101EB800800E000E0F1E75F
:1015700000BF00240AE00398411C284003911B4946
:101580000C3151F820004DF82400641C022CF2D3D9
:10159000009800F0030001280DD0022814D1BDF8F6
:1015A00006700421009801EB9050401E039901EB56
:1015B0009000039009E0BDF806700098C0F3831016
:1015C00003990844039000E000BF00BF0648001FD5
:1015D00000F050FB064616B104490398886038466F
:1015E00004B0BDE8F081000060410020483D0020CB
:1015F0003438002008B500BF0021084601F0B0F9DA
:10160000044624B100BF2046FFF7D4FA00BF00BF54
:1016100000F08CFF2549264A891AC908032242EAAC
:10162000014024A101F028F900BF00BF00F09AFF9B
:101630000028FBD100BF21490520FFF7E9FE20A1CA
:101640000320FFF7C7FE27A10320FFF7C3FE1CA15D
:101650000320FFF7BFFE00BF00BF00F083FF00289C
:10166000FBD100BF28A000680090FFF791FC02F0BA
:1016700079FD1AE00021254801F02FFD05464FF4C1
:101680007A7000F0AEFB0949094A891AC908032299
:1016900042EA01402A461EA101F0F8F800BF00BF4F
:1016A00000F060FF0028FBD100BFE3E7EC5A000028
:1016B000BC5A00000D0A53544152540085180000D2
:1016C00023232323232323232323232323232323EA
:1016D00023232323232323232323232323232323DA
:1016E00023232300232020202020202020202032FC
:1016F00030393438206578616D706C652020202089
:10170000202020202020230001020304C84C0000D8
:1017100025640000F0B50B30154D20F007010024C2
:10172000144A0FE003688B420BD38B4205D95E1A33
:1017300043184768C3E9006700E04368136002C0CC
:1017400004E0021D10680028ECD12046002802D1D8
:10175000286808B10020F0BD064A07481060074A13
:10176000121A22F00702C0E9002401202860D7E7FE
:10177000903A00208C3A0020F4430020F0630020CF
:101780002DE9FF4F87B0044691461E46A2462546E6
:10179000BAF806009AF805104843001F0690BAF8F8
:1017A00006B0301DB0FBFBF00590301DB0FBFBF127
:1017B0000BFB11000490D9F80000811906988142B2
:1017C00002D90698801B01E0D9F800000746C9F845
:1017D000007003E02D680598401E059005980028CC
:1017E000F8D103900498ABEB0008B84501D938460E
:1017F00000E04046804623E00399089808440290A0
:10180000281D049908440190149828B14246DDE946
:101810000110FEF789FD04E04246DDE90101FEF713
:1018200083FD002004902D68A7EB0807039840442F
:101830000390BB4501D9384600E05846804600BFBA
:10184000002FD9D10BB0BDE8F08F000070B5034672
:101850000C469CB101F0A8F8054600220AE00848B1
:1018600000EB820108881E68B04202D11A60002095
:1018700070BD521CAA42F2D30520F9E70020F7E719
:101880000000000070B505460C460549054A891A56
:10189000C908032242EA0140214600F0EDFF70BD75
:1018A000EC5A0000BC5A00002DE9F84380460C4673
:1018B00015461E46F0B22B46224669210090054887
:1018C000FFF792FB074617B90020BDE8F8834FF0F9
:1018D000FF30FAE7A04C00002DE9FC4180460C46A1
:1018E00015461E4600202B4622466921CDE90060A0
:1018F0000548FFF7ABFB074617B90020BDE8FC81A0
:101900004FF0FF30FAE70000A04C000014480068D8
:10191000401C38B913480178124808300078C0F3E9
:10192000031205E00E4801684FF08050D0F83421D2
:10193000062912D1032A06D0042A06D0052A06D089
:10194000062A08D105E0012070470120FCE70120AC
:10195000FAE70120F8E70120F6E70020F4E70000AD
:1019600030010010E00F00F014480068401C38B946
:1019700013480178124808300078C0F3031205E0DC
:101980000E4801684FF08050D0F83421062912D15A
:10199000032A06D0042A06D0052A06D0062A08D132
:1019A00005E0012070470120FCE70120FAE7012053
:1019B000F8E70120F6E70020F4E70000300100100E
:1019C000E00F00F014480068401C38B91348017853
:1019D000124808300078C0F3031205E00E48016891
:1019E0004FF08050D0F83421062912D1032A06D0B6
:1019F000042A06D0052A06D0062A08D105E00120CF
:101A000070470120FCE70120FAE70120F8E70120F8
:101A1000F6E70020F4E7000030010010E00F00F0CE
:101A20000E4802780D4808300078C0F30311062AEA
:101A300012D1032906D0042906D0052906D006298B
:101A400008D105E0012070470020FCE70020FAE7FC
:101A50000020F8E70020F6E70020F4E7E00F00F0B0
:101A60000E4802684FF08050D0F83411062A12D187
:101A7000032906D0042906D0052906D0062908D155
:101A800005E0002070470020FCE70020FAE7012075
:101A9000F8E70120F6E70020F4E70000300100102D
:101AA00014480068401C38B91348017812480830BF
:101AB0000078C0F3031205E00E4801684FF0805033
:101AC000D0F83421062912D1032A06D0042A06D0E0
:101AD000052A06D0062A08D105E00120704701201A
:101AE000FCE70120FAE70120F8E70120F6E70020F3
:101AF000F4E7000030010010E00F00F00E4802781B
:101B00000D4808300078C0F30311062A12D10329CA
:101B100006D0042906D0052906D0062908D105E0FB
:101B2000012070470020FCE70020FAE70020F8E7DA
:101B30000020F6E70020F4E7E00F00F0144800680A
:101B4000401C38B913480178124808300078C0F3B7
:101B5000031205E00E4801684FF08050D0F83421A0
:101B6000062912D1032A06D0042A06D0052A06D057
:101B7000062A08D105E0012070470120FCE701207A
:101B8000FAE70120F8E70120F6E70020F4E700007B
:101B900030010010E00F00F00E4802780D480830C8
:101BA0000078C0F30311062A12D1032906D00429B4
:101BB00006D0052906D0062908D105E00120704786
:101BC0000020FCE70020FAE70020F8E70020F6E715
:101BD0000020F4E7E00F00F00E4802780D480830CE
:101BE0000078C0F30311062A12D1032906D0042974
:101BF00006D0052906D0062908D105E00120704746
:101C00000020FCE70020FAE70020F8E70020F6E7D4
:101C10000020F4E7E00F00F014480068401C38B9D9
:101C200013480178124808300078C0F3031205E029
:101C30000E4801684FF08050D0F83421062912D1A7
:101C4000032A06D0042A06D0052A06D0062A08D17F
:101C500005E0002070470020FCE70120FAE70120A2
:101C6000F8E70120F6E70020F4E70000300100105B
:101C7000E00F00F010B504460021204600F013F8F4
:101C800010BD10B504460121204600F022F810BD19
:101C9000F8B504460D466A4629462046FEF7EFFA97
:101CA00006460098F8BDF8B504460D466A46294632
:101CB0002046FEF7CAFA06463046F8BDF8B5044697
:101CC0000D466A4629462046FEF7A6FA06463046E5
:101CD000F8BDF8B504460D466A4629462046FEF78B
:101CE000A7FA06460098F8BDF8B504460D466A46C0
:101CF00029462046FEF7D0FA06460098F8BD70B592
:101D0000044600260020FEF763FF20680068616833
:101D1000884215D920680068401E2268106001784A
:101D2000204600F02FF80646207A21680978401AEC
:101D3000C5B220680079A84201DA2068057100BFA9
:101D40000020FEF74AFF304670BD0246D068081AF0
:101D5000138AB0FBF3F0C0B2704770B504460D466D
:101D60002E460020FEF734FF31462046FFF7EDFFF8
:101D700021680A68511C2368196010700020FEF762
:101D80002CFF70BD0246138AD06801FB0300704728
:101D900010B5014600BF09B90E2010BD00BF087A7A
:101DA0000B79C01AC2B2D1E90030186005E00868AA
:101DB0000368581C0C6820601A70101EA2F1010301
:101DC000DAB2F4D10B68187100BFE6E730B502460D
:101DD0000B46D40802F00702012090401D5D284008
:101DE00030BD10B5044604B910BD00BF4FF47A7081
:101DF00000F0D4FF601E041EF8D100BFF4E72DE907
:101E0000F84304460D4616461F46DDF820804FF085
:101E100000093B4632462946201DCDF8008001F0DE
:101E200019FA81464846BDE8F88300002DE9F041E3
:101E300088B004460F46154626781A4840F82650C2
:101E40001949386941F82600787F184988552022B9
:101E500039466846FEF768FA04964FF00008207885
:101E60001249085C50B10DB1114800E00020024653
:101E70006946201D01F0FAFA80460EE020780B49F1
:101E8000085C50B90DB10B4800E0002002466946DD
:101E900004F10C0001F022FA8046404608B0BDE88B
:101EA000F0810000E0370020E4370020E837002010
:101EB000D5490000E14700000FB438B50446059845
:101EC00010B938BC5DF814FB0020009006A8009003
:101ED0006A462046059900F012F80020009000BFE5
:101EE000EFE770B50446A06800B970BDD4E90403FB
:101EF000A268216898470020A06000BFF5E72DE99F
:101F0000FC5F82460D4614460DB9BDE8FC9F00BF3C
:101F10002E786D1C06B9E1E0252E70D100274FF018
:101F2000010900BF2E782B2E0CD02D2E02D0302E82
:101F30000CD103E047F001076D1C0AE047F00207EF
:101F40006D1C06E047F004076D1C02E04FF000092D
:101F500000BF00BFB9F1000FE4D14FF0000800BF8F
:101F60002A2E06D12168081D2060086880446D1C57
:101F70000DE02E78302E01DB392E00DD07E06D1CE0
:101F8000A6F1300008EB880100EB4108E8E700BF4C
:101F90004FF0000B2E782E2E10D16D1C00BF2E7826
:101FA000302E01DB392E00DD07E06D1CA6F130007C
:101FB0000BEB8B0100EB410BF1E700BF2E7800BF6C
:101FC0006C2E01D0682E02D16D1C2E7800E000E04E
:101FD000F6E700BF692E21D008DC252E6DD0582EE3
:101FE00039D0632E0CD0642E6CD116E0702E4CD0FC
:101FF000732E3ED0752E1FD0782E63D12AE065E077
:102000002168081D2060D1F8009009F0FF000190C0
:1020100050460199FEF708FF55E000BF2168081DF2
:102020002060D1F800905B460A2249465046CDE92F
:102030000087FFF773F846E02168081D2060D1F89B
:1020400000905B460A2249465046CDE9008702F0DF
:1020500077FD38E000BF2168081D2060D1F80090AE
:102060005B46102249465046CDE9008702F068FDE4
:1020700029E02168081D2060086801903B4642461F
:102080005046019902F034F81DE02168081D2060D7
:10209000D1F8009030215046FEF7C6FE7821504618
:1020A000FEF7C2FE002008210B461022CDE90010E9
:1020B0004946504602F044FD05E025215046FEF712
:1020C000B3FE00E000BF00BF6D1C03E03146504688
:1020D000FEF7AAFE287800287FF41AAF00BF9AF80E
:1020E0000C0010B15046FFF7FCFE00BF0DE7F0B545
:1020F000DDE9054500BF4FF0A0473E4641EA4207F3
:1021000047EA830747EA042747EA054C06F5E067F4
:1021100047F820C0F0BDF0B5DDE9054500BF4FF040
:10212000A0473E4641EA420747EA830747EA0427B9
:1021300047EA054C06F5E06747F820C0F0BDF0B56A
:10214000DDE9054500BF4FF0A0473E4641EA4207A2
:1021500047EA830747EA042747EA054C06F5E067A4
:1021600047F820C0F0BD1CB504460020009003468F
:102170000122014601902046FFF7B9FF1CBD1CB5A6
:1021800004460020009003460122014601902046AB
:10219000FFF7C1FF1CBD7CB505460C460020009032
:1021A00023460246014601902846FFF7A0FF7CBD6A
:1021B0007CB505460C4600200090234602460146A9
:1021C00001902846FFF7A7FF7CBD1CB50446002000
:1021D000009003460122114601902046FFF787FF39
:1021E0001CBD1CB504460020009003460122114688
:1021F00001902046FFF78FFF1CBD10B50A4600BFB7
:102200004FF0A043194601F5E06353F8203023F462
:10221000403401F5E06343F8204053F8203043EAAE
:10222000024401F5E06343F8204010BD38B5034691
:102230000A4C2468009418460BE05DF82040D4F85E
:10224000204514605DF820501468C5F82045121D23
:10225000401C5C188442F0D838BD0000984D000046
:1022600001464A0900230AB95B1E00BF00BF01F006
:102270001F0101208840184008B10120704700204C
:10228000FCE7014600BF4FF0A040024600BFD2F875
:102290001005C84000F00100704700BF4FF0A0419A
:1022A0000A46012303FA00F1C2F8081500BF70477F
:1022B00000BF4FF0A0410A46012303FA00F1C2F823
:1022C000081500BF704700000146014808447047E8
:1022D0000060004038B504462046FFF7F5FF0021B6
:1022E00001602046FFF7F0FF0068009000BF38BD96
:1022F00010B504462046FFF7E7FF0068012800D12B
:1023000010BD0020FCE70000014908607047000094
:102310000463004070B504460E46FEF7F5FC054622
:10232000681C08B9284670BDE8B2E168087100BFB2
:102330000C48D0F8100430B90A48C0F81044002006
:10234000E16808600BE00748D0F81004C068006836
:10235000E16808600348D0F81004C06804602846AB
:10236000E1E70000483D00200121C268517170473B
:10237000704710B5FEF7B6F810BD704738B5044683
:102380000D4604484023044A29460090204600F0A8
:1023900005F838BD193F0000703B00202DE9F04FD3
:1023A00093B082460E4617469846DDF87090304648
:1023B00000F0F1FB18210DA8FDF7DDFF0D97CDF81A
:1023C0003880CDF8489000252B46082207A93046D2
:1023D00000F0FEFB082509980A90BDF82000ADF832
:1023E0002C00BDF82200ADF82E0000208DF8310041
:1023F000079800F0030001281BD107984FEA902BA3
:102400000798C0F3C2008DF830000798C0F383141A
:10241000A2002B4601A9304600F0DAFB05EB84054B
:102420000DA80AAB224601A90090584600F0F2FA26
:1024300027E0079800F00300022822D107984FEA0E
:10244000905B0798C0F3C2008DF8300000BFBBF16D
:10245000080F01D2584600E0082004462B462246C9
:1024600005A9304600F0B4FB2544ABEB040B0DABE3
:102470000AAA214605A800F015FABBF1000FE6D123
:1024800000BF304600F095FB13B0BDE8F08F7047F9
:1024900010B50124204602F0C5F910BD70B50546FF
:1024A0000A4C20780A49085C18B1201D01F08EF80A
:1024B00007E020780649085C18B904F10C0000F028
:1024C000A9FF00BF002002F0ADF970BDFC3700206D
:1024D000E837002038B504460D4604484023044A36
:1024E000294600902046FFF759FF38BD9D3F000068
:1024F000B03B002010B502460B4C04EBC20301298F
:1025000006D0022906D0032906D0042908D105E007
:10251000022007E0042005E0187903E0587901E083
:10252000002000BF00BF10BDBC5A000010B54FF026
:10253000FF34FFF71EFF04210848FFF7EBFE0446B7
:102540000648FFF711FFFFF7A3FF04210448FFF738
:10255000E1FE04460248FFF707FF10BD9C5A000049
:10256000AC5A00002DE9F04F8BB0FEF773FC18B1A8
:1025700000200BB0BDE8F08F0020B549C1F8180469
:1025800000BF00BF00BFBFF34F8F00BF00BF00BF41
:10259000084680680A90AF4804680A9820400C31C9
:1025A00001EB800A002500260020069000BF0AA942
:1025B0005046FEF755FFA8B1A548D0F8180488B9D1
:1025C000A34840680A99884205D8A1484068A049B4
:1025D00088600020CDE70A9820409D490C3101EB2E
:1025E000800A00E000E0E2E700BF00270BE00A9865
:1025F000411C20400A9196490C3151F8200007A94E
:1026000041F827007F1C022FF1D3079800F0030048
:1026100002287CD10798800D059050210798B1EBD6
:10262000905F02DD0798800D00E0502081460798FA
:1026300069F39F50079009F1080004900798C0F3D0
:10264000C20006908448049900F048FA0546002D1F
:102650005BD0284600F09FFA3346082207A9284697
:1026600000F0C7FA08360A982040611C081A4FEAA1
:102670008008C14535D9B8F1000F06D00A9820402E
:1026800073490C3101EB800001E071480C3003907C
:10269000B8F1000F01D0404600E0484600F0FF0BC3
:1026A000B8F1000F02D06A480C3000E00020029020
:1026B000B8F1000F02D0A9EB080000E00020C0B282
:1026C000019033465A462846039900F092FA5E4438
:1026D000029828B133462846DDE9012100F089FA45
:1026E0000CE00A9820405A490C3101EB800B33462C
:1026F0004A465946284600F07CFA00BF0598C01C9F
:102700000A9901EB90000A9000BF44E0FFE70798A8
:1027100000F0030001283ED10798C0F3831006287B
:1027200003DA0798C0F3831000E00620079960F3EE
:10273000891107910798C0F3831000F102080798E8
:10274000C0F3C20006904FEA8801434800F0C6F982
:102750000546FDB1284600F01EFA3346082207A9B7
:10276000284600F046FA083600270EE00A98421C78
:1027700020400A92364A0C3202EB80013346042292
:10278000284600F036FA361D7F1C0798C0F38310E8
:10279000B842EBD800BFC5B32D48D0F81084D0F8AC
:1027A000180418B1284600F004FA2DE019E04FF0A3
:1027B000000900BFD8F80C004079012800D18146FB
:1027C000B9F1000F08D000BFD8F800002946026810
:1027D0004046904700BF00BFD8F80C00D0F80080FA
:1027E00000BFB8F1000FE2D1284600F0E2F9002066
:1027F000FEF7EEF91648D0F8180410B914490A98F3
:1028000088600020FEF7E9F91DE0FFE71048D0F8E6
:1028100010840AE0C146D9F800008168484688471C
:1028200000BFD8F80C00D0F80080B8F1000FF1D14B
:102830000A490B4A891AC908022242EA014009A141
:1028400000F01AF800BFFEF705FB80F0010090E6EB
:10285000483D002034380020F45A0000EC5A0000B3
:10286000BC5A00004261636B656E647320666C75D0
:10287000736865640000000070B504460D460023CF
:102880001A462946204601F0FBFB70BDF8B5054607
:102890000E461446009401236A463146284601F04C
:1028A000EFFBF8BD2DE9F05F07460E4690461D464A
:1028B000082E01D9BDE8F09F95F80C9000202873F0
:1028C0002946404601F01CF800240CE0B44205D231
:1028D0003A5D1DA12846FFF7EFFA03E01CA1284648
:1028E000FFF7EAFA641C082CF0D31AA12846FFF778
:1028F000E3FA00241DE0B44216D217F804A0BAF19E
:102900007E0F09DCFDF70CFD006810F80A0000F0EE
:102910003E0008B1504600E02E2083465A460EA1E4
:102920002846FFF7C9FA03E00CA12846FFF7C4FACE
:10293000641C082CDFD301222946404600F0BCFF6E
:1029400085F80C9000BFB5E72025303278000000F4
:10295000202020007C0000002563000020000000F3
:102960002DE9F04106460F4600BF002009490870D6
:10297000094800F018F9044614B12046BDE8F0817A
:10298000064800F047F906480649401AC5080020E5
:10299000F4E70000483D0020F45A0000344E0000E7
:1029A000F45A0000BC5A000002480349401AC0080B
:1029B00070470000F45A0000BC5A000013B50C46E2
:1029C00021466846FEF742FF28B90448009A00EB0A
:1029D000C20108681CBD0020FCE70000BC5A0000D2
:1029E00070B50B48D0F810440120094908700CE07C
:1029F00000BF0120E168487100BF25462868416892
:102A00002846884700BFE0680468002CF0D170BDFC
:102A1000483D00202DE9FF4707460C4616469846DC
:102A20000C9D95F80C90002028732946404600F034
:102A300067FF072E47D2DFE806F004090F161F2AAA
:102A4000370039462846FFF737FA3DE03946284631
:102A50002268FFF731FA37E039462846D4E90023E7
:102A6000FFF72AFA30E0A068009039462846D4E9FA
:102A70000023FFF721FA27E0D4E90201CDE90001A4
:102A800039462846D4E90023FFF716FA1CE0D4E9BA
:102A900002122069CDE90012029039462846D4E995
:102AA0000023FFF709FA0FE0D4E90223D4E9041068
:102AB000CDE90023CDE9021039462846D4E90023A8
:102AC000FFF7FAF900E000BF00BF002229464046A8
:102AD00000F0F2FE85F80C90BDE8FF872DE9F84F75
:102AE00007468A46388AA0F104080AF104004044E7
:102AF000401EB0FBF8F0C0B200903846FFF7FFF878
:102B0000044614B90020BDE8F88F0020207101218F
:102B10006171A4F8068025460098A0F1010B2C46AF
:102B20002F604FF0000912E03846FFF7E8F806463C
:102B300036B16079401C60712E603760354604E024
:102B4000204600F008F80020DDE709F10109D94529
:102B5000EAD32046D7E72DE9F05F0446274697F8E9
:102B600005802646A8F1010B002501E036686D1CA2
:102B70005D45FBD3D6F800A02646002507E0D6F831
:102B8000009031465046FFF7E8F84E466D1C45452B
:102B9000F5D3BDE8F09F70B5044625460121281DF8
:102BA000FFF776F870BD10B504462046FFF7F0F841
:102BB00010BDF8B5044626460121301DFFF794F8F4
:102BC00000906D46287810B92046FFF7C4FFF8BD85
:102BD0002DE9FC4105460E4614461F46019401208E
:102BE0003B4601AA314600902846FEF7C9FDBDE8E4
:102BF000FC812DE9FC4105460E4614461F46019412
:102C000000203B4601AA314600902846FEF7B8FD59
:102C1000BDE8FC8100218268916082681161826850
:102C200051618268D160826851608268116070472A
:102C300001464FF4A07000EB810080B2704701465E
:102C40004FF480308840704708B500224250425807
:102C5000009200BF08BD0122425070470146D1F8E2
:102C6000C404C1F8C40470470246505808B101209A
:102C700070470020FCE708B50022425042580092FD
:102C800000BF08BDC0F808137047C0F804137047B0
:102C9000C0F834154FF4A7631A507047014640F24C
:102CA0003C5040587047C0F8001270470122425013
:102CB0007047C0F844154FF4A9631A507047014695
:102CC00040F24C50405870470146D1F88004C1F89A
:102CD000800470470246505808B101207047002018
:102CE000FCE708B5002242504258009200BF08BDE0
:102CF000C0F80815C0F810257047C0F808137047D1
:102D0000C0F8041370470246D2F80403084008B123
:102D1000012070470020FCE7012242507047C0F8B4
:102D20001425C0F80C1570470146D1F88004C1F88D
:102D3000800470470246505808B1012070470020B7
:102D4000FCE708B5002242504258009200BF08BD7F
:102D5000C0F808154FF4A2631A507047C0F8081362
:102D60007047C0F804137047014640F23C50405889
:102D70007047D0F800228A43C0F800227047012231
:102D800042507047014640F24C504058704740F264
:102D90000C53195040F214531A50704770B5044642
:102DA00004B970BD024EA5012846B04700BFF8E740
:102DB000D14C00000146080B40B270470146080B99
:102DC00040B270470146080B40B270470146080BFD
:102DD00040B270470146080B40B270472DE9F047FA
:102DE00006460D46304600F059FCF0B13046FEF77D
:102DF00095F8A0F10808404600F056FD0446032C63
:102E000008D13046FFF73DFA08B1032000E0022068
:102E1000074605E0012C01D1022000E0032007460F
:102E200039463046FFF7E9F92AE0304600F042FC27
:102E300030B33046FEF772F80446A00000F580700B
:102E400087B220460F4951F8201041F001020D4988
:102E500041F8202000BF3846FFF73CFA7DB13046EC
:102E6000FEF75CF88146FEF711F88046B8F1000FD6
:102E700004D0012101FA04F0FFF746FA00BF00BFB9
:102E8000BDE8F087106500402DE9FC4704460E467A
:102E900017464FF00008204600F0F2FB10B14FF04B
:102EA000080862E0B078C0F3400239462046FDF7DA
:102EB000F5FF0546681C002854D0B078C0F38000A8
:102EC00020BBB07800F0010080B100BF00BF4FF020
:102ED000A042104600F5E06252F8242022F00201E0
:102EE00000F5E06242F8241000BF0CE096F8019073
:102EF000002000904B460246014601902046FFF715
:102F00001EF900BF00BF204600F0AAFBB078C0F356
:102F10004000D0B13078164951F82510154A1140BB
:102F2000134A42F82510114651F825104FF4F85273
:102F300002EA04224FF4403303EA00431A431143E8
:102F40000B4A42F8251000BF0EE0A5F108000A491F
:102F5000085C317840EA811042B2A5F108000649C8
:102F60000A5401E04FF0040800BF4046BDE8FC876A
:102F700010650040FFE0FCFF5C3B00202DE9F041C4
:102F8000304890F8490018B108263046BDE8F08175
:102F9000002408E02046FFF763F910B1204600F056
:102FA00099FB601CC4B2202CF4DB002404E0204612
:102FB000FDF75CFF601CC4B2092CF8DB214800213E
:102FC000C0F845102048FFF701FF054606272846B0
:102FD0003946002804DB4A07130E1C4A135408E044
:102FE0004A074FEA126C1A4A00F00F031B1F02F83F
:102FF00003C000BF00BF1448FFF7E8FE054628469F
:1030000000280DDB00BF00BF00F01F02012191402E
:103010004209920002F1E022C2F8001100BF00BF95
:1030200000BF00BF4FF4BE70FFF754F94FF00040EF
:10303000FFF76AF90120034981F84900002630466C
:10304000A4E70000183B00200060004000E400E01E
:1030500018ED00E0014601F06040B0F1005F01D1E1
:10306000012070470020FCE7014601F06040B0F10C
:10307000005F01D1012070470020FCE72DE9F041FD
:1030800007460E46384600F08DFC0446BCB14FF0B2
:1030900000080020FDF79CFD207910B14FF00108D9
:1030A00002E02660012020710020FDF796FDB8F1B6
:1030B000000F03D011252846BDE8F08100BF002590
:1030C0002846F9E770B50546284600F06BFC044633
:1030D00014B100202060207170BD70B505460C460B
:1030E00000BF402000EB8400C0B20646314628688D
:1030F000FFF7B1FD286800F5A86151F824100846D3
:1031000070BD000010B5044600212068FFF7A3FD44
:103110000220217901EB4101024A02EB8101087290
:1031200010BD0000643B00202DE9F05F04460D4611
:103130009246207900EB4000374901EB8006307A57
:1031400020B14FF008094846BDE8F09FC6F800A03E
:1031500068687060002709E03846FFF769FD80461F
:1031600041462068FFF770FD781CC7B26079B8420D
:10317000F2DC2068FFF72EFE804695F803B040464B
:103180005946002804DB4A07130E244A135408E06A
:103190004A074FEA126C224A00F00F031B1F02F885
:1031A00003C000BF00BF2068FFF714FE8046404602
:1031B00000280DDB00BF00BF00F01F02012191407D
:1031C0004209920002F1E022C2F8001100BF00BFE4
:1031D00000BF00BF69782068D0F8042561F30102C0
:1031E000C0F8042500BFA9782068D0F8082561F34D
:1031F0000102C0F8082500BF29782068D0F8102502
:1032000061F30302C0F8102500BF012030724FF0B7
:103210000009484698E70000643B002000E400E015
:1032200018ED00E0F0B585B007460C4615461E4681
:10323000142207496846FDF777F88DF8014001969A
:10324000039500226946384600F024F805B0F0BD29
:10325000244D00002DE9F04186B007460C46154686
:103260001E46DDF83080142101A8FDF784F88DF8A2
:10327000054002960495B8F1000F01D0202000E02F
:103280000020024601A9384600F004F806B0BDE867
:10329000F08100002DE9F04104460D46164600BFBE
:1032A000207900EB800101EBC000064901EB8008AA
:1032B00033462A464046216801F0ACF807463846B6
:1032C000BDE8F081943A002010B50249024801F0AF
:1032D000D9FA10BDC83A0020002000402DE9F04185
:1032E00005460E461746287900EB400101EBC00069
:1032F0001A4901EB80044FF0000894F82A0020B12D
:103300004FF008084046BDE8F0812A79144B53F885
:1033100022102868FFF7B2FE18B14FF0110840469E
:10332000F1E731462846FDF773FC6760306920609D
:10333000606818B1317F2846FDF7A8FF286804218E
:10334000C0F8001500BF0020A061E06184F82900EA
:103350006061012084F82A004046D4E7C83A002082
:10336000484D00002DE9F04104460F469046207973
:1033700000EB400101EBC0001C4901EB8005204639
:1033800000F036F818B111263046BDE8F081C5F8D6
:103390001480AF600020286285F8280000264FF4D2
:1033A0008E712068FFF79DFC08212068FFF7B4FCB0
:1033B0002946206801F0E1F96868A0B9294620682B
:1033C00001F0C0F908B90F260BE000BF4FF48E7171
:1033D0002068FFF77FFC0028F8D00C212068FFF759
:1033E0009BFC002068613046CFE70000C83A00200F
:1033F0000146087900EB400202EBC000044A02EBF0
:103400008000406908B1012070470020FCE70000FF
:10341000C83A002070B50446207900EB400101EB6A
:10342000C0000C4901EB800520680021C0F80015A0
:1034300000BF686810B12046FDF7D0FE204600F0BE
:103440004FF92068FFF73EFE002085F82A006860EB
:1034500070BD0000C83A002010B50249024801F0D2
:10346000D5FA10BDF43A0020002000402DE9F041CB
:1034700005460E461746287900EBC000194901EBB6
:1034800080044FF0000894F8200020B14FF00808A5
:103490004046BDE8F0812A79134B53F82210286882
:1034A000FFF7ECFD18B14FF011084046F1E7314647
:1034B0002846FDF7EBFB676030692060606818B153
:1034C000317F2846FDF72CFF28680821C0F8001539
:1034D00000BF0020A061E0616061012084F820004D
:1034E0004046D6E7F43A0020784D00002DE9F04739
:1034F000044688469146207900EBC0002A4901EB3A
:1035000080054046FFF7B0FD18B910263046BDE8EB
:10351000F087204600F04AF810B111263046F6E751
:10352000C5F81490C5F8088000264FF49071206803
:10353000FFF707FC4FF4AC712068FFF702FC20682E
:103540006A69A968C0F844154FF4A9631A5000BF0E
:1035500008212068FFF713FC686818BB00BF4FF410
:1035600090712068FFF7E6FB82464FF4AC7120684B
:10357000FFF7E0FB0746BAF1000F01D1002FEED0B4
:103580000FB10F260BE00C212068FFF7F8FB00BFFE
:103590004FF4AC712068FFF7CDFB0028F8D0002075
:1035A000686100BF3046B2E7F43A0020014608796E
:1035B00000EBC000044A02EB8000406908B1012022
:1035C00070470020FCE70000F43A002070B5054683
:1035D000287900EBC000214901EB80042E68606867
:1035E00010B12846FDF726FE20213046FFF7C1FB2B
:1035F000A06940B14FF4A2713046FFF7A2FB04214D
:103600003046FFF7BCFB4FF4AC713046FFF799FB37
:103610000C213046FFF7B3FB00BF4FF4AC713046CE
:10362000FFF788FB0028F8D0A06930B14FF4A271F1
:103630003046FFF77FFB0028EFD000BF0020C6F820
:10364000000500BF284600F087F83046FFF73AFD36
:10365000002084F82000606070BD0000F43A002073
:1036600070B5024605490B46D40802F007021D5DFD
:103670000126964035431D5500BF70BD5D3B0020BF
:10368000014605484056012202EBE07008B10120D6
:1036900070470020FCE700003C3B00200146044846
:1036A0004056082801DB012070470020FCE700009D
:1036B0003C3B0020014606484056002805DB0448F4
:1036C0004056082801DA012070470020FCE700007E
:1036D0003C3B0020FF2201490A5470473C3B00203C
:1036E0002DE9F04704462068D0F80C150D462068F7
:1036F000D0F814150E462068D0F808150F4620683B
:10370000D0F810158846D4F800904FF0FF321146DB
:103710004846FFF704FB00BFD4F800904FF0FF329B
:1037200011464846FFF7E4FA00BF681C10B128466E
:10373000FEF719FD701C10B13046FEF714FD08F1BC
:10374000010010B14046FEF70EFD781C10B138465E
:10375000FEF709FDBDE8F0872DE9F0470446206833
:1037600040F20C5109580D46206840F21451095896
:103770000E462068D0F808150F4620684FF4A26165
:1037800009588846D4F800904FF0FF321146484659
:10379000FFF7FDFA00BFD4F800904FF0FF3211465A
:1037A0004846FFF7D5FA00BF681C10B12846FEF75F
:1037B000E6FC701C10B13046FEF7E1FC08F1010098
:1037C00010B14046FEF7DBFC781C10B13846FEF71E
:1037D000D6FCBDE8F08700002DE9F05F814600BF10
:1037E00000254DE02B484057401C00B947E02846D3
:1037F00000F052F8044649462046FEF7E7FA002852
:103800003CD0284600F050F8064600BF00BF4FF0FD
:10381000A041084600F5E06151F82410C1F30141D0
:103820008846B8F1020F01D1032000E00220824651
:1038300051462046FEF7E1FC00BF00BF4FF0A0411B
:1038400008460121A140C0F8201500BF2046FDF721
:1038500065FB8346FDF71AFB074677B1032E09D0B7
:10386000B8F1020F01D1012E04D0B8F1030F04D139
:10387000022E02D131462046B84700BF00BF6D1C62
:10388000002DAFD04846FDF73CFE0028A8D1BDE88A
:10389000F09F00005C3B002001460248425C22F0A1
:1038A000C00070475C3B002001460248425C900922
:1038B000704700005C3B002070B504460D4616467C
:1038C000207A05280CD0607A28B10A480AA102683B
:1038D0002846FEF7F1FA09A12846FEF7EDFA04E0C2
:1038E0001EB106A12846FEF7E7FA2846FEF7F9FAC8
:1038F00070BD00004C380020257300000D0A000048
:10390000F8B504460D46E08838B116A00090E3886B
:1039100016A218A12846FEF7CFFA207A05281FD054
:10392000607A58B1217AA088FEF7E4FD174951F872
:103930002060324616A12846FEF7BEFA28462168C6
:1039400000F060FCA0880021FFF738F80646207AD6
:10395000104951F8202033460FA12846FEF7ACFA53
:10396000F8BD00001B5B306D000000001B5B313BAD
:1039700033316D0025734C6F67732064726F707004
:103980006564202825642925730D0A004C38002021
:1039900025730000383800203C25733E2025733AFB
:1039A0002000000001460348814201D102487047CF
:1039B0000020FCE700200040EC37002070B50546F1
:1039C0000C46A06940B94FF484712846FFF789F985
:1039D00000BFD5F8180570BD4FF484712846FFF775
:1039E00080F900BFD5F81805C0B2626AE168885452
:1039F000606A401C606200BFEDE77FB504460D467B
:103A0000164601208DF80000029501966846D4E91B
:103A1000001290477FBD7FB504460D461646012033
:103A20008DF80000029501966846D4E9001290478F
:103A30007FBD0000F0B585B004460E4660680028E2
:103A40007AD1206820F00040222876D2DFE800F00A
:103A500075267BF050757575752827EF7575F6ED31
:103A6000A3ECEBEAE975E87575E7E675E57575753C
:103A7000111200BF2068FDF7DFFC0546D4E90412EF
:103A8000A069CDE902120490D4E902012A46CDE9E9
:103A90000001D2A10320FDF79DFC9BE100BF00BF08
:103AA0002068FDF7C9FC054694ED060ADFEDD40A4F
:103AB00020EE200ABDEEC00AD4ED050A9FEDD01A13
:103AC00060EE810AFDEEE00ACDED000A8DED010AFF
:103AD00094ED040ADFEDCA0A20EE200ABDEEC00A0A
:103AE00010EE103A2A46C7A10320FDF773FC71E1DE
:103AF0002068FDF7A1FC054694ED060ADFEDC00A3B
:103B000020EE200ABDEEC00AD4ED050A9FEDBC1AD6
:103B100060EE810AFDEEE00ACDED000A8DED010AAE
:103B200094ED040ADFEDB60A20EE200ABDEEC00ACD
:103B300010EE103A2A4601E04DE13CE1B9A1032024
:103B4000FDF748FC46E12068FDF776FC054694ED5C
:103B5000060ADFEDAB0A20EE200ABDEEC00AD4ED66
:103B6000050A9FEDA71A60EE810AFDEEE00ACDED91
:103B7000000A8DED010A94ED040ADFEDA10A20EEA2
:103B8000200ABDEEC00A10EE103A2A46ADA103206D
:103B9000FDF720FC1EE12068FDF74EFC054694ED84
:103BA000090ADFED970A20EE200AFDEEC00A94ED27
:103BB000080A9FED931A20EE010ABDEEC00A94EDAB
:103BC000071ADFED8F1A21EE211ABDEEC11AD4EDCE
:103BD000061A9FED8B2A61EE821AFDEEE11ACDEDF9
:103BE000011A8DED021A8DED030ACDED040A94ED54
:103BF000050ADFED830A20EE200ABDEEC00A8DED36
:103C0000000A94ED040ADFED7E0A20EE200ABDEEE4
:103C1000C00A10EE103A2A460BE0D0E0B0E0CBE04C
:103C2000CEE053E0BCE0C8E0C8E04DE006E04CE088
:103C30007EE08CA10320FDF7CDFBCBE02068FDF7F3
:103C4000FBFB054694ED090ADFED6D0A20EE200A24
:103C5000FDEEC00A94ED080A9FED691A20EE010AF4
:103C6000BDEEC00A94ED071ADFED651A21EE211AA8
:103C7000BDEEC11AD4ED061A9FED612A61EE821ADB
:103C8000FDEEE11ACDED011A8DED021A8DED030A5C
:103C9000CDED040A94ED050ADFED590A20EE200A65
:103CA000BDEEC00A8DED000A94ED040ADFED540A62
:103CB00020EE200ABDEEC00A10EE103A2A4673A18B
:103CC0000320FDF787FB85E000BF00BF2068FDF7FC
:103CD000B3FB054694ED070ADFED490A20EE200A02
:103CE000BDEEC00AD4ED060A9FED451A60EE810ACA
:103CF000FDEEE00A94ED051ADFED411A21EE211ADE
:103D0000BDEEC11A8DED001ACDED010A8DED020A4E
:103D100094ED040ADFED3A0A20EE200ABDEEC00A57
:103D200010EE103A2A4663A10320FDF753FB51E041
:103D30002068FDF781FB054694ED060ADFED300AA9
:103D400020EE200ABDEEC00AD4ED050A9FED2C1A24
:103D500060EE810AFDEEE00ACDED000A8DED010A6C
:103D600094ED040ADFED260A20EE200ABDEEC00A1B
:103D700010EE103A2A464FA10320FDF72BFB29E055
:103D80002069FCF72DFE05462068FDF755FB074628
:103D900000953A4650A103202369FDF71BFB19E06B
:103DA0002068FDF749FB05462A4651A103202369F7
:103DB000FDF710FB0EE000BF00BF00BF00BF00BF5B
:103DC0002068FDF739FB05462A464EA10320FDF782
:103DD00001FB00BF00BF05B0F0BD0000646174616D
:103DE000206576656E7420257320286C7362293AED
:103DF00020256C6C75202564202564202564000036
:103E000000007A4464617461206576656E742025D3
:103E10007320286D67293A202564202564202564B5
:103E20000000000064617461206576656E74202571
:103E30007320286D647073293A202564202564203E
:103E40002564000064617461206576656E742025C8
:103E50007320286E54293A20256420256420256487
:103E60000000000064617461206576656E74202531
:103E70007320286D647073293A20256420256420FE
:103E80002564202564202564202564006461746114
:103E9000206576656E7420257320286E54293A209B
:103EA00025642025642025642025642025642025A0
:103EB0006400000064617461206576656E7420257D
:103EC000732028652D33293A202564202564202578
:103ED00064202564200000006461746120657665BB
:103EE0006E74202573203A2025642025730000007D
:103EF00064617461206576656E74202573203A20B4
:103F0000256C750064617461206576656E7420258A
:103F100073203A202E2E2E002DE9F84F88461546A4
:103F2000002D35D04FF000090320009000BF08EBB2
:103F300009012A460020FCF7D9FA0446A1442D1BAA
:103F4000FCB91448007800B920E0012606B90FE05A
:103F500000BF4FF47A7707B906E0DFF83CA04FEADC
:103F6000871B5846D04700BF701E061EF1D100BF08
:103F70000098401E0090009818B90020054908706C
:103F800004E0012003490870002DD0D100BF00BF1C
:103F9000BDE8F88FF8370020014E00002DE9F05FF2
:103FA0000E46174607F0FF0A002018490870184C03
:103FB000B046D146834620781649085C30B14A465F
:103FC0004146201DFFF792FA83460AE02078114906
:103FD000085C30B94A46414604F10C00FFF7C2F9CB
:103FE00083465D4600BF00BF2C4624B100BF20467B
:103FF000FCF7E0FD00BF00BF00BF0748007818B124
:10400000024800780028F8D0BDE8F09F1038002062
:10401000FC370020E8370020113800202DE9F05F40
:1040200005460E4690461F46DDF828904FEA154A91
:10403000FCF77AFF83464AEA0B42781C00EA090043
:104040000E4941F8202007EA090001EB80042068AE
:1040500065F3C5002060206868F38910206020683F
:1040600066F39F202060206820F00300401C206041
:10407000206820F004002060BDE8F09F543D00203F
:104080002DE9FC478046894616461C4616480768B7
:10409000012201A92046FCF755FEC0B1019800F1AC
:1040A000020A002509E056F8252050460AF1010AC7
:1040B00038400E4941F820206D1CA542F3D30097EB
:1040C000224649464046019BFFF7A8FF00BF07482C
:1040D0000C38007830B100BF00BFFEF743FA00286B
:1040E000FBD100BFBDE8FC8734380020543D0020E0
:1040F0002DE9F04781460C4615469846002608F003
:104100000100A0B105E0641C761C39464846FCF766
:104110008BFE2778002FF6D104E06D1E2021484643
:10412000FCF782FEB5421BD9002DF6D118E01CB178
:104130002046FCF72BF9064604E06D1E2021484678
:10414000FCF772FEB54201D9002DF6D105E0641CE2
:10415000761C39464846FCF767FE2778002FF6D1D3
:10416000BDE8F0877CB50B4903C9CDE900010A4AD7
:1041700069460A48FEF7D8FF044600BF254625B128
:1041800000BF2846FCF716FD00BF00BF0348FEF73E
:10419000B9FF7CBDEC4C0000A1410000C84C000000
:1041A00070B504460D46B4F5A07F0AD10B490C4A00
:1041B000891AC908032242EA01400AA1FEF75CFB02
:1041C0000AE00649064A891AC908032242EA014060
:1041D00008A1FEF751FB00BF00BF70BDEC5A000004
:1041E000BC5A000054696D65722066696E69736817
:1041F0006564000054696D65722063616C6C626176
:10420000636B000070470146032001F001020AB110
:104210004FF4024001F002020AB148F2012001F01D
:1042200004020AB148F2022070470000F0B587B0DE
:1042300006460C464FF492713046FEF715FD60B30A
:104240004FF492713046FEF716FD4FF482713046FE
:10425000FEF70AFD08BBA1683046FEF713FD0220F9
:10426000A060A1683046FEF710FD4FF4B0713046F3
:10427000FEF7FAFC20B1D6F8000200F4007038B95D
:1042800020213046FEF712FD14213046FEF70EFDC8
:10429000012084F82E0007B0F0BD4FF48271304643
:1042A000FEF7E2FC002842D04FF482713046FEF760
:1042B000E2FC94F8200000F0400050B994F82E0081
:1042C00038B92146304600F097FC80F0010084F8B0
:1042D0002E0094F8200000F00400002861D1142280
:1042E00004F10C0102A8FCF71FF84FF4B07130463E
:1042F000FEF7C1FC4FF4AE713046FEF7BCFC94F8FB
:10430000300018B194F82E0000284AD00021304621
:10431000FEF7C9FC0020A0603D493046FEF7B2FC24
:104320003046FEF747FD0746FCF7DAFA39E04FF46E
:10433000A4713046FEF79FFC207BC8B9142204F11B
:104340000C0102A8FBF7F0FF94F8300048BB0021F5
:104350003046FEF7A8FC0020A0602D493046FEF74D
:1043600091FC3046FEF726FD0746FCF7B9FA18E047
:104370004FF400713046FEF796FC40F20220A06038
:1043800023493046FEF77EFCA1683046FEF77DFCEF
:1043900008213046FEF78AFC20213046FEF786FCD5
:1043A00079E73046FEF75AFC054605F0020018B1E1
:1043B00001208DF8040017E005F0040018B1022078
:1043C0008DF8040010E005F0010018B103208DF80D
:1043D000040009E094F82E0018B104208DF80400C0
:1043E00002E000208DF8040094F8300010B900209D
:1043F00084F82F0094F8200000F0040010B194F825
:104400002E0018B101A8D4E90021904700BF42E76F
:1044100002029C012DE9FC5F04460F4615461E462C
:104420004FF0000908200190002084F82E00E86871
:10443000FEF710FE20B94FF010094846BDE8FC9F7A
:10444000BF493846FEF71EFC94F82F0038B1A1682A
:104450003846FEF71AFC4FF011094846EEE706F021
:10446000040020B906F0100008B9012000E0002087
:1044700084F82F001422294604F10C00FBF754FFA6
:10448000C6F3001084F8300026626878C7F8880503
:1044900000BF4FF482713846FEF7EDFB4FF4927186
:1044A0003846FEF7E8FB4FF4B0713846FEF7E3FB01
:1044B0004FF4A4713846FEF7DEFB3846314601F072
:1044C000010232B100BF01234FF4AA62135000BFB2
:1044D00006E000BF00234FF4AA62135000BF00BFE4
:1044E00001F0020232B100BF01234FF4A862135061
:1044F00000BF06E000BF00234FF4A862135000BFC6
:1045000000BF00BF2878002858D0012875D00228A5
:1045100036D0032870D12869FEF79CFD18B94FF0FA
:10452000100948468AE74FF480713846FEF7BBFB16
:1045300038466A68E968FEF7BCFB4FF4A871384654
:10454000FEF799FB20213846FEF7B0FB08213846DC
:10455000FEF7ACFB00BF4FF4A8713846FEF784FBB2
:104560000028F8D04FF4A8713846FEF784FB38468F
:10457000AA682969FEF79DFB4FF48020A06052E0F5
:1045800038466A68E968FEF794FB2869FEF762FD21
:1045900018B94FF01009484650E73846AA6829690B
:1045A000FEF776FB4FF484513846FEF77CFB022081
:1045B000A06020213846FEF779FB34E038466A686F
:1045C000E968FEF776FB06F0200040B14FF48071F9
:1045D0003846FEF768FB4FF48020A06006E04FF4F9
:1045E00000713846FEF75FFB0220A06020213846AC
:1045F000FEF75CFB17E000E012E038466A68E96805
:10460000FEF746FB4FF480513846FEF74CFB022084
:10461000A0600020019020213846FEF747FB02E011
:104620004FF0070900BF00BF06F0080030B9287836
:10463000032803D038460199FEF738FB2068A0B163
:1046400006F0040008B10020A06006F0400018B990
:10465000A06840F00200A060A06840F40070A06074
:10466000A1683846FEF711FB67E00020009000BF0C
:104670004FF4A4713846FEF7F7FA08B10120009014
:104680004FF482713846FEF7EFFA30B14FF4827181
:104690003846FEF7F0FA012000904FF49271384648
:1046A000FEF7E2FA60B34FF492713846FEF7E3FA90
:1046B0004FF4B0713846FEF7D7FA824600BFD7F8FC
:1046C00000028346BAF1000F02D00BF4007048B923
:1046D00020213846FEF7EAFA14213846FEF7E6FABA
:1046E00000200090BAF1000F09D00BF4807030B1B7
:1046F0004FF4A4713846FEF7BEFA0020009000BFC8
:1047000000980028B4D03846FEF7A8FA804600206A
:1047100084F82F00B8F1000F04D04046FFF773FD76
:10472000814609E006F0400030B92146384600F0E5
:1047300063FA08B94FF0030900BF48467EE600005F
:1047400002029C0170B505460C46666910E004E063
:1047500094F8280008B1002070BD4FF48E712846EF
:10476000FEF7B8FA0028F3D02146284600F005F8F5
:10477000206AB042EBD30120EEE770B505460C4647
:104780004FF48E712846FEF7ACFA216AA068465CA9
:10479000206A401C20623046C5F81C0500BF70BD71
:1047A0007FB504460D4600208DF800000295A068F4
:1047B0000190002060616846D4E9001290477FBDF7
:1047C0007FB504460D4600208DF800000295A068D4
:1047D0000190002060616846D4E9001290477FBDD7
:1047E0007FB504460D462E4620788DF8000060689F
:1047F0000190217A8DF80810E1680391044850F87F
:104800002610044850F82620684690477FBD0000D7
:10481000E4370020E03700200122014B1A70704776
:104820001038002070B588B005462022114968462E
:10483000FBF77AFD06200090C01F019002900390C4
:104840004FF0EB7006900DB10B4800E000200246DF
:1048500069460A48FDF7EAFA044600BF264626B133
:1048600000BF3046FCF7A6F900BF00BF0448057042
:1048700008B070BD144E000019480000FC3700203D
:10488000113800202DE9FF4105460C464FF4007118
:104890002846FEF738FA48B34FF492712846FEF7DF
:1048A00019FA18B34FF492712846FEF71AFA4FF42A
:1048B00001712846FEF721FA94F8290018B904215D
:1048C0002846FEF729FA02208DF800002846FEF758
:1048D000FBF90390A1690291E06801900020A061BA
:1048E000E0616846D4E90012904737E00421284689
:1048F000FEF709FA002831D04FF484712846FEF7FC
:10490000E9F958B321462846FFF758F8616AA069CB
:10491000884223D1E06970B1E668676AE069A06106
:104920002069E0600020E06160623246394620463E
:10493000FFF763F812E094F8290018B9042128461B
:10494000FEF7EAF94FF401712846FEF7D6F9002088
:10495000A061E268616A2046FFF74FF84FF48E715C
:104960002846FEF7B7F9B8B16669206AB04207D2A7
:1049700094F8280020B921462846FFF7FEFE0AE0F9
:104980004FF48E712846FEF7ACF9606918B1616981
:104990002046FFF705FF00BF4FF4A2712846FEF73F
:1049A00099F9A0B14FF4A2712846FEF79AF994F84C
:1049B000290018B100212846FEF7AEF9A06930B1F0
:1049C0000020A061E268616A2046FFF716F8BDE8A2
:1049D000FF8100007FB504460D462E4620788DF8F5
:1049E000000060680190217A8DF80810E168039159
:1049F000044850F82610044850F82620684690478E
:104A00007FBD0000E4370020E03700202DE9FF41A2
:104A100006460C464FF492713046FEF78BF9C8B14A
:104A20004FF492713046FEF78CF902208DF80000A9
:104A30003046FEF779F903903046FEF795F902907B
:104A4000E06801900020A061E0616846D4E90012AE
:104A500090472CE04FF488713046FEF76BF930B385
:104A60004FF488713046FEF76CF93046FEF77CF95A
:104A70000546A069A84219D1E06980B1E768202104
:104A80003046FEF776F9E069A0612069E060002019
:104A9000E0613A4629462046FEF7BDFF06E00020C9
:104AA000A06129462046E268FEF7B5FF00BF4FF43B
:104AB000A2713046FEF73EF990B14FF4A271304634
:104AC000FEF73FF9A06958B10020A061E0613046CF
:104AD000FEF74AF9054629462046E268FEF79BFFA5
:104AE0004FF490713046FEF725F990B14FF4907174
:104AF0003046FEF726F90C213046FEF740F9606992
:104B000038B13046FEF73EF9054629462046FFF704
:104B100057FE4FF4AC713046FEF70CF970B14FF40C
:104B2000AC713046FEF70DF9606938B13046FEF7DA
:104B300029F9054629462046FFF742FEBDE8FF81D8
:104B40002DE9FF4F81B0884616461F46DDE90E4B22
:104B500045464FF0010A03E0B5FBF6F50AF1010AFC
:104B6000B542F9D2574500D9BA460BF0010098B9C1
:104B700094B10BF00200022803D117B93020009045
:104B800001E02020009004E0641EDDE90010FCF745
:104B90004BF90CB1A245F7D3012509E0012F01D94A
:104BA0007F1E04E0B8FBF5F9B14500D201E0754382
:104BB000F4E700BF00BFB8FBF5F909FB15880D4805
:104BC00010F809100198FCF72FF9B5FBF6F5002D48
:104BD000F1D10BF0010048B144B104E0641E202182
:104BE0000198FCF721F90CB1A245F7D305B0BDE857
:104BF000F08F0000D64D000070B505460C4601262A
:104C0000207B48B301282FD0022817D0032833D1A6
:104C1000A06800F4802028B12846FEF750F82169EA
:104C2000884209D1A06800F4802030B92846FEF7F8
:104C300046F86169884200D000261EE02846FEF74B
:104C40003EF82169884205D12846FEF727F86169B8
:104C5000884200D0002610E02846FEF730F821698F
:104C6000884200D0002608E02846FEF717F82169A0
:104C7000884200D0002600E000BF00BF56B900BF48
:104C80000020C5F8000500BF00BF0620C5F80005DC
:104C900000BF00BF304670BD0000000000000000F3
:104CA0000000000000300040000000000100000093
:104CB000A9180000D9180000000100000001000040
:104CC00001000000EFBEADDE0080004000040000E7
:104CD0000338FDD8704700001B0000001A000000D8
:104CE0000000680602000000030002000400030642
:104CF000000000006E7266785F7477696D5F696EA0
:104D000069740000710500007477696D5F786665ED
:104D100072006E7266785F7477696D5F786665722F
:104D20000000000001000000000000000000000082
:104D300000000000000000006E7266785F7561720E
:104D4000745F696E69740000C93200006E72667823
:104D50005F756172745F7478006E7266785F7561FA
:104D600072745F72780000006E7266785F756172AF
:104D700074655F696E697400593400006E726678FC
:104D80005F75617274655F7478006E7266785F75C6
:104D9000617274655F727800000000506E72667810
:104DA0005F6770696F74655F696E6974006E7266C3
:104DB000785F6770696F74655F6F75745F696E693E
:104DC00074006E7266785F6770696F74655F696E94
:104DD0005F696E69740030313233343536373839B3
:104DE000414243444546000000000000000000002E
:104DF0007D2300007B2300007123000000000000E1
:104E00000338FDD870470000D52400009D24000021
:104E10008F240000FFFFFFFFFFFFFFFFFFFFFFFFEB
:104E2000FFFFFFFF00000000000000000000D601AF
:104E300006010000B03C00207F000000303D002053
:104E4000004040404040404040404141414141409D
:104E50004040404040404040404040404040404052
:104E600040050202020202020202020202020202E1
:104E700002202020202020202020200202020202E6
:104E8000020290909090909010101010101010103E
:104E9000101010101010101010101010020202024A
:104EA000020288888888888808080808080808088E
:104EB000080808080808080808080808020202028A
:104EC00040000000414E00007761726E696E67001D
:104ED00064656275670000001B5B313B33306D0019
:104EE0001B5B306D000000001B5B313B33316D00FC
:104EF0001B5B313B33326D001B5B313B33336D0049
:104F00001B5B313B33346D001B5B313B33356D0034
:104F10001B5B313B33366D001B5B313B33376D0020
:104F2000696E666F000000006572726F72000000AB
:104F300053454E534F525F435553544F4D3000002D
:104F400053454E534F525F435553544F4D3100001C
:104F500053454E534F525F435553544F4D3200000B
:104F600053454E534F525F435553544F4D330000FA
:104F700053454E534F525F435553544F4D340000E9
:104F800053454E534F525F435553544F4D350000D8
:104F900053454E534F525F435553544F4D360000C7
:104FA00053454E534F525F435553544F4D370000B6
:104FB00053454E534F525F424143000053454E53B9
:104FC0004F525F4D4943000053454E534F525F428D
:104FD00041435F455854454E4445440053454E5364
:104FE0004F525F52455345525645440053454E5328
:104FF0004F525F534D44000053454E534F525F5341
:105000004544454E544152595F52454D494E440026
:1050100053454E534F525F44495354414E4345000C
:1050200053454E534F525F5348414B4500000000DB
:1050300053454E534F525F554E43414C5F47595273
:105040004F53434F5045000053454E534F525F4717
:1050500059524F53434F50450000000053454E53A3
:105060004F525F5241575F4759524F53434F50453C
:105070000000000053454E534F525F435553544F69
:105080004D5F5052455353555245000053454E53C2
:105090004F525F50524553535552450053454E535E
:1050A0004F525F54454D50455241545552450000B2
:1050B00053454E534F525F414D4249454E545F5404
:1050C000454D5045524154555245000053454E53AD
:1050D0004F525F5241575F54454D504552415455D0
:1050E0005245000053454E534F525F454E4552477F
:1050F000595F455850454E444954555245000000AB
:1051000053454E534F525F474C414E43455F4745D1
:10511000535455524500000053454E534F525F576C
:10512000414B455F474553545552450053454E53F7
:105130004F525F5049434B5F55505F47455354555D
:105140005245000053454E534F525F48454152541B
:105150005F5241544500000053454E534F525F5239
:1051600041575F505047000053454E534F525F57D1
:105170004F4D000053454E534F525F5052454449E6
:1051800043544956455F5155415445524E494F4E3F
:105190000000000053454E534F525F4C494E45416D
:1051A000525F414343454C45524154494F4E0000E4
:1051B00053454E534F525F4F5249454E5441544907
:1051C0004F4E000053454E534F525F444154415F90
:1051D000454E4352595054494F4E000053454E538B
:1051E0004F525F484947485F524154455F475952C3
:1051F0004F00000053454E534F525F444F55424CB1
:10520000455F54415000000053454E534F525F508C
:105210004452000053454E534F525F48524D5F4C2D
:105220004F4747455200000053454E534F525F4190
:105230004343454C45524F4D4554455200000000F4
:1052400053454E534F525F5241575F414343454C84
:1052500045524F4D455445520000000053454E53B2
:105260004F525F554E43414C5F4D41474E45544F61
:105270004D4554455200000053454E534F525F4D2B
:1052800041474E45544F4D455445520053454E53AA
:105290004F525F5241575F4D41474E45544F4D4528
:1052A0005445520053454E534F525F464C4F4F5258
:1052B0005F434C494D425F434F554E5445520000A9
:1052C00053454E534F525F535445505F434F554ED5
:1052D0005445520053454E534F525F535445505F0F
:1052E0004445544543544F520000000053454E532B
:1052F0004F525F54494C545F4445544543544F52B8
:105300000000000053454E534F525F47414D455FEB
:10531000524F544154494F4E5F564543544F5200EB
:1053200053454E534F525F47454F4D41475F524F94
:10533000544154494F4E5F564543544F520000006C
:1053400053454E534F525F524F544154494F4E5F55
:10535000564543544F52000053454E534F525F42FF
:105360003253000053454E534F525F4241435F5307
:1053700054415449535449435300000053454E533C
:105380004F525F454953000053454E534F525F4FB4
:105390004953000053454E534F525F534C454550BF
:1053A0005F414E414C5953495300000053454E5301
:1053B0004F525F33415849530000000053454E534C
:1053C0004F525F4C494748540000000053454E532C
:1053D0004F525F4653594E435F4556454E54000069
:1053E00053454E534F525F435553544F4D5F4241C7
:1053F000435F53435F45455F4449535400000000F9
:1054000053454E534F525F5453494D5500000000D1
:1054100053454E534F525F435553544F4D305F5792
:105420005500000053454E534F525F435553544F60
:105430004D315F575500000053454E534F525F4367
:105440005553544F4D325F575500000053454E534E
:105450004F525F435553544F4D335F575500000033
:1054600053454E534F525F435553544F4D345F573E
:105470005500000053454E534F525F435553544F10
:105480004D355F575500000053454E534F525F4313
:105490005553544F4D365F575500000053454E53FA
:1054A0004F525F435553544F4D375F5755000000DF
:1054B00053454E534F525F4241435F5755000000E2
:1054C00053454E534F525F4D49435F5755000000BF
:1054D00053454E534F525F4241435F455854454EEA
:1054E0004445445F5755000053454E534F525F5259
:1054F000455345525645445F5755000053454E535A
:105500004F525F534D445F575500000053454E5373
:105510004F525F534544454E544152595F52454D99
:10552000494E445F5755000053454E534F525F4418
:10553000495354414E43455F5755000053454E5320
:105540004F525F5348414B455F57550053454E53AB
:105550004F525F554E43414C5F4759524F53434F53
:1055600050455F575500000053454E534F525F471B
:1055700059524F53434F50455F57550053454E5373
:105580004F525F5241575F4759524F53434F504517
:105590005F57550053454E534F525F435553544F39
:1055A0004D5F50524553535552455F5755000000CB
:1055B00053454E534F525F50524553535552455FDA
:1055C0005755000053454E534F525F54454D50457B
:1055D0005241545552455F575500000053454E53B4
:1055E0004F525F414D4249454E545F54454D5045E1
:1055F0005241545552455F575500000053454E5394
:105600004F525F5241575F54454D5045524154559A
:1056100052455F575500000053454E534F525F456A
:105620004E455247595F455850454E44495455528E
:10563000455F57550000000053454E534F525F479A
:105640004C414E43455F474553545552455F57556E
:105650000000000053454E534F525F57414B455F8A
:10566000474553545552455F5755000053454E53D7
:105670004F525F5049434B5F55505F474553545518
:1056800052455F575500000053454E534F525F48F7
:10569000454152545F524154455F57550000000048
:1056A00053454E534F525F5241575F5050475F57DB
:1056B0005500000053454E534F525F574F4D5F57B3
:1056C0005500000053454E534F525F5052454449D8
:1056D00043544956455F5155415445524E494F4EEA
:1056E0005F57550053454E534F525F4C494E45410D
:1056F000525F414343454C45524154494F4E5F57D9
:105700005500000053454E534F525F4F5249454E8E
:10571000544154494F4E5F575500000053454E5376
:105720004F525F444154415F454E43525950544992
:105730004F4E5F575500000053454E534F525F4840
:105740004947485F524154455F4759524F5F57554B
:105750000000000053454E534F525F5044525F5774
:105760005500000053454E534F525F48524D5F4C19
:105770004F474745525F57550000000053454E5371
:105780004F525F414343454C45524F4D455445525E
:105790005F57550053454E534F525F5241575F413B
:1057A0004343454C45524F4D455445525F57550074
:1057B00053454E534F525F554E43414C5F4D414709
:1057C0004E45544F4D455445525F5755000000001B
:1057D00053454E534F525F4D41474E45544F4D45F3
:1057E0005445525F5755000053454E534F525F5238
:1057F00041575F4D41474E45544F4D455445525FCB
:105800005755000053454E534F525F464C4F4F5231
:105810005F434C494D425F434F554E5445525F578D
:105820005500000053454E534F525F535445505F4F
:10583000434F554E5445525F5755000053454E5304
:105840004F525F535445505F4445544543544F5263
:105850005F57550053454E534F525F54494C545F68
:105860004445544543544F525F57550053454E539A
:105870004F525F47414D455F524F544154494F4E3F
:105880005F564543544F525F5755000053454E53A2
:105890004F525F47454F4D41475F524F5441544926
:1058A0004F4E5F564543544F525F5755000000001E
:1058B00053454E534F525F524F544154494F4E5FE0
:1058C000564543544F525F575500000053454E53C1
:1058D0004F525F4232535F575500000053454E53BD
:1058E0004F525F4241435F535441544953544943DB
:1058F000535F57550000000053454E534F525F45CC
:1059000049535F575500000053454E534F525F4F68
:1059100049535F575500000053454E534F525F5354
:105920004C4545505F414E414C595349535F575583
:105930000000000053454E534F525F3341584953C6
:105940005F57550053454E534F525F4C494748549B
:105950005F57550053454E534F525F4653594E4380
:105960005F4556454E545F575500000053454E5312
:105970004F525F435553544F4D5F4241435F534332
:105980005F45455F444953545F57550053454E5357
:105990004F525F5453494D555F57550053454E5331
:1059A0004F525F4852565F575500000053454E53C3
:1059B0004F525F48554D49444954595F575500006F
:1059C00053454E534F525F50524F58494D495459C9
:1059D0005F57550053454E534F525F47524156490A
:1059E00054595F575500000053454E534F525F487E
:1059F0005256000053454E534F525F48554D49444F
:105A00004954590053454E534F525F50524F5849D5
:105A10004D4954590000000053454E534F525F47C3
:105A20005241564954590000505253005457494D61
:105A300000000000554152540000000055415254EE
:105A4000450000004750494F5445000054494D451A
:105A5000520000007274745F6C6F675F6261636B09
:105A6000656E6400756172745F6C6F675F6261631D
:105A70006B656E640000000061707000085B0000E0
:105A800000000020943A0000D0030000F0840000E1
:105A9000943A00205C490000D2090000F04D00005B
:105AA00000000000545A000014380020084E000086
:105AB00000000000645A00001C380020285A000032
:105AC000000000002C5A000000000000345A0000C2
:105AD000000000003C5A000000000000445A000092
